{
  "transactions": [
    {
      "hash": "0x9986e5b794d4857202464eb2b85cda6535c2d9c3a9784652f73f206ab0dc921c",
      "transactionType": "CREATE",
      "contractName": "RolesAuthority",
      "contractAddress": "0xcb0a393f175b555824ff93586351b97e5ab9471b",
      "function": null,
      "arguments": [
        "0x77B4922Fcc0Fa745Bcd7d76025E682CFfFc9a149",
        "0x0000000000000000000000000000000000000000"
      ],
      "transaction": {
        "from": "0x77b4922fcc0fa745bcd7d76025e682cfffc9a149",
        "gas": "0xce9cf",
        "value": "0x0",
        "input": "0x608060405234801561000f575f80fd5b50604051610b58380380610b5883398101604081905261002e916100dd565b5f80546001600160a01b03199081166001600160a01b0385811691821784556001805490931690851617909155604051849284929133917f8be0079c531659141344cd1fd0a4f28419497f9722a3daafe3b4186f6b6457e091a36040516001600160a01b0382169033907fa3396fd7f6e0a21b50e5089d2da70d5ac0a3bbbd1f617a93f134b76389980198905f90a350505050610115565b6001600160a01b03811681146100da575f80fd5b50565b5f80604083850312156100ee575f80fd5b82516100f9816100c6565b602084015190925061010a816100c6565b809150509250929050565b610a36806101225f395ff3fe608060405234801561000f575f80fd5b50600436106100cb575f3560e01c80638da5cb5b11610088578063bf7e214f11610063578063bf7e214f1461022c578063c6b0263e1461023f578063ea7ca27614610252578063f2fde38b14610288575f80fd5b80638da5cb5b146101a3578063b4bad06a146101cd578063b700961314610219575f80fd5b806306a36aee146100cf5780632f47571f1461010157806367aff4841461013e5780637917b794146101535780637a9e5e4b1461017d5780637d40583d14610190575b5f80fd5b6100ee6100dd3660046107b5565b60026020525f908152604090205481565b6040519081526020015b60405180910390f35b61012e61010f3660046107f3565b600360209081525f928352604080842090915290825290205460ff1681565b60405190151581526020016100f8565b61015161014c366004610843565b61029b565b005b6100ee6101613660046107f3565b600460209081525f928352604080842090915290825290205481565b61015161018b3660046107b5565b610376565b61015161019e366004610889565b61045a565b5f546101b5906001600160a01b031681565b6040516001600160a01b0390911681526020016100f8565b61012e6101db3660046108de565b6001600160a01b03919091165f9081526004602090815260408083206001600160e01b031990941683529290522054600160ff929092161c16151590565b61012e610227366004610920565b610562565b6001546101b5906001600160a01b031681565b61015161024d36600461093d565b6105df565b61012e610260366004610968565b6001600160a01b03919091165f90815260026020526040902054600160ff9092161c16151590565b6101516102963660046107b5565b61067e565b6102b0335f356001600160e01b0319166106f9565b6102d55760405162461bcd60e51b81526004016102cc90610992565b60405180910390fd5b8015610303576001600160a01b0383165f9081526002602052604090208054600160ff85161b179055610328565b6001600160a01b0383165f9081526002602052604090208054600160ff85161b191690555b8160ff16836001600160a01b03167f4c9bdd0c8e073eb5eda2250b18d8e5121ff27b62064fbeeeed4869bb99bc5bf283604051610369911515815260200190565b60405180910390a3505050565b5f546001600160a01b0316331480610407575060015460405163b700961360e01b81526001600160a01b039091169063b7009613906103c890339030906001600160e01b03195f3516906004016109b8565b602060405180830381865afa1580156103e3573d5f803e3d5ffd5b505050506040513d601f19601f8201168201806040525081019061040791906109e5565b61040f575f80fd5b600180546001600160a01b0319166001600160a01b03831690811790915560405133907fa3396fd7f6e0a21b50e5089d2da70d5ac0a3bbbd1f617a93f134b76389980198905f90a350565b61046f335f356001600160e01b0319166106f9565b61048b5760405162461bcd60e51b81526004016102cc90610992565b80156104ce576001600160a01b0383165f9081526004602090815260408083206001600160e01b03198616845290915290208054600160ff87161b179055610508565b6001600160a01b0383165f9081526004602090815260408083206001600160e01b03198616845290915290208054600160ff87161b191690555b816001600160e01b031916836001600160a01b03168560ff167fa52ea92e6e955aa8ac66420b86350f7139959adfcc7e6a14eee1bd116d09860e84604051610554911515815260200190565b60405180910390a450505050565b6001600160a01b0382165f9081526003602090815260408083206001600160e01b03198516845290915281205460ff16806105d757506001600160a01b038084165f9081526004602090815260408083206001600160e01b031987168452825280832054938816835260029091529020541615155b949350505050565b6105f4335f356001600160e01b0319166106f9565b6106105760405162461bcd60e51b81526004016102cc90610992565b6001600160a01b0383165f8181526003602090815260408083206001600160e01b0319871680855290835292819020805460ff191686151590811790915590519081529192917f950a343f5d10445e82a71036d3f4fb3016180a25805141932543b83e2078a93e9101610369565b610693335f356001600160e01b0319166106f9565b6106af5760405162461bcd60e51b81526004016102cc90610992565b5f80546001600160a01b0319166001600160a01b0383169081178255604051909133917f8be0079c531659141344cd1fd0a4f28419497f9722a3daafe3b4186f6b6457e09190a350565b6001545f906001600160a01b03168015801590610780575060405163b700961360e01b81526001600160a01b0382169063b700961390610741908790309088906004016109b8565b602060405180830381865afa15801561075c573d5f803e3d5ffd5b505050506040513d601f19601f8201168201806040525081019061078091906109e5565b806105d757505f546001600160a01b03858116911614949350505050565b6001600160a01b03811681146107b2575f80fd5b50565b5f602082840312156107c5575f80fd5b81356107d08161079e565b9392505050565b80356001600160e01b0319811681146107ee575f80fd5b919050565b5f8060408385031215610804575f80fd5b823561080f8161079e565b915061081d602084016107d7565b90509250929050565b803560ff811681146107ee575f80fd5b80151581146107b2575f80fd5b5f805f60608486031215610855575f80fd5b83356108608161079e565b925061086e60208501610826565b9150604084013561087e81610836565b809150509250925092565b5f805f806080858703121561089c575f80fd5b6108a585610826565b935060208501356108b58161079e565b92506108c3604086016107d7565b915060608501356108d381610836565b939692955090935050565b5f805f606084860312156108f0575f80fd5b6108f984610826565b925060208401356109098161079e565b9150610917604085016107d7565b90509250925092565b5f805f60608486031215610932575f80fd5b83356108f98161079e565b5f805f6060848603121561094f575f80fd5b833561095a8161079e565b925061086e602085016107d7565b5f8060408385031215610979575f80fd5b82356109848161079e565b915061081d60208401610826565b6020808252600c908201526b15539055551213d49256915160a21b604082015260600190565b6001600160a01b0393841681529190921660208201526001600160e01b0319909116604082015260600190565b5f602082840312156109f5575f80fd5b81516107d08161083656fea2646970667358221220d299263d32bd0f53b3346649f4bb0f21ab93926e03fff6c5c5e428895d7a353d64736f6c6343000815003300000000000000000000000077b4922fcc0fa745bcd7d76025e682cfffc9a1490000000000000000000000000000000000000000000000000000000000000000",
        "nonce": "0x136",
        "chainId": "0x1"
      },
      "additionalContracts": [],
      "isFixedGasLimit": false
    },
    {
      "hash": "0xd0dadd9e0f0fdff48fa06d56a5dbdbdb74ef84a3b1ed987a712ea5085de157d6",
      "transactionType": "CREATE",
      "contractName": "BoringVault",
      "contractAddress": "0x324dcd943a79ff3497845479980f6bc936b8116e",
      "function": null,
      "arguments": [
        "0x77B4922Fcc0Fa745Bcd7d76025E682CFfFc9a149",
        "USDe Vault",
        "cUSDe",
        "18"
      ],
      "transaction": {
        "from": "0x77b4922fcc0fa745bcd7d76025e682cfffc9a149",
        "gas": "0x2327c2",
        "value": "0x0",
        "input": "0x60e060405234801562000010575f80fd5b506040516200225338038062002253833981016040819052620000339162000263565b835f848484836200004584826200038c565b5060016200005483826200038c565b5060ff81166080524660a0526200006a6200010b565b60c0525050600680546001600160a01b038086166001600160a01b03199283168117909355600780549186169190921617905560405190915033907f8be0079c531659141344cd1fd0a4f28419497f9722a3daafe3b4186f6b6457e0905f90a36040516001600160a01b0382169033907fa3396fd7f6e0a21b50e5089d2da70d5ac0a3bbbd1f617a93f134b76389980198905f90a3505050505050620004ce565b5f7f8b73c3c69bb8fe3d512ecc4cf759cc79239f7b179b0ffacaa9a75d522b39400f5f6040516200013d919062000454565b6040805191829003822060208301939093528101919091527fc89efdaa54c0f20c7adf612882df0950f5a951637e0307cdcb4c672f298b8bc660608201524660808201523060a082015260c00160405160208183030381529060405280519060200120905090565b634e487b7160e01b5f52604160045260245ffd5b5f82601f830112620001c9575f80fd5b81516001600160401b0380821115620001e657620001e6620001a5565b604051601f8301601f19908116603f01168101908282118183101715620002115762000211620001a5565b816040528381526020925086838588010111156200022d575f80fd5b5f91505b8382101562000250578582018301518183018401529082019062000231565b5f93810190920192909252949350505050565b5f805f806080858703121562000277575f80fd5b84516001600160a01b03811681146200028e575f80fd5b60208601519094506001600160401b0380821115620002ab575f80fd5b620002b988838901620001b9565b94506040870151915080821115620002cf575f80fd5b50620002de87828801620001b9565b925050606085015160ff81168114620002f5575f80fd5b939692955090935050565b600181811c908216806200031557607f821691505b6020821081036200033457634e487b7160e01b5f52602260045260245ffd5b50919050565b601f82111562000387575f81815260208120601f850160051c81016020861015620003625750805b601f850160051c820191505b8181101562000383578281556001016200036e565b5050505b505050565b81516001600160401b03811115620003a857620003a8620001a5565b620003c081620003b9845462000300565b846200033a565b602080601f831160018114620003f6575f8415620003de5750858301515b5f19600386901b1c1916600185901b17855562000383565b5f85815260208120601f198616915b82811015620004265788860151825594840194600190910190840162000405565b50858210156200044457878501515f19600388901b60f8161c191681555b5050505050600190811b01905550565b5f808354620004638162000300565b600182811680156200047e57600181146200049457620004c2565b60ff1984168752821515830287019450620004c2565b875f526020805f205f5b85811015620004b95781548a8201529084019082016200049e565b50505082870194505b50929695505050505050565b60805160a05160c051611d5a620004f95f395f61092901525f6108f401525f6102e00152611d5a5ff3fe60806040526004361061017e575f3560e01c80637ecebe00116100cd578063bc197c8111610087578063dd62ed3e11610062578063dd62ed3e146104cd578063f23a6e6114610503578063f2fde38b1461052e578063f6e715d01461054d575f80fd5b8063bc197c8114610464578063bf7e214f1461048f578063d505accf146104ae575f80fd5b80637ecebe00146103915780637f5a7c7b146103bc5780638929565f146103f35780638da5cb5b1461041257806395d89b4114610431578063a9059cbb14610445575f80fd5b8063224d8703116101385780633644e515116101135780633644e5151461031457806339d6ba321461032857806370a08231146103475780637a9e5e4b14610372575f80fd5b8063224d87031461028457806323b872dd146102b0578063313ce567146102cf575f80fd5b806301ffc9a71461018957806306fdde03146101bd578063095ea7b3146101de578063150b7a02146101fd57806318160ddd1461024057806318457e6114610263575f80fd5b3661018557005b5f80fd5b348015610194575f80fd5b506101a86101a336600461147e565b61056c565b60405190151581526020015b60405180910390f35b3480156101c8575f80fd5b506101d16105a2565b6040516101b491906114f2565b3480156101e9575f80fd5b506101a86101f8366004611518565b61062d565b348015610208575f80fd5b506102276102173660046115f3565b630a85bd0160e11b949350505050565b6040516001600160e01b031990911681526020016101b4565b34801561024b575f80fd5b5061025560025481565b6040519081526020016101b4565b34801561026e575f80fd5b5061028261027d36600461165b565b610698565b005b34801561028f575f80fd5b506102a361029e3660046116fa565b61075d565b6040516101b4919061178d565b3480156102bb575f80fd5b506101a86102ca3660046117ed565b6108d1565b3480156102da575f80fd5b506103027f000000000000000000000000000000000000000000000000000000000000000081565b60405160ff90911681526020016101b4565b34801561031f575f80fd5b506102556108f1565b348015610333575f80fd5b5061028261034236600461165b565b61094b565b348015610352575f80fd5b5061025561036136600461182b565b60036020525f908152604090205481565b34801561037d575f80fd5b5061028261038c36600461182b565b6109f9565b34801561039c575f80fd5b506102556103ab36600461182b565b60056020525f908152604090205481565b3480156103c7575f80fd5b506008546103db906001600160a01b031681565b6040516001600160a01b0390911681526020016101b4565b3480156103fe575f80fd5b5061028261040d36600461182b565b610ade565b34801561041d575f80fd5b506006546103db906001600160a01b031681565b34801561043c575f80fd5b506101d1610b31565b348015610450575f80fd5b506101a861045f366004611518565b610b3e565b34801561046f575f80fd5b5061022761047e3660046118c3565b63bc197c8160e01b95945050505050565b34801561049a575f80fd5b506007546103db906001600160a01b031681565b3480156104b9575f80fd5b506102826104c836600461196a565b610b53565b3480156104d8575f80fd5b506102556104e73660046119db565b600460209081525f928352604080842090915290825290205481565b34801561050e575f80fd5b5061022761051d366004611a12565b63f23a6e6160e01b95945050505050565b348015610539575f80fd5b5061028261054836600461182b565b610d91565b348015610558575f80fd5b506101d1610567366004611a76565b610e0d565b5f6001600160e01b03198216630271189760e51b148061059c57506301ffc9a760e01b6001600160e01b03198316145b92915050565b5f80546105ae90611afa565b80601f01602080910402602001604051908101604052809291908181526020018280546105da90611afa565b80156106255780601f106105fc57610100808354040283529160200191610625565b820191905f5260205f20905b81548152906001019060200180831161060857829003601f168201915b505050505081565b335f8181526004602090815260408083206001600160a01b038716808552925280832085905551919290917f8c5be1e5ebec7d5bd14f71427d1e84f3dd0314c0f7b2291e5b200ac8c7c3b925906106879086815260200190565b60405180910390a350600192915050565b6106ad335f356001600160e01b031916610e93565b6106d25760405162461bcd60e51b81526004016106c990611b32565b60405180910390fd5b6106dc8282610f3a565b82156106f6576106f66001600160a01b0385168685610fa1565b816001600160a01b0316846001600160a01b0316866001600160a01b03167fe0c82280a1164680e0cf43be7db4c4c9f985423623ad7a544fb76c772bdc6043868560405161074e929190918252602082015260400190565b60405180910390a45050505050565b6060610774335f356001600160e01b031916610e93565b6107905760405162461bcd60e51b81526004016106c990611b32565b858067ffffffffffffffff8111156107aa576107aa611542565b6040519080825280602002602001820160405280156107dd57816020015b60608152602001906001900390816107c85790505b5091505f5b818110156108c5576108978787838181106107ff576107ff611b58565b90506020028101906108119190611b6c565b8080601f0160208091040260200160405190810160405280939291908181526020018383808284375f9201919091525089925088915085905081811061085957610859611b58565b905060200201358b8b8581811061087257610872611b58565b9050602002016020810190610887919061182b565b6001600160a01b03169190611024565b8382815181106108a9576108a9611b58565b6020026020010181905250806108be90611bc3565b90506107e2565b50509695505050505050565b5f6108dc84846110bd565b6108e784848461113a565b90505b9392505050565b5f7f0000000000000000000000000000000000000000000000000000000000000000461461092657610921611214565b905090565b507f000000000000000000000000000000000000000000000000000000000000000090565b610960335f356001600160e01b031916610e93565b61097c5760405162461bcd60e51b81526004016106c990611b32565b8215610997576109976001600160a01b0385168630866112ac565b6109a18282611344565b816001600160a01b0316846001600160a01b0316866001600160a01b03167fea00f88768a86184a6e515238a549c171769fe7460a011d6fd0bcd48ca078ea4868560405161074e929190918252602082015260400190565b6006546001600160a01b0316331480610a8b575060075460405163b700961360e01b81526001600160a01b039091169063b700961390610a4c90339030906001600160e01b03195f351690600401611bdb565b602060405180830381865afa158015610a67573d5f803e3d5ffd5b505050506040513d601f19601f82011682018060405250810190610a8b9190611c08565b610a93575f80fd5b600780546001600160a01b0319166001600160a01b03831690811790915560405133907fa3396fd7f6e0a21b50e5089d2da70d5ac0a3bbbd1f617a93f134b76389980198905f90a350565b610af3335f356001600160e01b031916610e93565b610b0f5760405162461bcd60e51b81526004016106c990611b32565b600880546001600160a01b0319166001600160a01b0392909216919091179055565b600180546105ae90611afa565b5f610b4933846110bd565b6108ea8383611393565b42841015610ba35760405162461bcd60e51b815260206004820152601760248201527f5045524d49545f444541444c494e455f4558504952454400000000000000000060448201526064016106c9565b5f6001610bae6108f1565b6001600160a01b038a81165f8181526005602090815260409182902080546001810190915582517f6e71edae12b1b97f4d1f60370fef10105fa2faae0126114a169c64845d6126c98184015280840194909452938d166060840152608083018c905260a083019390935260c08083018b90528151808403909101815260e08301909152805192019190912061190160f01b6101008301526101028201929092526101228101919091526101420160408051601f1981840301815282825280516020918201205f84529083018083525260ff871690820152606081018590526080810184905260a0016020604051602081039080840390855afa158015610cb6573d5f803e3d5ffd5b5050604051601f1901519150506001600160a01b03811615801590610cec5750876001600160a01b0316816001600160a01b0316145b610d295760405162461bcd60e51b815260206004820152600e60248201526d24a72b20a624a22fa9a4a3a722a960911b60448201526064016106c9565b6001600160a01b039081165f9081526004602090815260408083208a8516808552908352928190208990555188815291928a16917f8c5be1e5ebec7d5bd14f71427d1e84f3dd0314c0f7b2291e5b200ac8c7c3b925910160405180910390a350505050505050565b610da6335f356001600160e01b031916610e93565b610dc25760405162461bcd60e51b81526004016106c990611b32565b600680546001600160a01b0319166001600160a01b03831690811790915560405133907f8be0079c531659141344cd1fd0a4f28419497f9722a3daafe3b4186f6b6457e0905f90a350565b6060610e24335f356001600160e01b031916610e93565b610e405760405162461bcd60e51b81526004016106c990611b32565b610e8a84848080601f0160208091040260200160405190810160405280939291908181526020018383808284375f9201919091525050506001600160a01b03881691905084611024565b95945050505050565b6007545f906001600160a01b03168015801590610f1a575060405163b700961360e01b81526001600160a01b0382169063b700961390610edb90879030908890600401611bdb565b602060405180830381865afa158015610ef6573d5f803e3d5ffd5b505050506040513d601f19601f82011682018060405250810190610f1a9190611c08565b80610f3257506006546001600160a01b038581169116145b949350505050565b6001600160a01b0382165f9081526003602052604081208054839290610f61908490611c27565b90915550506002805482900390556040518181525f906001600160a01b038416905f80516020611d05833981519152906020015b60405180910390a35050565b5f60405163a9059cbb60e01b81526001600160a01b038416600482015282602482015260205f6044835f895af13d15601f3d1160015f51141617169150508061101e5760405162461bcd60e51b815260206004820152600f60248201526e1514905394d1915497d19052531151608a1b60448201526064016106c9565b50505050565b6060814710156110495760405163cd78605960e01b81523060048201526024016106c9565b5f80856001600160a01b031684866040516110649190611c3a565b5f6040518083038185875af1925050503d805f811461109e576040519150601f19603f3d011682016040523d82523d5f602084013e6110a3565b606091505b50915091506110b38683836113f6565b9695505050505050565b6008546001600160a01b03161561113657600854604051630abd626b60e41b81526001600160a01b03848116600483015283811660248301523360448301529091169063abd626b0906064015f6040518083038186803b15801561111f575f80fd5b505afa158015611131573d5f803e3d5ffd5b505050505b5050565b6001600160a01b0383165f9081526004602090815260408083203384529091528120545f1981146111935761116f8382611c27565b6001600160a01b0386165f9081526004602090815260408083203384529091529020555b6001600160a01b0385165f90815260036020526040812080548592906111ba908490611c27565b90915550506001600160a01b038085165f81815260036020526040908190208054870190555190918716905f80516020611d05833981519152906112019087815260200190565b60405180910390a3506001949350505050565b5f7f8b73c3c69bb8fe3d512ecc4cf759cc79239f7b179b0ffacaa9a75d522b39400f5f6040516112449190611c55565b6040805191829003822060208301939093528101919091527fc89efdaa54c0f20c7adf612882df0950f5a951637e0307cdcb4c672f298b8bc660608201524660808201523060a082015260c00160405160208183030381529060405280519060200120905090565b5f6040516323b872dd60e01b81526001600160a01b03851660048201526001600160a01b038416602482015282604482015260205f6064835f8a5af13d15601f3d1160015f51141617169150508061133d5760405162461bcd60e51b81526020600482015260146024820152731514905394d1915497d19493d357d1905253115160621b60448201526064016106c9565b5050505050565b8060025f8282546113559190611cf1565b90915550506001600160a01b0382165f818152600360209081526040808320805486019055518481525f80516020611d058339815191529101610f95565b335f908152600360205260408120805483919083906113b3908490611c27565b90915550506001600160a01b0383165f81815260036020526040908190208054850190555133905f80516020611d05833981519152906106879086815260200190565b60608261140b5761140682611452565b6108ea565b815115801561142257506001600160a01b0384163b155b1561144b57604051639996b31560e01b81526001600160a01b03851660048201526024016106c9565b50806108ea565b8051156114625780518082602001fd5b604051630a12f52160e11b815260040160405180910390fd5b50565b5f6020828403121561148e575f80fd5b81356001600160e01b0319811681146108ea575f80fd5b5f5b838110156114bf5781810151838201526020016114a7565b50505f910152565b5f81518084526114de8160208601602086016114a5565b601f01601f19169290920160200192915050565b602081525f6108ea60208301846114c7565b6001600160a01b038116811461147b575f80fd5b5f8060408385031215611529575f80fd5b823561153481611504565b946020939093013593505050565b634e487b7160e01b5f52604160045260245ffd5b604051601f8201601f1916810167ffffffffffffffff8111828210171561157f5761157f611542565b604052919050565b5f82601f830112611596575f80fd5b813567ffffffffffffffff8111156115b0576115b0611542565b6115c3601f8201601f1916602001611556565b8181528460208386010111156115d7575f80fd5b816020850160208301375f918101602001919091529392505050565b5f805f8060808587031215611606575f80fd5b843561161181611504565b9350602085013561162181611504565b925060408501359150606085013567ffffffffffffffff811115611643575f80fd5b61164f87828801611587565b91505092959194509250565b5f805f805f60a0868803121561166f575f80fd5b853561167a81611504565b9450602086013561168a81611504565b93506040860135925060608601356116a181611504565b949793965091946080013592915050565b5f8083601f8401126116c2575f80fd5b50813567ffffffffffffffff8111156116d9575f80fd5b6020830191508360208260051b85010111156116f3575f80fd5b9250929050565b5f805f805f806060878903121561170f575f80fd5b863567ffffffffffffffff80821115611726575f80fd5b6117328a838b016116b2565b9098509650602089013591508082111561174a575f80fd5b6117568a838b016116b2565b9096509450604089013591508082111561176e575f80fd5b5061177b89828a016116b2565b979a9699509497509295939492505050565b5f602080830181845280855180835260408601915060408160051b87010192508387015f5b828110156117e057603f198886030184526117ce8583516114c7565b945092850192908501906001016117b2565b5092979650505050505050565b5f805f606084860312156117ff575f80fd5b833561180a81611504565b9250602084013561181a81611504565b929592945050506040919091013590565b5f6020828403121561183b575f80fd5b81356108ea81611504565b5f82601f830112611855575f80fd5b8135602067ffffffffffffffff82111561187157611871611542565b8160051b611880828201611556565b9283528481018201928281019087851115611899575f80fd5b83870192505b848310156118b85782358252918301919083019061189f565b979650505050505050565b5f805f805f60a086880312156118d7575f80fd5b85356118e281611504565b945060208601356118f281611504565b9350604086013567ffffffffffffffff8082111561190e575f80fd5b61191a89838a01611846565b9450606088013591508082111561192f575f80fd5b61193b89838a01611846565b93506080880135915080821115611950575f80fd5b5061195d88828901611587565b9150509295509295909350565b5f805f805f805f60e0888a031215611980575f80fd5b873561198b81611504565b9650602088013561199b81611504565b95506040880135945060608801359350608088013560ff811681146119be575f80fd5b9699959850939692959460a0840135945060c09093013592915050565b5f80604083850312156119ec575f80fd5b82356119f781611504565b91506020830135611a0781611504565b809150509250929050565b5f805f805f60a08688031215611a26575f80fd5b8535611a3181611504565b94506020860135611a4181611504565b93506040860135925060608601359150608086013567ffffffffffffffff811115611a6a575f80fd5b61195d88828901611587565b5f805f8060608587031215611a89575f80fd5b8435611a9481611504565b9350602085013567ffffffffffffffff80821115611ab0575f80fd5b818701915087601f830112611ac3575f80fd5b813581811115611ad1575f80fd5b886020828501011115611ae2575f80fd5b95986020929092019750949560400135945092505050565b600181811c90821680611b0e57607f821691505b602082108103611b2c57634e487b7160e01b5f52602260045260245ffd5b50919050565b6020808252600c908201526b15539055551213d49256915160a21b604082015260600190565b634e487b7160e01b5f52603260045260245ffd5b5f808335601e19843603018112611b81575f80fd5b83018035915067ffffffffffffffff821115611b9b575f80fd5b6020019150368190038213156116f3575f80fd5b634e487b7160e01b5f52601160045260245ffd5b5f60018201611bd457611bd4611baf565b5060010190565b6001600160a01b0393841681529190921660208201526001600160e01b0319909116604082015260600190565b5f60208284031215611c18575f80fd5b815180151581146108ea575f80fd5b8181038181111561059c5761059c611baf565b5f8251611c4b8184602087016114a5565b9190910192915050565b5f80835481600182811c915080831680611c7057607f831692505b60208084108203611c8f57634e487b7160e01b86526022600452602486fd5b818015611ca35760018114611cb857611ce3565b60ff1986168952841515850289019650611ce3565b5f8a8152602090205f5b86811015611cdb5781548b820152908501908301611cc2565b505084890196505b509498975050505050505050565b8082018082111561059c5761059c611baf56feddf252ad1be2c89b69c2b068fc378daa952ba7f163c4a11628f55a4df523b3efa264697066735822122013c8df46e0bdfb485d42eb28904f0f147e74cd282ee36bf6c8bd92df979d993364736f6c6343000815003300000000000000000000000077b4922fcc0fa745bcd7d76025e682cfffc9a149000000000000000000000000000000000000000000000000000000000000008000000000000000000000000000000000000000000000000000000000000000c00000000000000000000000000000000000000000000000000000000000000012000000000000000000000000000000000000000000000000000000000000000a55534465205661756c740000000000000000000000000000000000000000000000000000000000000000000000000000000000000000000000000000000000056355534465000000000000000000000000000000000000000000000000000000",
        "nonce": "0x137",
        "chainId": "0x1"
      },
      "additionalContracts": [],
      "isFixedGasLimit": false
    },
    {
      "hash": "0x348831be09d70df18563935071c07bd1418501ba0c6b8fa5a637f2e239216ee6",
      "transactionType": "CREATE",
      "contractName": "AccountantWithRateProviders",
      "contractAddress": "0x04d4e50cdc047b7e36460a813075d075af59683d",
      "function": null,
      "arguments": [
        "0x77B4922Fcc0Fa745Bcd7d76025E682CFfFc9a149",
        "0x324dcd943a79Ff3497845479980F6bC936B8116E",
        "0x77B4922Fcc0Fa745Bcd7d76025E682CFfFc9a149",
        "1000000000000000000",
        "0x4c9EDD5852cd905f086C759E8383e09bff1E68B3",
        "10003",
        "9997",
        "86400",
        "0",
        "0"
      ],
      "transaction": {
        "from": "0x77b4922fcc0fa745bcd7d76025e682cfffc9a149",
        "gas": "0x251909",
        "value": "0x0",
        "input": "0x61010060405234801562000011575f80fd5b50604051620025c4380380620025c483398101604081905262000034916200043f565b5f80546001600160a01b038c166001600160a01b031991821681178355600180549092169091556040518c92919033907f8be0079c531659141344cd1fd0a4f28419497f9722a3daafe3b4186f6b6457e0908490a36040516001600160a01b0382169033907fa3396fd7f6e0a21b50e5089d2da70d5ac0a3bbbd1f617a93f134b76389980198905f90a350506001600160a01b03861660808190526040805163313ce56760e01b8152905163313ce567916004808201926020929091908290030181865afa15801562000109573d5f803e3d5ffd5b505050506040513d601f19601f820116820180604052508101906200012f91906200051d565b60ff1660a0526001600160a01b03891660c08190526040805163313ce56760e01b8152905163313ce567916004808201926020929091908290030181865afa1580156200017e573d5f803e3d5ffd5b505050506040513d601f19601f82011682018060405250810190620001a491906200051d565b620001b190600a62000655565b60e08181525050604051806101800160405280896001600160a01b03168152602001886001600160601b031681526020015f6001600160801b0316815260200160c0516001600160a01b03166318160ddd6040518163ffffffff1660e01b8152600401602060405180830381865afa15801562000230573d5f803e3d5ffd5b505050506040513d601f19601f8201168201806040525081019062000256919062000665565b6001600160801b0390811682526001600160601b03998a1660208084019190915261ffff9889166040808501919091529789166060808501919091526001600160401b034281166080808701919091525f60a08088019190915262ffffff9a8b1660c080890191909152998d1660e080890191909152988d16610100978801528751948801518f16600160a01b026001600160a01b039095169490941760025599860151918601518416600160801b9081029290941691909117600355978401516004805492860151978601519686015194860151610120870151610140880151610160909801518d16600160f01b026001600160f01b03988e16600160e01b02989098166001600160e01b0391909b16600160c81b0262ffffff60c81b19921515600160c01b029290921663ffffffff60c01b1997909c16909502600160801b600160c01b0319988d16600160701b0298909816600160701b600160c01b031999909c166c01000000000000000000000000026001600160701b031990941692909d169190911791909117959095169790971792909217919091169390931795909517929092169190911717909155506200067d92505050565b80516001600160a01b038116811462000428575f80fd5b919050565b805161ffff8116811462000428575f80fd5b5f805f805f805f805f806101408b8d0312156200045a575f80fd5b620004658b62000411565b99506200047560208c0162000411565b98506200048560408c0162000411565b60608c01519098506001600160601b0381168114620004a2575f80fd5b9650620004b260808c0162000411565b9550620004c260a08c016200042d565b9450620004d260c08c016200042d565b935060e08b015162ffffff81168114620004ea575f80fd5b9250620004fb6101008c016200042d565b91506200050c6101208c016200042d565b90509295989b9194979a5092959850565b5f602082840312156200052e575f80fd5b815160ff811681146200053f575f80fd5b9392505050565b634e487b7160e01b5f52601160045260245ffd5b600181815b808511156200059a57815f19048211156200057e576200057e62000546565b808516156200058c57918102915b93841c93908002906200055f565b509250929050565b5f82620005b2575060016200064f565b81620005c057505f6200064f565b8160018114620005d95760028114620005e45762000604565b60019150506200064f565b60ff841115620005f857620005f862000546565b50506001821b6200064f565b5060208310610133831016604e8410600b841016171562000629575081810a6200064f565b6200063583836200055a565b805f19048211156200064b576200064b62000546565b0290505b92915050565b5f6200053f60ff841683620005a2565b5f6020828403121562000676575f80fd5b5051919050565b60805160a05160c05160e051611ed4620006f05f395f8181611a2401528181611a540152611ace01525f818161051801528181610545015281816113aa015261177d01525f8181610237015281816106d5015261090401525f81816103cb0152818161061e01526108120152611ed45ff3fe608060405234801561000f575f80fd5b5060043610610187575f3560e01c8063634da58f116100d95780638456cb5911610093578063bf7e214f1161006e578063bf7e214f146104e5578063e059ac07146104f8578063f2fde38b14610500578063fbfa77cf14610513575f80fd5b80638456cb59146104b85780638da5cb5b146104c0578063afb06952146104d2575f80fd5b8063634da58f14610448578063679aefce1461045b5780636a054dc91461046c578063709ac1c31461047f5780637a9e5e4b14610492578063820973da146104a5575f80fd5b80633458113d116101445780634d8be07e1161011f5780634d8be07e146103b35780635001f3b5146103c657806356200819146104055780636183fb9514610418575f80fd5b80633458113d1461026b5780633f4ba83a1461027e578063433255de14610286575f80fd5b806312e2d8f31461018b57806315a0ea6a146101e15780631dcbb110146101f6578063207ec0e714610217578063282a87001461022a578063313ce56714610232575b5f80fd5b6101bd610199366004611b33565b60056020525f908152604090205460ff81169061010090046001600160a01b031682565b6040805192151583526001600160a01b039091166020830152015b60405180910390f35b6101f46101ef366004611b33565b61053a565b005b610209610204366004611b33565b61080f565b6040519081526020016101d8565b6101f4610225366004611b4e565b6109c8565b610209610a8f565b6102597f000000000000000000000000000000000000000000000000000000000000000081565b60405160ff90911681526020016101d8565b6101f4610279366004611b6f565b610acc565b6101f4610c06565b600254600354600454610321926001600160a01b03811692600160a01b9091046001600160601b03908116926001600160801b0380841693600160801b9081900490911692821691600160601b810461ffff90811692600160701b830482169290810467ffffffffffffffff1691600160c01b820460ff1691600160c81b810462ffffff1691600160e01b8204811691600160f01b9004168c565b604080516001600160a01b03909d168d526001600160601b039b8c1660208e01526001600160801b039a8b16908d01529890971660608b015297909416608089015261ffff92831660a089015290821660c088015267ffffffffffffffff1660e087015290151561010086015262ffffff909316610120850152821661014084015216610160820152610180016101d8565b6101f46103c1366004611ba2565b610c6e565b6103ed7f000000000000000000000000000000000000000000000000000000000000000081565b6040516001600160a01b0390911681526020016101d8565b6101f4610413366004611b33565b610d44565b61042b610426366004611b6f565b610dcf565b6040805193151584526020840192909252908201526060016101d8565b6101f4610456366004611b4e565b610ecd565b6004546001600160601b0316610209565b6101f461047a366004611bea565b610f83565b6101f461048d366004611b4e565b61103d565b6101f46104a0366004611b33565b6110f4565b6102096104b3366004611b33565b6111d8565b6101f4611214565b5f546103ed906001600160a01b031681565b6101f46104e0366004611b4e565b611282565b6001546103ed906001600160a01b031681565b6101f4611338565b6101f461050e366004611b33565b6114dd565b6103ed7f000000000000000000000000000000000000000000000000000000000000000081565b336001600160a01b037f0000000000000000000000000000000000000000000000000000000000000000161461058357604051637e3db46f60e01b815260040160405180910390fd5b600454600290600160c01b900460ff16156105b157604051631d98997b60e11b815260040160405180910390fd5b60018101546001600160801b03165f036105de5760405163115b9d8b60e21b815260040160405180910390fd5b6001600160a01b038083165f81815260056020908152604080832081518083019092525460ff8116151582526101009004851691810191909152909290917f0000000000000000000000000000000000000000000000000000000000000000909116900361065b5760018301546001600160801b03169150610790565b5f846001600160a01b031663313ce5676040518163ffffffff1660e01b8152600401602060405180830381865afa158015610698573d5f803e3d5ffd5b505050506040513d601f19601f820116820180604052508101906106bc9190611c0c565b60018501549091505f906106fa906001600160801b03167f000000000000000000000000000000000000000000000000000000000000000084611558565b83519091501561070c5780935061078d565b5f83602001516001600160a01b031663679aefce6040518163ffffffff1660e01b8152600401602060405180830381865afa15801561074d573d5f803e3d5ffd5b505050506040513d601f19601f820116820180604052508101906107719190611c2c565b905061078961078184600a611d37565b8390836115c7565b9450505b50505b6001830180546fffffffffffffffffffffffffffffffff1916905582546107c6906001600160a01b0386811691339116856115e2565b836001600160a01b03167f9493e5bbe4e8e0ac67284469a2d677403d0378a85a59e341d3abc433d0d9a2098360405161080191815260200190565b60405180910390a250505050565b5f7f00000000000000000000000000000000000000000000000000000000000000006001600160a01b0316826001600160a01b03160361085a5750506004546001600160601b031690565b6001600160a01b038083165f81815260056020908152604080832081518083018352905460ff811615158252610100900490951685830152805163313ce56760e01b8152905192939263313ce567926004808401939192918290030181865afa1580156108c9573d5f803e3d5ffd5b505050506040513d601f19601f820116820180604052508101906108ed9190611c0c565b6004549091505f90610929906001600160601b03167f000000000000000000000000000000000000000000000000000000000000000084611558565b83519091501561093b578093506109c0565b5f83602001516001600160a01b031663679aefce6040518163ffffffff1660e01b8152600401602060405180830381865afa15801561097c573d5f803e3d5ffd5b505050506040513d601f19601f820116820180604052508101906109a09190611c2c565b90505f6109ae84600a611d37565b90506109bb8184846115c7565b955050505b505050919050565b6109dd335f356001600160e01b03191661167a565b610a025760405162461bcd60e51b81526004016109f990611d45565b60405180910390fd5b6127108161ffff161115610a2957604051637375d3bf60e01b815260040160405180910390fd5b6004805461ffff838116600160701b81810261ffff60701b1985161790945560408051949093049091168084526020840191909152917f76fe3c3557dd03afa5caf76f66f4019444ef3999e784ba08f47a33428fcc64d591015b60405180910390a15050565b6004545f90600160c01b900460ff1615610abc57604051631d98997b60e11b815260040160405180910390fd5b506004546001600160601b031690565b610ae1335f356001600160e01b03191661167a565b610afd5760405162461bcd60e51b81526004016109f990611d45565b5f805f805f610b0b86611720565b945094509450945094508415610b355760028401805460ff60c01b1916600160c01b179055610b42565b610b4284878484876118aa565b610b6b868560020180546bffffffffffffffffffffffff19166001600160601b03831617905590565b6001850180546001600160801b03908116600160801b91851682021790915560028601805467ffffffffffffffff60801b191667ffffffffffffffff8716928302179055604080516001600160601b03808716825284166020820152908101919091529096507fa95bc6aba40bbc4d95fc35f118c4cd8b53fc5d5b89ed264002af03503a7a94399060600160405180910390a1505050505050565b610c1b335f356001600160e01b03191661167a565b610c375760405162461bcd60e51b81526004016109f990611d45565b6004805460ff60c01b191690556040517fa45f47fdea8a1efdd9029a5691c7f759c32b7c698632b563573e155625d16933905f90a1565b610c83335f356001600160e01b03191661167a565b610c9f5760405162461bcd60e51b81526004016109f990611d45565b6040805180820182528315158082526001600160a01b0384811660208085018281528984165f818152600584528890209651875492516001600160a81b0319909316901515610100600160a81b03191617610100929095169190910293909317909455845191825292810191909152918201527f59f9adfe8cf4c9d4b77fb03aa2ae5f373632c97cb8caf6b61f0643d3d170a8fe9060600160405180910390a1505050565b610d59335f356001600160e01b03191661167a565b610d755760405162461bcd60e51b81526004016109f990611d45565b600280546001600160a01b038381166001600160a01b031983168117909355604080519190921680825260208201939093527fba2be5e898fed1646bc0814dee1cc9a2aee98f51fced7d5fc4699c47d99077539101610a83565b5f805f805f805f80610de089611720565b6001840154949c506001600160801b0390941699508b985091965094509250905084610ec157600184015460028501545f918291610e4d91600160801b908190046001600160801b03169190810467ffffffffffffffff1690600160e01b900461ffff168e88888b6119c3565b875491935091505f906001600160601b03600160a01b9091048116908d161115610ea55786546002880154610ea1918e918591600160a01b90046001600160601b031690600160f01b900461ffff16611aaf565b5090505b610eaf8184611d6b565b9950610ebb8a8a611d6b565b98505050505b50505050509193909250565b610ee2335f356001600160e01b03191661167a565b610efe5760405162461bcd60e51b81526004016109f990611d45565b6127108161ffff161015610f255760405163a4ec27a960e01b815260040160405180910390fd5b6004805461ffff838116600160601b81810261ffff60601b1985161790945560408051949093049091168084526020840191909152917f67d3a3f6bebb5b894324217d5224ff719d5d95dfc67f1bb2645dddbfcd43cadb9101610a83565b610f98335f356001600160e01b03191661167a565b610fb45760405162461bcd60e51b81526004016109f990611d45565b621275008162ffffff161115610fdd57604051635badbfbb60e01b815260040160405180910390fd5b6004805462ffffff838116600160c81b81810262ffffff60c81b1985161790945560408051949093049091168084526020840191909152917f5f7db254db512f40348d8a7ca15d574c051dfe59c19b47e273d926f2f43186069101610a83565b611052335f356001600160e01b03191661167a565b61106e5760405162461bcd60e51b81526004016109f990611d45565b6113888161ffff1611156110955760405163fdaeddbb60e01b815260040160405180910390fd5b6004805461ffff838116600160f01b8181026001600160f01b0385161790945560408051949093049091168084526020840191909152917fba8506b6cb85330fea21cbca8490aafb6a69b166f06201ef755eb511b2709fc19101610a83565b5f546001600160a01b0316331480611185575060015460405163b700961360e01b81526001600160a01b039091169063b70096139061114690339030906001600160e01b03195f351690600401611d7e565b602060405180830381865afa158015611161573d5f803e3d5ffd5b505050506040513d601f19601f820116820180604052508101906111859190611dab565b61118d575f80fd5b600180546001600160a01b0319166001600160a01b03831690811790915560405133907fa3396fd7f6e0a21b50e5089d2da70d5ac0a3bbbd1f617a93f134b76389980198905f90a350565b6004545f90600160c01b900460ff161561120557604051631d98997b60e11b815260040160405180910390fd5b61120e8261080f565b92915050565b611229335f356001600160e01b03191661167a565b6112455760405162461bcd60e51b81526004016109f990611d45565b6004805460ff60c01b1916600160c01b1790556040517f9e87fac88ff661f02d44f95383c817fece4bce600a3dab7a54406878b965e752905f90a1565b611297335f356001600160e01b03191661167a565b6112b35760405162461bcd60e51b81526004016109f990611d45565b6107d08161ffff1611156112da5760405163173aacc160e31b815260040160405180910390fd5b6004805461ffff838116600160e01b81810261ffff60e01b1985161790945560408051949093049091168084526020840191909152917f84e4fe32bf74c4011a7e1fde79c63acdffaf92a0112cde153e7b0abee665bc6b9101610a83565b61134d335f356001600160e01b03191661167a565b6113695760405162461bcd60e51b81526004016109f990611d45565b600280546004546001600160601b03600160a01b9092048216911611156113a357604051638058acff60e01b815260040160405180910390fd5b5f4290505f7f00000000000000000000000000000000000000000000000000000000000000006001600160a01b03166318160ddd6040518163ffffffff1660e01b8152600401602060405180830381865afa158015611404573d5f803e3d5ffd5b505050506040513d601f19601f820116820180604052508101906114289190611c2c565b60028401549091506114479084906001600160601b03168084866118aa565b6001830180546001600160801b03908116600160801b91841682021790915560045484546001600160a01b03166001600160601b03909116600160a01b0217845560028401805467ffffffffffffffff60801b191667ffffffffffffffff85169092029190911790556040517f98637d475d52bc596e25457cb3385a05269c42e57d4d9f7561dacbbe8583eb89905f90a1505050565b6114f2335f356001600160e01b03191661167a565b61150e5760405162461bcd60e51b81526004016109f990611d45565b5f80546001600160a01b0319166001600160a01b0383169081178255604051909133917f8be0079c531659141344cd1fd0a4f28419497f9722a3daafe3b4186f6b6457e09190a350565b5f8160ff168360ff160361156d5750826115c0565b8160ff168360ff1610156115a1576115858383611dc6565b61159090600a611d37565b61159a9085611ddf565b90506115c0565b6115ab8284611dc6565b6115b690600a611d37565b61159a9085611df6565b9392505050565b5f825f1904841183021582026115db575f80fd5b5091020490565b5f6040516323b872dd60e01b81526001600160a01b03851660048201526001600160a01b038416602482015282604482015260205f6064835f8a5af13d15601f3d1160015f5114161716915050806116735760405162461bcd60e51b81526020600482015260146024820152731514905394d1915497d19493d357d1905253115160621b60448201526064016109f9565b5050505050565b6001545f906001600160a01b03168015801590611701575060405163b700961360e01b81526001600160a01b0382169063b7009613906116c290879030908890600401611d7e565b602060405180830381865afa1580156116dd573d5f803e3d5ffd5b505050506040513d601f19601f820116820180604052508101906117019190611dab565b8061171857505f546001600160a01b038581169116145b949350505050565b6004545f90600290829081908190600160c01b900460ff161561175657604051631d98997b60e11b815260040160405180910390fd5b429250836002015f9054906101000a90046001600160601b03166001600160601b031691507f00000000000000000000000000000000000000000000000000000000000000006001600160a01b03166318160ddd6040518163ffffffff1660e01b8152600401602060405180830381865afa1580156117d7573d5f803e3d5ffd5b505050506040513d601f19601f820116820180604052508101906117fb9190611c2c565b600285015490915061182a90600160c81b810462ffffff1690600160801b900467ffffffffffffffff16611e15565b67ffffffffffffffff168367ffffffffffffffff16108061187057506002840154611864908390600160601b900461ffff166127106115c7565b866001600160601b0316115b806118a057506002840154611894908390600160701b900461ffff166127106115c7565b866001600160601b0316105b9693955091935091565b600185015460028601545f9182916118f191600160801b908190046001600160801b03169190810467ffffffffffffffff1690600160e01b900461ffff16898989896119c3565b885491935091506001600160601b03600160a01b90910481169087161115611977575f61194887838a5f0160149054906101000a90046001600160601b03168b600201601e9054906101000a900461ffff16611aaf565b5090506119558184611d6b565b88546001600160a01b0316600160a01b6001600160601b038a16021789559250505b6001870180548391905f906119969084906001600160801b0316611e3d565b92506101000a8154816001600160801b0302191690836001600160801b0316021790555050505050505050565b5f826001600160801b0389168111156119e257506001600160801b0388165b61ffff871615611aa3575f6119f78985611e5d565b67ffffffffffffffff1690505f86886001600160601b031611611a4d57611a48836001600160601b038a167f00000000000000000000000000000000000000000000000000000000000000006115c7565b611a78565b611a7883887f00000000000000000000000000000000000000000000000000000000000000006115c7565b90505f611a8c8261ffff8c166127106115c7565b9050611a9d81846301e133806115c7565b94505050505b97509795505050505050565b5f8080611abc8588611e7e565b6001600160601b03169050611af281877f00000000000000000000000000000000000000000000000000000000000000006115c7565b915061ffff841615611b1257611b0f8261ffff86166127106115c7565b92505b5094509492505050565b6001600160a01b0381168114611b30575f80fd5b50565b5f60208284031215611b43575f80fd5b81356115c081611b1c565b5f60208284031215611b5e575f80fd5b813561ffff811681146115c0575f80fd5b5f60208284031215611b7f575f80fd5b81356001600160601b03811681146115c0575f80fd5b8015158114611b30575f80fd5b5f805f60608486031215611bb4575f80fd5b8335611bbf81611b1c565b92506020840135611bcf81611b95565b91506040840135611bdf81611b1c565b809150509250925092565b5f60208284031215611bfa575f80fd5b813562ffffff811681146115c0575f80fd5b5f60208284031215611c1c575f80fd5b815160ff811681146115c0575f80fd5b5f60208284031215611c3c575f80fd5b5051919050565b634e487b7160e01b5f52601160045260245ffd5b600181815b80851115611c9157815f1904821115611c7757611c77611c43565b80851615611c8457918102915b93841c9390800290611c5c565b509250929050565b5f82611ca75750600161120e565b81611cb357505f61120e565b8160018114611cc95760028114611cd357611cef565b600191505061120e565b60ff841115611ce457611ce4611c43565b50506001821b61120e565b5060208310610133831016604e8410600b8410161715611d12575081810a61120e565b611d1c8383611c57565b805f1904821115611d2f57611d2f611c43565b029392505050565b5f6115c060ff841683611c99565b6020808252600c908201526b15539055551213d49256915160a21b604082015260600190565b8082018082111561120e5761120e611c43565b6001600160a01b0393841681529190921660208201526001600160e01b0319909116604082015260600190565b5f60208284031215611dbb575f80fd5b81516115c081611b95565b60ff828116828216039081111561120e5761120e611c43565b808202811582820484141761120e5761120e611c43565b5f82611e1057634e487b7160e01b5f52601260045260245ffd5b500490565b67ffffffffffffffff818116838216019080821115611e3657611e36611c43565b5092915050565b6001600160801b03818116838216019080821115611e3657611e36611c43565b67ffffffffffffffff828116828216039080821115611e3657611e36611c43565b6001600160601b03828116828216039080821115611e3657611e36611c4356fea2646970667358221220b2295a353c7928ee71751327d5833d29e0bc49aa01e12a0e80103e55f544d53864736f6c6343000815003300000000000000000000000077b4922fcc0fa745bcd7d76025e682cfffc9a149000000000000000000000000324dcd943a79ff3497845479980f6bc936b8116e00000000000000000000000077b4922fcc0fa745bcd7d76025e682cfffc9a1490000000000000000000000000000000000000000000000000de0b6b3a76400000000000000000000000000004c9edd5852cd905f086c759e8383e09bff1e68b30000000000000000000000000000000000000000000000000000000000002713000000000000000000000000000000000000000000000000000000000000270d000000000000000000000000000000000000000000000000000000000001518000000000000000000000000000000000000000000000000000000000000000000000000000000000000000000000000000000000000000000000000000000000",
        "nonce": "0x138",
        "chainId": "0x1"
      },
      "additionalContracts": [],
      "isFixedGasLimit": false
    },
    {
      "hash": "0xf2ccf6b08ab8da5dfbdbafa9a6c01d625e68ae4add50ba3d757756d694815de0",
      "transactionType": "CREATE",
      "contractName": "TellerWithMultiAssetSupport",
      "contractAddress": "0x9a1f42b252cc0a7fedd06010c3ea35ce24a4e779",
      "function": null,
      "arguments": [
        "0x77B4922Fcc0Fa745Bcd7d76025E682CFfFc9a149",
        "0x324dcd943a79Ff3497845479980F6bC936B8116E",
        "0x04D4E50cDC047b7E36460a813075D075AF59683d",
        "0xC02aaA39b223FE8D0A0e5C4F27eAD9083C756Cc2"
      ],
      "transaction": {
        "from": "0x77b4922fcc0fa745bcd7d76025e682cfffc9a149",
        "gas": "0x29382f",
        "value": "0x0",
        "input": "0x610100604052600160025534801562000016575f80fd5b506040516200271c3803806200271c83398101604081905262000039916200017b565b5f80546001600160a01b0386166001600160a01b031991821681178355600180549092169091556040518692919033907f8be0079c531659141344cd1fd0a4f28419497f9722a3daafe3b4186f6b6457e0908490a36040516001600160a01b0382169033907fa3396fd7f6e0a21b50e5089d2da70d5ac0a3bbbd1f617a93f134b76389980198905f90a350506001600160a01b03831660808190526040805163313ce56760e01b8152905163313ce567916004808201926020929091908290030181865afa1580156200010e573d5f803e3d5ffd5b505050506040513d601f19601f82011682018060405250810190620001349190620001d5565b6200014190600a6200030d565b60c0526001600160a01b0391821660a0521660e052506200031d9050565b80516001600160a01b038116811462000176575f80fd5b919050565b5f805f80608085870312156200018f575f80fd5b6200019a856200015f565b9350620001aa602086016200015f565b9250620001ba604086016200015f565b9150620001ca606086016200015f565b905092959194509250565b5f60208284031215620001e6575f80fd5b815160ff81168114620001f7575f80fd5b9392505050565b634e487b7160e01b5f52601160045260245ffd5b600181815b808511156200025257815f1904821115620002365762000236620001fe565b808516156200024457918102915b93841c939080029062000217565b509250929050565b5f826200026a5750600162000307565b816200027857505f62000307565b81600181146200029157600281146200029c57620002bc565b600191505062000307565b60ff841115620002b057620002b0620001fe565b50506001821b62000307565b5060208310610133831016604e8410600b8410161715620002e1575081810a62000307565b620002ed838362000212565b805f1904821115620003035762000303620001fe565b0290505b92915050565b5f620001f760ff8416836200025a565b60805160a05160c05160e051612370620003ac5f395f8181610249015281816107e301528181610860015281816108ae01526111d101525f8181610f3d0152611b5f01525f81816104a001528181610ece0152611b8101525f818161070c0152818161088401528181610f9b0152818161120b01528181611c6601528181611e260152611ec601526123705ff3fe6080604052600436106101f1575f3560e01c80635f45bac811610108578063a924bf611161009d578063c29d2f101161006d578063c29d2f1014610658578063de35f5cb14610677578063f07f287d146106ae578063f2fde38b146106dc578063fbfa77cf146106fb575f80fd5b8063a924bf61146105db578063abd626b0146105fa578063b187bd2614610619578063bf7e214f14610639575f80fd5b80638dfd8ba1116100d85780638dfd8ba1146105325780639a94d3d0146105515780639d5744201461057c5780639fdb11b61461059b575f80fd5b80635f45bac8146104c25780637a9e5e4b146104e15780638456cb59146105005780638da5cb5b14610514575f80fd5b806326a64b40116101895780633e64ce99116101595780633e64ce99146103d85780633f4ba83a146103f757806341fee44a1461040b57806346b563f4146104705780634fb3ccc51461048f575f80fd5b806326a64b401461034d5780632c524c421461037b5780633b5754071461039a5780633d935d9e146103b9575f80fd5b80631899ea81116101c45780631899ea81146102c557806318aed921146102f05780631b62636c1461030f5780631ba9a4581461032e575f80fd5b806304ded84a146101f55780630b48a8b8146102385780630efe6a8b1461028357806312056e2d146102a4575b5f80fd5b348015610200575f80fd5b5061022361020f366004611f93565b60086020525f908152604090205460ff1681565b60405190151581526020015b60405180910390f35b348015610243575f80fd5b5061026b7f000000000000000000000000000000000000000000000000000000000000000081565b6040516001600160a01b03909116815260200161022f565b610296610291366004611fb5565b61072e565b60405190815260200161022f565b3480156102af575f80fd5b506102c36102be366004611fe7565b610942565b005b3480156102d0575f80fd5b506102966102df366004611f93565b60066020525f908152604090205481565b3480156102fb575f80fd5b506102c361030a366004611f93565b6109cf565b34801561031a575f80fd5b506102c3610329366004611f93565b610ad7565b348015610339575f80fd5b506102c3610348366004611f93565b610b53565b348015610358575f80fd5b50610223610367366004611f93565b60076020525f908152604090205460ff1681565b348015610386575f80fd5b506102c3610395366004611f93565b610bcc565b3480156103a5575f80fd5b506102c36103b4366004611f93565b610c48565b3480156103c4575f80fd5b506102966103d336600461200e565b610cc4565b3480156103e3575f80fd5b506102966103f2366004612076565b610dc4565b348015610402575f80fd5b506102c3611051565b348015610416575f80fd5b5061044f610425366004611f93565b60036020525f908152604090205460ff8082169161010081049091169062010000900461ffff1683565b604080519315158452911515602084015261ffff169082015260600161022f565b34801561047b575f80fd5b506102c361048a3660046120bd565b6110b9565b34801561049a575f80fd5b5061026b7f000000000000000000000000000000000000000000000000000000000000000081565b3480156104cd575f80fd5b506102c36104dc366004611f93565b6112c3565b3480156104ec575f80fd5b506102c36104fb366004611f93565b61133c565b34801561050b575f80fd5b506102c3611420565b34801561051f575f80fd5b505f5461026b906001600160a01b031681565b34801561053d575f80fd5b506102c361054c36600461212a565b61148e565b34801561055c575f80fd5b5061029661056b36600461217e565b60056020525f908152604090205481565b348015610587575f80fd5b50610296610596366004612076565b6115a7565b3480156105a6575f80fd5b506004546105c290600160601b900467ffffffffffffffff1681565b60405167ffffffffffffffff909116815260200161022f565b3480156105e6575f80fd5b506102c36105f5366004611f93565b61166c565b348015610605575f80fd5b506102c3610614366004612195565b6116e5565b348015610624575f80fd5b5060045461022390600160a01b900460ff1681565b348015610644575f80fd5b5060015461026b906001600160a01b031681565b348015610663575f80fd5b506102c3610672366004611f93565b6117ba565b348015610682575f80fd5b50600454610696906001600160601b031681565b6040516001600160601b03909116815260200161022f565b3480156106b9575f80fd5b506102236106c8366004611f93565b60096020525f908152604090205460ff1681565b3480156106e7575f80fd5b506102c36106f6366004611f93565b6118bb565b348015610706575f80fd5b5061026b7f000000000000000000000000000000000000000000000000000000000000000081565b5f610744335f356001600160e01b031916611936565b6107695760405162461bcd60e51b8152600401610760906121dd565b60405180910390fd5b60025460011461078b5760405162461bcd60e51b815260040161076090612203565b600280555f610799856119de565b90505f73eeeeeeeeeeeeeeeeeeeeeeeeeeeeeeeeeeeeeeed196001600160a01b038716016108d557345f036107e15760405163259be69560e11b815260040160405180910390fd5b7f00000000000000000000000000000000000000000000000000000000000000006001600160a01b031663d0e30db0346040518263ffffffff1660e01b81526004015f604051808303818588803b15801561083a575f80fd5b505af115801561084c573d5f803e3d5ffd5b503498506108ab9350506001600160a01b037f00000000000000000000000000000000000000000000000000000000000000001691507f0000000000000000000000000000000000000000000000000000000000000000905087611a99565b507f00000000000000000000000000000000000000000000000000000000000000009450306108f7565b34156108f457604051631cf02cf960e21b815260040160405180910390fd5b50335b610905868686843387611b1b565b9250610934338787866004600c9054906101000a900467ffffffffffffffff1667ffffffffffffffff16611cda565b505060016002559392505050565b610957335f356001600160e01b031916611936565b6109735760405162461bcd60e51b8152600401610760906121dd565b6203f4808167ffffffffffffffff1611156109a157604051631fac010160e21b815260040160405180910390fd5b6004805467ffffffffffffffff909216600160601b0267ffffffffffffffff60601b19909216919091179055565b6109e4335f356001600160e01b031916611936565b610a005760405162461bcd60e51b8152600401610760906121dd565b6001600160a01b0381165f8181526007602090815260408083208054600160ff1991821681179092556008845282852080548216831790556009909352818420805490931617909155517fd658022b1a3aaf6ad3b3c615253712807f21a8f7bc3e4996e10618175d4afb2b9190a26040516001600160a01b038216907f79fc685a7dbabb75a67df5e69a90602cef1f19bc465b060eab1ac56685e04a13905f90a26040516001600160a01b038216907f3afb02134e37f7205acf470adc2fc4ebb70614b1599a602d069790915380e2aa905f90a250565b610aec335f356001600160e01b031916611936565b610b085760405162461bcd60e51b8152600401610760906121dd565b6001600160a01b0381165f81815260096020526040808220805460ff19166001179055517f3afb02134e37f7205acf470adc2fc4ebb70614b1599a602d069790915380e2aa9190a250565b610b68335f356001600160e01b031916611936565b610b845760405162461bcd60e51b8152600401610760906121dd565b6001600160a01b0381165f81815260096020526040808220805460ff19169055517f77cb944c14da76928795279d1519ce9150085a06e0a53c61d5a86fc4e0fd57c69190a250565b610be1335f356001600160e01b031916611936565b610bfd5760405162461bcd60e51b8152600401610760906121dd565b6001600160a01b0381165f81815260076020526040808220805460ff19166001179055517fd658022b1a3aaf6ad3b3c615253712807f21a8f7bc3e4996e10618175d4afb2b9190a250565b610c5d335f356001600160e01b031916611936565b610c795760405162461bcd60e51b8152600401610760906121dd565b6001600160a01b0381165f81815260086020526040808220805460ff19166001179055517f79fc685a7dbabb75a67df5e69a90602cef1f19bc465b060eab1ac56685e04a139190a250565b5f610cda335f356001600160e01b031916611936565b610cf65760405162461bcd60e51b8152600401610760906121dd565b600254600114610d185760405162461bcd60e51b815260040161076090612203565b600280558773eeeeeeeeeeeeeeeeeeeeeeeeeeeeeeeeeeeeeeed196001600160a01b03821601610d5b576040516316df5df960e31b815260040160405180910390fd5b5f610d658a6119de565b9050610d758a8a89898989611e09565b610d838a8a8a333386611b1b565b9250610db2338b8b866004600c9054906101000a900467ffffffffffffffff1667ffffffffffffffff16611cda565b50506001600255979650505050505050565b5f610dda335f356001600160e01b031916611936565b610df65760405162461bcd60e51b8152600401610760906121dd565b600454600160a01b900460ff1615610e215760405163e0f9e71d60e01b815260040160405180910390fd5b6001600160a01b0385165f908152600360209081526040918290208251606081018452905460ff80821615158352610100820416151592820183905262010000900461ffff1692810192909252610e8b5760405163645fd19f60e11b815260040160405180910390fd5b845f03610eab57604051630ea3153160e21b815260040160405180910390fd5b604051634104b9ed60e11b81526001600160a01b038781166004830152610f61917f00000000000000000000000000000000000000000000000000000000000000009091169063820973da90602401602060405180830381865afa158015610f15573d5f803e3d5ffd5b505050506040513d601f19601f82011682018060405250810190610f399190612227565b86907f0000000000000000000000000000000000000000000000000000000000000000611f61565b915083821015610f84576040516302620f6160e61b815260040160405180910390fd5b6040516318457e6160e01b81526001600160a01b037f000000000000000000000000000000000000000000000000000000000000000016906318457e6190610fd89086908a90879033908c9060040161223e565b5f604051808303815f87803b158015610fef575f80fd5b505af1158015611001573d5f803e3d5ffd5b50505050856001600160a01b03167fdcc60b41ff1c604459e6aa4a7299817416b19fc586a392f111646e26597c4af98660405161104091815260200190565b60405180910390a250949350505050565b611066335f356001600160e01b031916611936565b6110825760405162461bcd60e51b8152600401610760906121dd565b6004805460ff60a01b191690556040517fa45f47fdea8a1efdd9029a5691c7f759c32b7c698632b563573e155625d16933905f90a1565b6110ce335f356001600160e01b031916611936565b6110ea5760405162461bcd60e51b8152600401610760906121dd565b806110f58342612285565b1061111357604051634c1eef1760e11b815260040160405180910390fd5b604080516001600160a01b038089166020830152871691810191909152606081018590526080810184905260a0810183905260c081018290525f9060e00160408051601f1981840301815291815281516020928301205f8b8152600590935291205490915081146111975760405163fa174ecb60e01b815260040160405180910390fd5b5f888152600560205260408120556001600160a01b03861673eeeeeeeeeeeeeeeeeeeeeeeeeeeeeeeeeeeeeeee146111cf57856111f1565b7f00000000000000000000000000000000000000000000000000000000000000005b6040516318457e6160e01b81529096506001600160a01b037f000000000000000000000000000000000000000000000000000000000000000016906318457e6190611248908a908a908a9083908b9060040161223e565b5f604051808303815f87803b15801561125f575f80fd5b505af1158015611271573d5f803e3d5ffd5b50505050866001600160a01b0316887faf98ea774275cadfa3e477a7b52cba03e01197445a76bd5d0d561608708c3624836040516112b191815260200190565b60405180910390a35050505050505050565b6112d8335f356001600160e01b031916611936565b6112f45760405162461bcd60e51b8152600401610760906121dd565b6001600160a01b0381165f81815260086020526040808220805460ff19169055517f039bcf51833310242b8b7c6aa0fbabf1bf2b5e5270807ee020f1920ef200666b9190a250565b5f546001600160a01b03163314806113cd575060015460405163b700961360e01b81526001600160a01b039091169063b70096139061138e90339030906001600160e01b03195f351690600401612298565b602060405180830381865afa1580156113a9573d5f803e3d5ffd5b505050506040513d601f19601f820116820180604052508101906113cd91906122c5565b6113d5575f80fd5b600180546001600160a01b0319166001600160a01b03831690811790915560405133907fa3396fd7f6e0a21b50e5089d2da70d5ac0a3bbbd1f617a93f134b76389980198905f90a350565b611435335f356001600160e01b031916611936565b6114515760405162461bcd60e51b8152600401610760906121dd565b6004805460ff60a01b1916600160a01b1790556040517f9e87fac88ff661f02d44f95383c817fece4bce600a3dab7a54406878b965e752905f90a1565b6114a3335f356001600160e01b031916611936565b6114bf5760405162461bcd60e51b8152600401610760906121dd565b6103e861ffff821611156114e657604051636c5cde8760e01b815260040160405180910390fd5b6040805160608082018352851515808352851515602080850182815261ffff8881168789018181526001600160a01b038e165f818152600387528b902099518a549551925161ffff1990961690151561ff00191617610100921515929092029190911763ffff0000191662010000949093169390930291909117909655865193845290830191909152938101929092527fe08301321781ac43935a2099b2c3fd42de0a0ee87a519cac00e8c9cecd26ff12910160405180910390a250505050565b5f6115bd335f356001600160e01b031916611936565b6115d95760405162461bcd60e51b8152600401610760906121dd565b6002546001146115fb5760405162461bcd60e51b815260040161076090612203565b600280555f611609866119de565b9050611619868686338786611b1b565b9150856001600160a01b03167f6f9b974223f85a1ae805c33b8b519039e2435481d949db1110de151a94d587af8660405161165691815260200190565b60405180910390a2506001600255949350505050565b611681335f356001600160e01b031916611936565b61169d5760405162461bcd60e51b8152600401610760906121dd565b6001600160a01b0381165f81815260076020526040808220805460ff19169055517fae893dda71e2eee548f8291f458cceae4bd22b56a79906928591e4420444c0e99190a250565b6001600160a01b0383165f9081526007602052604090205460ff168061172257506001600160a01b0382165f9081526008602052604090205460ff165b8061174457506001600160a01b0381165f9081526009602052604090205460ff165b1561177d57604051632821264f60e01b81526001600160a01b038085166004830152808416602483015282166044820152606401610760565b6001600160a01b0383165f908152600660205260409020544210156117b55760405163f64059db60e01b815260040160405180910390fd5b505050565b6117cf335f356001600160e01b031916611936565b6117eb5760405162461bcd60e51b8152600401610760906121dd565b6001600160a01b0381165f818152600760209081526040808320805460ff199081169091556008835281842080548216905560099092528083208054909216909155517fae893dda71e2eee548f8291f458cceae4bd22b56a79906928591e4420444c0e99190a26040516001600160a01b038216907f039bcf51833310242b8b7c6aa0fbabf1bf2b5e5270807ee020f1920ef200666b905f90a26040516001600160a01b038216907f77cb944c14da76928795279d1519ce9150085a06e0a53c61d5a86fc4e0fd57c6905f90a250565b6118d0335f356001600160e01b031916611936565b6118ec5760405162461bcd60e51b8152600401610760906121dd565b5f80546001600160a01b0319166001600160a01b0383169081178255604051909133917f8be0079c531659141344cd1fd0a4f28419497f9722a3daafe3b4186f6b6457e09190a350565b6001545f906001600160a01b031680158015906119bd575060405163b700961360e01b81526001600160a01b0382169063b70096139061197e90879030908890600401612298565b602060405180830381865afa158015611999573d5f803e3d5ffd5b505050506040513d601f19601f820116820180604052508101906119bd91906122c5565b806119d457505f546001600160a01b038581169116145b9150505b92915050565b604080516060810182525f8082526020820181905291810191909152600454600160a01b900460ff1615611a255760405163e0f9e71d60e01b815260040160405180910390fd5b506001600160a01b0381165f908152600360209081526040918290208251606081018452905460ff8082161515808452610100830490911615159383019390935262010000900461ffff1692810192909252611a945760405163645fd19f60e11b815260040160405180910390fd5b919050565b5f60405163095ea7b360e01b81526001600160a01b038416600482015282602482015260205f6044835f895af13d15601f3d1160015f511416171691505080611b155760405162461bcd60e51b815260206004820152600e60248201526d1054141493d59157d1905253115160921b6044820152606401610760565b50505050565b5f855f03611b3c5760405163259be69560e11b815260040160405180910390fd5b604051634104b9ed60e11b81526001600160a01b038881166004830152611bf2917f0000000000000000000000000000000000000000000000000000000000000000917f0000000000000000000000000000000000000000000000000000000000000000169063820973da90602401602060405180830381865afa158015611bc6573d5f803e3d5ffd5b505050506040513d601f19601f82011682018060405250810190611bea9190612227565b889190611f61565b90505f826040015161ffff1611611c095780611c2c565b611c2c8260400151612710611c1e91906122e0565b829061ffff16612710611f61565b905084811015611c4f5760405163097b2ad560e31b815260040160405180910390fd5b604051631ceb5d1960e11b81526001600160a01b037f000000000000000000000000000000000000000000000000000000000000000016906339d6ba3290611ca39087908b908b908990889060040161223e565b5f604051808303815f87803b158015611cba575f80fd5b505af1158015611ccc573d5f803e3d5ffd5b505050509695505050505050565b600480545f91908290611cf5906001600160601b0316612302565b82546001600160601b039182166101009390930a838102920219161790915590508115611d9957611d268242612327565b6001600160a01b038781165f81815260066020908152604091829020949094558051938401919091529087169082015260608101859052608081018490524260a082015260c0810183905260e00160408051601f1981840301815291815281516020928301205f84815260059093529120555b846001600160a01b0316866001600160a01b0316827fe96d7872363f475d18b2f5390caaa5eaa96b2d38e42c62afe4ac08ebd2b13c3a87874288604051611df9949392919093845260208401929092526040830152606082015260800190565b60405180910390a4505050505050565b60405163d505accf60e01b81523360048201526001600160a01b037f000000000000000000000000000000000000000000000000000000000000000081166024830152604482018790526064820186905260ff8516608483015260a4820184905260c4820183905287169063d505accf9060e4015f604051808303815f87803b158015611e94575f80fd5b505af1925050508015611ea5575060015b611f5957604051636eb1769f60e11b81523360048201526001600160a01b037f00000000000000000000000000000000000000000000000000000000000000008116602483015286919088169063dd62ed3e90604401602060405180830381865afa158015611f16573d5f803e3d5ffd5b505050506040513d601f19601f82011682018060405250810190611f3a9190612227565b1015611f59576040516301b8851f60e41b815260040160405180910390fd5b505050505050565b5f825f190484118302158202611f75575f80fd5b5091020490565b6001600160a01b0381168114611f90575f80fd5b50565b5f60208284031215611fa3575f80fd5b8135611fae81611f7c565b9392505050565b5f805f60608486031215611fc7575f80fd5b8335611fd281611f7c565b95602085013595506040909401359392505050565b5f60208284031215611ff7575f80fd5b813567ffffffffffffffff81168114611fae575f80fd5b5f805f805f805f60e0888a031215612024575f80fd5b873561202f81611f7c565b9650602088013595506040880135945060608801359350608088013560ff81168114612059575f80fd5b9699959850939692959460a0840135945060c09093013592915050565b5f805f8060808587031215612089575f80fd5b843561209481611f7c565b9350602085013592506040850135915060608501356120b281611f7c565b939692955090935050565b5f805f805f805f60e0888a0312156120d3575f80fd5b8735965060208801356120e581611f7c565b955060408801356120f581611f7c565b969995985095966060810135965060808101359560a0820135955060c0909101359350915050565b8015158114611f90575f80fd5b5f805f806080858703121561213d575f80fd5b843561214881611f7c565b935060208501356121588161211d565b925060408501356121688161211d565b9150606085013561ffff811681146120b2575f80fd5b5f6020828403121561218e575f80fd5b5035919050565b5f805f606084860312156121a7575f80fd5b83356121b281611f7c565b925060208401356121c281611f7c565b915060408401356121d281611f7c565b809150509250925092565b6020808252600c908201526b15539055551213d49256915160a21b604082015260600190565b6020808252600a90820152695245454e5452414e435960b01b604082015260600190565b5f60208284031215612237575f80fd5b5051919050565b6001600160a01b039586168152938516602085015260408401929092529092166060820152608081019190915260a00190565b634e487b7160e01b5f52601160045260245ffd5b818103818111156119d8576119d8612271565b6001600160a01b0393841681529190921660208201526001600160e01b0319909116604082015260600190565b5f602082840312156122d5575f80fd5b8151611fae8161211d565b61ffff8281168282160390808211156122fb576122fb612271565b5092915050565b5f6001600160601b0380831681810361231d5761231d612271565b6001019392505050565b808201808211156119d8576119d861227156fea264697066735822122085c4ce4902671a38b1dcae6a3ee8573e366ea31e4be8369f4914105d2e3e8d9464736f6c6343000815003300000000000000000000000077b4922fcc0fa745bcd7d76025e682cfffc9a149000000000000000000000000324dcd943a79ff3497845479980f6bc936b8116e00000000000000000000000004d4e50cdc047b7e36460a813075d075af59683d000000000000000000000000c02aaa39b223fe8d0a0e5c4f27ead9083c756cc2",
        "nonce": "0x139",
        "chainId": "0x1"
      },
      "additionalContracts": [],
      "isFixedGasLimit": false
    },
    {
      "hash": "0x019386bf6a95c3bc4617d6e08f36049009f571ed01f10ddf40c76c597762a655",
      "transactionType": "CREATE",
      "contractName": "UnrestrictedManager",
      "contractAddress": "0xbd0a20299113b29d52fb3503ad5b3f537b896fb3",
      "function": null,
      "arguments": [
        "0x77B4922Fcc0Fa745Bcd7d76025E682CFfFc9a149",
        "0xcb0a393f175b555824Ff93586351B97E5Ab9471b",
        "0x324dcd943a79Ff3497845479980F6bC936B8116E"
      ],
      "transaction": {
        "from": "0x77b4922fcc0fa745bcd7d76025e682cfffc9a149",
        "gas": "0xe510b",
        "value": "0x0",
        "input": "0x60a060405234801561000f575f80fd5b50604051610c9d380380610c9d83398101604081905261002e91610111565b5f80546001600160a01b03199081166001600160a01b0386811691821784556001805490931690861617909155604051859285929133917f8be0079c531659141344cd1fd0a4f28419497f9722a3daafe3b4186f6b6457e091a36040516001600160a01b0382169033907fa3396fd7f6e0a21b50e5089d2da70d5ac0a3bbbd1f617a93f134b76389980198905f90a350506001600160a01b0381166100e657604051633deb97d560e01b815260040160405180910390fd5b6001600160a01b03166080525061015b9050565b6001600160a01b038116811461010e575f80fd5b50565b5f805f60608486031215610123575f80fd5b835161012e816100fa565b602085015190935061013f816100fa565b6040850151909250610150816100fa565b809150509250925092565b608051610b1c6101815f395f8181610131015281816101a6015261035a0152610b1c5ff3fe608060405234801561000f575f80fd5b506004361061007a575f3560e01c806395bfa68a1161005857806395bfa68a146100e6578063bf7e214f14610106578063f2fde38b14610119578063fbfa77cf1461012c575f80fd5b80630a3e111c1461007e5780637a9e5e4b146100a75780638da5cb5b146100bc575b5f80fd5b61009161008c36600461051e565b610153565b60405161009e91906105ef565b60405180910390f35b6100ba6100b5366004610608565b61022c565b005b5f546100ce906001600160a01b031681565b6040516001600160a01b03909116815260200161009e565b6100f96100f436600461066b565b610310565b60405161009e91906106fe565b6001546100ce906001600160a01b031681565b6100ba610127366004610608565b6103e6565b6100ce7f000000000000000000000000000000000000000000000000000000000000000081565b606061016a335f356001600160e01b031916610461565b61018f5760405162461bcd60e51b81526004016101869061075e565b60405180910390fd5b604051630f6e715d60e41b81526001600160a01b037f0000000000000000000000000000000000000000000000000000000000000000169063f6e715d0906101e19088908890889088906004016107ac565b5f604051808303815f875af11580156101fc573d5f803e3d5ffd5b505050506040513d5f823e601f3d908101601f191682016040526102239190810190610887565b95945050505050565b5f546001600160a01b03163314806102bd575060015460405163b700961360e01b81526001600160a01b039091169063b70096139061027e90339030906001600160e01b03195f3516906004016108b9565b602060405180830381865afa158015610299573d5f803e3d5ffd5b505050506040513d601f19601f820116820180604052508101906102bd91906108e6565b6102c5575f80fd5b600180546001600160a01b0319166001600160a01b03831690811790915560405133907fa3396fd7f6e0a21b50e5089d2da70d5ac0a3bbbd1f617a93f134b76389980198905f90a350565b6060610327335f356001600160e01b031916610461565b6103435760405162461bcd60e51b81526004016101869061075e565b60405163224d870360e01b81526001600160a01b037f0000000000000000000000000000000000000000000000000000000000000000169063224d870390610399908a908a908a908a908a908a90600401610935565b5f604051808303815f875af11580156103b4573d5f803e3d5ffd5b505050506040513d5f823e601f3d908101601f191682016040526103db9190810190610a29565b979650505050505050565b6103fb335f356001600160e01b031916610461565b6104175760405162461bcd60e51b81526004016101869061075e565b5f80546001600160a01b0319166001600160a01b0383169081178255604051909133917f8be0079c531659141344cd1fd0a4f28419497f9722a3daafe3b4186f6b6457e09190a350565b6001545f906001600160a01b031680158015906104e8575060405163b700961360e01b81526001600160a01b0382169063b7009613906104a9908790309088906004016108b9565b602060405180830381865afa1580156104c4573d5f803e3d5ffd5b505050506040513d601f19601f820116820180604052508101906104e891906108e6565b806104ff57505f546001600160a01b038581169116145b949350505050565b6001600160a01b038116811461051b575f80fd5b50565b5f805f8060608587031215610531575f80fd5b843561053c81610507565b9350602085013567ffffffffffffffff80821115610558575f80fd5b818701915087601f83011261056b575f80fd5b813581811115610579575f80fd5b88602082850101111561058a575f80fd5b95986020929092019750949560400135945092505050565b5f5b838110156105bc5781810151838201526020016105a4565b50505f910152565b5f81518084526105db8160208601602086016105a2565b601f01601f19169290920160200192915050565b602081525f61060160208301846105c4565b9392505050565b5f60208284031215610618575f80fd5b813561060181610507565b5f8083601f840112610633575f80fd5b50813567ffffffffffffffff81111561064a575f80fd5b6020830191508360208260051b8501011115610664575f80fd5b9250929050565b5f805f805f8060608789031215610680575f80fd5b863567ffffffffffffffff80821115610697575f80fd5b6106a38a838b01610623565b909850965060208901359150808211156106bb575f80fd5b6106c78a838b01610623565b909650945060408901359150808211156106df575f80fd5b506106ec89828a01610623565b979a9699509497509295939492505050565b5f602080830181845280855180835260408601915060408160051b87010192508387015f5b8281101561075157603f1988860301845261073f8583516105c4565b94509285019290850190600101610723565b5092979650505050505050565b6020808252600c908201526b15539055551213d49256915160a21b604082015260600190565b81835281816020850137505f828201602090810191909152601f909101601f19169091010190565b6001600160a01b03851681526060602082018190525f906107d09083018587610784565b905082604083015295945050505050565b634e487b7160e01b5f52604160045260245ffd5b604051601f8201601f1916810167ffffffffffffffff8111828210171561081e5761081e6107e1565b604052919050565b5f82601f830112610835575f80fd5b815167ffffffffffffffff81111561084f5761084f6107e1565b610862601f8201601f19166020016107f5565b818152846020838601011115610876575f80fd5b6104ff8260208301602087016105a2565b5f60208284031215610897575f80fd5b815167ffffffffffffffff8111156108ad575f80fd5b6104ff84828501610826565b6001600160a01b0393841681529190921660208201526001600160e01b0319909116604082015260600190565b5f602082840312156108f6575f80fd5b81518015158114610601575f80fd5b8183525f6001600160fb1b0383111561091c575f80fd5b8260051b80836020870137939093016020019392505050565b606080825281018690525f8760808301825b8981101561097757823561095a81610507565b6001600160a01b0316825260209283019290910190600101610947565b506020915083810382850152808782528282019050828860051b830101895f5b8a811015610a0457848303601f190184528135368d9003601e190181126109bc575f80fd5b8c01868101903567ffffffffffffffff8111156109d7575f80fd5b8036038213156109e5575f80fd5b6109f0858284610784565b958801959450505090850190600101610997565b50508581036040870152610a1981888a610905565b9c9b505050505050505050505050565b5f6020808385031215610a3a575f80fd5b825167ffffffffffffffff80821115610a51575f80fd5b818501915085601f830112610a64575f80fd5b815181811115610a7657610a766107e1565b8060051b610a858582016107f5565b9182528381018501918581019089841115610a9e575f80fd5b86860192505b83831015610ad957825185811115610abb575f8081fd5b610ac98b89838a0101610826565b8352509186019190860190610aa4565b999850505050505050505056fea2646970667358221220ab1c7f0a2e7c12819753fdc3333bca76e5a425d335bb68029a9218af5829a58164736f6c6343000815003300000000000000000000000077b4922fcc0fa745bcd7d76025e682cfffc9a149000000000000000000000000cb0a393f175b555824ff93586351b97e5ab9471b000000000000000000000000324dcd943a79ff3497845479980f6bc936b8116e",
        "nonce": "0x13a",
        "chainId": "0x1"
      },
      "additionalContracts": [],
      "isFixedGasLimit": false
    },
    {
      "hash": "0xf45fb9339bf45da6299e990c8e7f9efecab2bfa9fb5031f96c2f9b91db93f286",
      "transactionType": "CREATE",
      "contractName": "WithdrawQueue",
      "contractAddress": "0x659c35af4b862a93d9c1d61b4baa6595f357de70",
      "function": null,
      "arguments": [
        "0x77B4922Fcc0Fa745Bcd7d76025E682CFfFc9a149",
        "0xcb0a393f175b555824Ff93586351B97E5Ab9471b",
        "0x324dcd943a79Ff3497845479980F6bC936B8116E",
        "0x9a1f42B252cc0a7fEDD06010c3EA35ce24A4E779",
        "0x04D4E50cDC047b7E36460a813075D075AF59683d",
        "0x4c9EDD5852cd905f086C759E8383e09bff1E68B3"
      ],
      "transaction": {
        "from": "0x77b4922fcc0fa745bcd7d76025e682cfffc9a149",
        "gas": "0x14e25d",
        "value": "0x0",
        "input": "0x610120604052600180546001600160a01b0316600160a01b17905534801562000026575f80fd5b506040516200150c3803806200150c8339810160408190526200004991620001f5565b5f80546001600160a01b03199081166001600160a01b0389811691821784556001805490931690891617909155604051889288929133917f8be0079c531659141344cd1fd0a4f28419497f9722a3daafe3b4186f6b6457e091a36040516001600160a01b0382169033907fa3396fd7f6e0a21b50e5089d2da70d5ac0a3bbbd1f617a93f134b76389980198905f90a350506001600160a01b0384161580620000f857506001600160a01b038316155b806200010b57506001600160a01b038216155b806200011e57506001600160a01b038116155b156200013d57604051631ce169d160e21b815260040160405180910390fd5b6001600160a01b03808516608081905284821660a05283821660c05290821660e0526040805163313ce56760e01b8152905163313ce567916004808201926020929091908290030181865afa15801562000199573d5f803e3d5ffd5b505050506040513d601f19601f82011682018060405250810190620001bf919062000285565b620001cc90600a620003bd565b6101005250620003cd945050505050565b6001600160a01b0381168114620001f2575f80fd5b50565b5f805f805f8060c087890312156200020b575f80fd5b86516200021881620001dd565b60208801519096506200022b81620001dd565b60408801519095506200023e81620001dd565b60608801519094506200025181620001dd565b60808801519093506200026481620001dd565b60a08801519092506200027781620001dd565b809150509295509295509295565b5f6020828403121562000296575f80fd5b815160ff81168114620002a7575f80fd5b9392505050565b634e487b7160e01b5f52601160045260245ffd5b600181815b808511156200030257815f1904821115620002e657620002e6620002ae565b80851615620002f457918102915b93841c9390800290620002c7565b509250929050565b5f826200031a57506001620003b7565b816200032857505f620003b7565b81600181146200034157600281146200034c576200036c565b6001915050620003b7565b60ff841115620003605762000360620002ae565b50506001821b620003b7565b5060208310610133831016604e8410600b841016171562000391575081810a620003b7565b6200039d8383620002c2565b805f1904821115620003b357620003b3620002ae565b0290505b92915050565b5f620002a760ff8416836200030a565b60805160a05160c05160e051610100516110da620004325f395f50505f818161015301528181610a880152610bba01525f6101e401525f81816103c80152610ac601525f818161010f01528181610625015281816107d70152610a4101526110da5ff3fe608060405234801561000f575f80fd5b5060043610610106575f3560e01c80639f01f7ba1161009e578063d4a6d7571161006e578063d4a6d757146103c3578063f091d785146103ea578063f2fde38b146103fd578063f399ec4814610410578063f71d60a314610423575f80fd5b80639f01f7ba146102ad578063a1a47d71146102c0578063bf7e214f146102ca578063c58343ef146102dd575f80fd5b80637a9e5e4b116100d95780637a9e5e4b146101ca5780638b9d2940146101df5780638da5cb5b14610206578063992a7dfb14610218575f80fd5b8063411557d11461010a5780634800d97f1461014e57806363108990146101755780636a84a98514610198575b5f80fd5b6101317f000000000000000000000000000000000000000000000000000000000000000081565b6040516001600160a01b0390911681526020015b60405180910390f35b6101317f000000000000000000000000000000000000000000000000000000000000000081565b610188610183366004610ec6565b610441565b6040519015158152602001610145565b6001546101b290600160a01b90046001600160601b031681565b6040516001600160601b039091168152602001610145565b6101dd6101d8366004610ef4565b61048e565b005b6101317f000000000000000000000000000000000000000000000000000000000000000081565b5f54610131906001600160a01b031681565b61026d610226366004610ec6565b60026020525f9081526040902080546001909101546001600160a01b03821691600160a01b90046001600160601b03169064ffffffffff811690600160281b900460ff1684565b604080516001600160a01b0390951685526001600160601b03909316602085015264ffffffffff9091169183019190915215156060820152608001610145565b6101dd6102bb366004610ec6565b610572565b6101b2620f424081565b600154610131906001600160a01b031681565b6103756102eb366004610ec6565b604080516080810182525f808252602082018190529181018290526060810191909152505f90815260026020908152604091829020825160808101845281546001600160a01b0381168252600160a01b90046001600160601b0316928101929092526001015464ffffffffff811692820192909252600160281b90910460ff161515606082015290565b604051610145919081516001600160a01b031681526020808301516001600160601b03169082015260408083015164ffffffffff169082015260609182015115159181019190915260800190565b6101317f000000000000000000000000000000000000000000000000000000000000000081565b6101b26103f8366004610f0f565b6106ad565b6101dd61040b366004610ef4565b61084a565b6101dd61041e366004610f35565b6108e9565b61042d6203f48081565b60405162ffffff9091168152602001610145565b5f81815260026020526040812080546001600160a01b0316158015906104875750600181015461047c906203f4809064ffffffffff16610fb8565b64ffffffffff164210155b9392505050565b5f546001600160a01b031633148061051f575060015460405163b700961360e01b81526001600160a01b039091169063b7009613906104e090339030906001600160e01b03195f351690600401610fdd565b602060405180830381865afa1580156104fb573d5f803e3d5ffd5b505050506040513d601f19601f8201168201806040525081019061051f919061100a565b610527575f80fd5b600180546001600160a01b0319166001600160a01b03831690811790915560405133907fa3396fd7f6e0a21b50e5089d2da70d5ac0a3bbbd1f617a93f134b76389980198905f90a350565b5f81815260026020526040902080546001600160a01b03166105a75760405163c120565d60e01b815260040160405180910390fd5b80546001600160a01b031633146105d15760405163a21ef90160e01b815260040160405180910390fd5b6001810154600160281b900460ff16156105fe57604051632d8519b760e11b815260040160405180910390fd5b60018101805465ff00000000001916600160281b179055805461065e906001600160a01b037f0000000000000000000000000000000000000000000000000000000000000000169033906001600160601b03600160a01b90910416610c73565b80546040516001600160601b03600160a01b9092048216815233918416907fc405cc8e0823746ca12654e11ab053260e9fe9b3d2e7381dbcf23ebc5ad1e9209060200160405180910390a35050565b5f816001600160601b03165f036106d7576040516325fd807560e21b815260040160405180910390fd5b620f42406001600160601b03831610156107045760405163adc2e5ff60e01b815260040160405180910390fd5b60018054600160a01b90046001600160601b031690601461072483611029565b82546001600160601b039182166101009390930a9283029282021916919091179091556040805160808101825233808252868416602080840182815264ffffffffff4281168688019081525f606088018181528b8b16825260029095529790972095519151909716600160a01b026001600160a01b039182161785559451600194909401805491511515600160281b0265ffffffffffff19909216949096169390931792909217909355929350610802927f000000000000000000000000000000000000000000000000000000000000000090911691903090610cf6565b6040516001600160601b0383811682523391908316907fb039efad214dec563670dd1b7fba4a4f9b8a61434125c4094d95189e083233899060200160405180910390a3919050565b61085f335f356001600160e01b031916610d87565b61089f5760405162461bcd60e51b815260206004820152600c60248201526b15539055551213d49256915160a21b60448201526064015b60405180910390fd5b5f80546001600160a01b0319166001600160a01b0383169081178255604051909133917f8be0079c531659141344cd1fd0a4f28419497f9722a3daafe3b4186f6b6457e09190a350565b6108fe335f356001600160e01b031916610d87565b6109395760405162461bcd60e51b815260206004820152600c60248201526b15539055551213d49256915160a21b6044820152606401610896565b5f805b82811015610a3b575f60025f86868581811061095a5761095a61104e565b602090810292909201358352508101919091526040015f2080549091506001600160a01b031661099d5760405163c120565d60e01b815260040160405180910390fd5b6001810154600160281b900460ff16156109ca57604051632d8519b760e11b815260040160405180910390fd5b60018101546109e4906203f4809064ffffffffff16610fb8565b64ffffffffff16421015610a0b57604051630ff0edab60e11b815260040160405180910390fd5b8054610a2790600160a01b90046001600160601b031684611062565b92505080610a3490611075565b905061093c565b50610a717f00000000000000000000000000000000000000000000000000000000000000006001600160a01b0381169083610e2f565b604051633e64ce9960e01b81526001600160a01b037f000000000000000000000000000000000000000000000000000000000000000081166004830152602482018390525f60448301819052306064840152917f000000000000000000000000000000000000000000000000000000000000000090911690633e64ce99906084016020604051808303815f875af1158015610b0e573d5f803e3d5ffd5b505050506040513d601f19601f82011682018060405250810190610b32919061108d565b90505f5b83811015610c6c575f60025f878785818110610b5457610b5461104e565b602090810292909201358352508101919091526040015f90812060018101805465ff00000000001916600160281b1790558054909250610ba79085906001600160601b03600160a01b9091041687610eab565b8254909150610be3906001600160a01b037f00000000000000000000000000000000000000000000000000000000000000008116911683610c73565b81546001600160a01b0316878785818110610c0057610c0061104e565b8554604080516001600160601b03600160a01b90930483168152602080820189905293909302949094013516927f357bc2033b3d49e24d0d249ddaa0cc46b470b0a2a003d3bec5be950a5436ea1b92500160405180910390a3505080610c6590611075565b9050610b36565b5050505050565b5f60405163a9059cbb60e01b81526001600160a01b038416600482015282602482015260205f6044835f895af13d15601f3d1160015f511416171691505080610cf05760405162461bcd60e51b815260206004820152600f60248201526e1514905394d1915497d19052531151608a1b6044820152606401610896565b50505050565b5f6040516323b872dd60e01b81526001600160a01b03851660048201526001600160a01b038416602482015282604482015260205f6064835f8a5af13d15601f3d1160015f511416171691505080610c6c5760405162461bcd60e51b81526020600482015260146024820152731514905394d1915497d19493d357d1905253115160621b6044820152606401610896565b6001545f906001600160a01b03168015801590610e0e575060405163b700961360e01b81526001600160a01b0382169063b700961390610dcf90879030908890600401610fdd565b602060405180830381865afa158015610dea573d5f803e3d5ffd5b505050506040513d601f19601f82011682018060405250810190610e0e919061100a565b80610e2557505f546001600160a01b038581169116145b9150505b92915050565b5f60405163095ea7b360e01b81526001600160a01b038416600482015282602482015260205f6044835f895af13d15601f3d1160015f511416171691505080610cf05760405162461bcd60e51b815260206004820152600e60248201526d1054141493d59157d1905253115160921b6044820152606401610896565b5f825f190484118302158202610ebf575f80fd5b5091020490565b5f60208284031215610ed6575f80fd5b5035919050565b6001600160a01b0381168114610ef1575f80fd5b50565b5f60208284031215610f04575f80fd5b813561048781610edd565b5f60208284031215610f1f575f80fd5b81356001600160601b0381168114610487575f80fd5b5f8060208385031215610f46575f80fd5b823567ffffffffffffffff80821115610f5d575f80fd5b818501915085601f830112610f70575f80fd5b813581811115610f7e575f80fd5b8660208260051b8501011115610f92575f80fd5b60209290920196919550909350505050565b634e487b7160e01b5f52601160045260245ffd5b64ffffffffff818116838216019080821115610fd657610fd6610fa4565b5092915050565b6001600160a01b0393841681529190921660208201526001600160e01b0319909116604082015260600190565b5f6020828403121561101a575f80fd5b81518015158114610487575f80fd5b5f6001600160601b0380831681810361104457611044610fa4565b6001019392505050565b634e487b7160e01b5f52603260045260245ffd5b80820180821115610e2957610e29610fa4565b5f6001820161108657611086610fa4565b5060010190565b5f6020828403121561109d575f80fd5b505191905056fea2646970667358221220fdb11445c981ff8624453a1a482caefba4c74b628a5e77df72a2f3cc8427063d64736f6c6343000815003300000000000000000000000077b4922fcc0fa745bcd7d76025e682cfffc9a149000000000000000000000000cb0a393f175b555824ff93586351b97e5ab9471b000000000000000000000000324dcd943a79ff3497845479980f6bc936b8116e0000000000000000000000009a1f42b252cc0a7fedd06010c3ea35ce24a4e77900000000000000000000000004d4e50cdc047b7e36460a813075d075af59683d0000000000000000000000004c9edd5852cd905f086c759e8383e09bff1e68b3",
        "nonce": "0x13b",
        "chainId": "0x1"
      },
      "additionalContracts": [],
      "isFixedGasLimit": false
    },
    {
      "hash": "0xdb7549a39e2ee6c1e761db09f003cfa82f3958b0abd0092bd8176f87c928f543",
      "transactionType": "CALL",
      "contractName": "BoringVault",
      "contractAddress": "0x324dcd943a79ff3497845479980f6bc936b8116e",
      "function": "setAuthority(address)",
      "arguments": [
        "0xcb0a393f175b555824Ff93586351B97E5Ab9471b"
      ],
      "transaction": {
        "from": "0x77b4922fcc0fa745bcd7d76025e682cfffc9a149",
        "to": "0x324dcd943a79ff3497845479980f6bc936b8116e",
        "gas": "0x11065",
        "value": "0x0",
        "input": "0x7a9e5e4b000000000000000000000000cb0a393f175b555824ff93586351b97e5ab9471b",
        "nonce": "0x13c",
        "chainId": "0x1"
      },
      "additionalContracts": [],
      "isFixedGasLimit": false
    },
    {
      "hash": "0xfaa7577ed1ded5539eef733925d0e1ff766600ccc513910540e20c02f96e015b",
      "transactionType": "CALL",
      "contractName": "AccountantWithRateProviders",
      "contractAddress": "0x04d4e50cdc047b7e36460a813075d075af59683d",
      "function": "setAuthority(address)",
      "arguments": [
        "0xcb0a393f175b555824Ff93586351B97E5Ab9471b"
      ],
      "transaction": {
        "from": "0x77b4922fcc0fa745bcd7d76025e682cfffc9a149",
        "to": "0x04d4e50cdc047b7e36460a813075d075af59683d",
        "gas": "0x10142",
        "value": "0x0",
        "input": "0x7a9e5e4b000000000000000000000000cb0a393f175b555824ff93586351b97e5ab9471b",
        "nonce": "0x13d",
        "chainId": "0x1"
      },
      "additionalContracts": [],
      "isFixedGasLimit": false
    },
    {
      "hash": "0x7842c1b85599f379870db3e54b5ba97ef979bca733806324b63c0b1fab000f2b",
      "transactionType": "CALL",
      "contractName": "TellerWithMultiAssetSupport",
      "contractAddress": "0x9a1f42b252cc0a7fedd06010c3ea35ce24a4e779",
      "function": "setAuthority(address)",
      "arguments": [
        "0xcb0a393f175b555824Ff93586351B97E5Ab9471b"
      ],
      "transaction": {
        "from": "0x77b4922fcc0fa745bcd7d76025e682cfffc9a149",
        "to": "0x9a1f42b252cc0a7fedd06010c3ea35ce24a4e779",
        "gas": "0x10106",
        "value": "0x0",
        "input": "0x7a9e5e4b000000000000000000000000cb0a393f175b555824ff93586351b97e5ab9471b",
        "nonce": "0x13e",
        "chainId": "0x1"
      },
      "additionalContracts": [],
      "isFixedGasLimit": false
    },
    {
      "hash": "0x3f1a50b960c33f3c7c19fb62d0ecad61334a7565db5bc42a385bc2879a137bef",
      "transactionType": "CALL",
      "contractName": "RolesAuthority",
      "contractAddress": "0xcb0a393f175b555824ff93586351b97e5ab9471b",
      "function": "setRoleCapability(uint8,address,bytes4,bool)",
      "arguments": [
        "1",
        "0x324dcd943a79Ff3497845479980F6bC936B8116E",
        "0xf6e715d0",
        "true"
      ],
      "transaction": {
        "from": "0x77b4922fcc0fa745bcd7d76025e682cfffc9a149",
        "to": "0xcb0a393f175b555824ff93586351b97e5ab9471b",
        "gas": "0x12686",
        "value": "0x0",
        "input": "0x7d40583d0000000000000000000000000000000000000000000000000000000000000001000000000000000000000000324dcd943a79ff3497845479980f6bc936b8116ef6e715d0000000000000000000000000000000000000000000000000000000000000000000000000000000000000000000000000000000000000000000000001",
        "nonce": "0x13f",
        "chainId": "0x1"
      },
      "additionalContracts": [],
      "isFixedGasLimit": false
    },
    {
      "hash": "0xdbaccc0fe304db7f003689c87dd43e463192fd6e548417d0247219f9336fc627",
      "transactionType": "CALL",
      "contractName": "RolesAuthority",
      "contractAddress": "0xcb0a393f175b555824ff93586351b97e5ab9471b",
      "function": "setRoleCapability(uint8,address,bytes4,bool)",
      "arguments": [
        "1",
        "0x324dcd943a79Ff3497845479980F6bC936B8116E",
        "0x224d8703",
        "true"
      ],
      "transaction": {
        "from": "0x77b4922fcc0fa745bcd7d76025e682cfffc9a149",
        "to": "0xcb0a393f175b555824ff93586351b97e5ab9471b",
        "gas": "0x12686",
        "value": "0x0",
        "input": "0x7d40583d0000000000000000000000000000000000000000000000000000000000000001000000000000000000000000324dcd943a79ff3497845479980f6bc936b8116e224d8703000000000000000000000000000000000000000000000000000000000000000000000000000000000000000000000000000000000000000000000001",
        "nonce": "0x140",
        "chainId": "0x1"
      },
      "additionalContracts": [],
      "isFixedGasLimit": false
    },
    {
      "hash": "0x446b381d2dcb3f689aca4e27242dbd91d4c7f0f7b4460e2769038eeb59d0379b",
      "transactionType": "CALL",
      "contractName": "RolesAuthority",
      "contractAddress": "0xcb0a393f175b555824ff93586351b97e5ab9471b",
      "function": "setRoleCapability(uint8,address,bytes4,bool)",
      "arguments": [
        "2",
        "0x324dcd943a79Ff3497845479980F6bC936B8116E",
        "0x39d6ba32",
        "true"
      ],
      "transaction": {
        "from": "0x77b4922fcc0fa745bcd7d76025e682cfffc9a149",
        "to": "0xcb0a393f175b555824ff93586351b97e5ab9471b",
        "gas": "0x12686",
        "value": "0x0",
        "input": "0x7d40583d0000000000000000000000000000000000000000000000000000000000000002000000000000000000000000324dcd943a79ff3497845479980f6bc936b8116e39d6ba32000000000000000000000000000000000000000000000000000000000000000000000000000000000000000000000000000000000000000000000001",
        "nonce": "0x141",
        "chainId": "0x1"
      },
      "additionalContracts": [],
      "isFixedGasLimit": false
    },
    {
      "hash": "0xf05e0afddaf41df1502636342e81a6ad89d23293d8a91cf9f7300a590469a08c",
      "transactionType": "CALL",
      "contractName": "RolesAuthority",
      "contractAddress": "0xcb0a393f175b555824ff93586351b97e5ab9471b",
      "function": "setRoleCapability(uint8,address,bytes4,bool)",
      "arguments": [
        "3",
        "0x324dcd943a79Ff3497845479980F6bC936B8116E",
        "0x18457e61",
        "true"
      ],
      "transaction": {
        "from": "0x77b4922fcc0fa745bcd7d76025e682cfffc9a149",
        "to": "0xcb0a393f175b555824ff93586351b97e5ab9471b",
        "gas": "0x12686",
        "value": "0x0",
        "input": "0x7d40583d0000000000000000000000000000000000000000000000000000000000000003000000000000000000000000324dcd943a79ff3497845479980f6bc936b8116e18457e61000000000000000000000000000000000000000000000000000000000000000000000000000000000000000000000000000000000000000000000001",
        "nonce": "0x142",
        "chainId": "0x1"
      },
      "additionalContracts": [],
      "isFixedGasLimit": false
    },
    {
      "hash": "0x3900954901fe9c0f68878d7976dc97aefc9b85600c28a5205d314305d1445201",
      "transactionType": "CALL",
      "contractName": "RolesAuthority",
      "contractAddress": "0xcb0a393f175b555824ff93586351b97e5ab9471b",
      "function": "setRoleCapability(uint8,address,bytes4,bool)",
      "arguments": [
        "4",
        "0xbD0a20299113B29d52Fb3503ad5b3f537b896Fb3",
        "0x0a3e111c",
        "true"
      ],
      "transaction": {
        "from": "0x77b4922fcc0fa745bcd7d76025e682cfffc9a149",
        "to": "0xcb0a393f175b555824ff93586351b97e5ab9471b",
        "gas": "0x12686",
        "value": "0x0",
        "input": "0x7d40583d0000000000000000000000000000000000000000000000000000000000000004000000000000000000000000bd0a20299113b29d52fb3503ad5b3f537b896fb30a3e111c000000000000000000000000000000000000000000000000000000000000000000000000000000000000000000000000000000000000000000000001",
        "nonce": "0x143",
        "chainId": "0x1"
      },
      "additionalContracts": [],
      "isFixedGasLimit": false
    },
    {
      "hash": "0xa6bc4ed378a4ee3e8ebe334cb84a1eaa05cbec478acf39bc7667835ad1a0b47c",
      "transactionType": "CALL",
      "contractName": "RolesAuthority",
      "contractAddress": "0xcb0a393f175b555824ff93586351b97e5ab9471b",
      "function": "setRoleCapability(uint8,address,bytes4,bool)",
      "arguments": [
        "4",
        "0xbD0a20299113B29d52Fb3503ad5b3f537b896Fb3",
        "0x95bfa68a",
        "true"
      ],
      "transaction": {
        "from": "0x77b4922fcc0fa745bcd7d76025e682cfffc9a149",
        "to": "0xcb0a393f175b555824ff93586351b97e5ab9471b",
        "gas": "0x12686",
        "value": "0x0",
        "input": "0x7d40583d0000000000000000000000000000000000000000000000000000000000000004000000000000000000000000bd0a20299113b29d52fb3503ad5b3f537b896fb395bfa68a000000000000000000000000000000000000000000000000000000000000000000000000000000000000000000000000000000000000000000000001",
        "nonce": "0x144",
        "chainId": "0x1"
      },
      "additionalContracts": [],
      "isFixedGasLimit": false
    },
    {
      "hash": "0x3bd30f6c47e9d3defeba510eb9eb82d3c79423976d20ee8d07bc955159030016",
      "transactionType": "CALL",
      "contractName": "RolesAuthority",
      "contractAddress": "0xcb0a393f175b555824ff93586351b97e5ab9471b",
      "function": "setRoleCapability(uint8,address,bytes4,bool)",
      "arguments": [
        "5",
        "0x04D4E50cDC047b7E36460a813075D075AF59683d",
        "0x3458113d",
        "true"
      ],
      "transaction": {
        "from": "0x77b4922fcc0fa745bcd7d76025e682cfffc9a149",
        "to": "0xcb0a393f175b555824ff93586351b97e5ab9471b",
        "gas": "0x12686",
        "value": "0x0",
        "input": "0x7d40583d000000000000000000000000000000000000000000000000000000000000000500000000000000000000000004d4e50cdc047b7e36460a813075d075af59683d3458113d000000000000000000000000000000000000000000000000000000000000000000000000000000000000000000000000000000000000000000000001",
        "nonce": "0x145",
        "chainId": "0x1"
      },
      "additionalContracts": [],
      "isFixedGasLimit": false
    },
    {
      "hash": "0xa341667831db3acc1d01d51729b810c1dfb52ba0a090a6c7ddd3b7b4011721b2",
      "transactionType": "CALL",
      "contractName": "RolesAuthority",
      "contractAddress": "0xcb0a393f175b555824ff93586351b97e5ab9471b",
      "function": "setRoleCapability(uint8,address,bytes4,bool)",
      "arguments": [
        "7",
        "0x9a1f42B252cc0a7fEDD06010c3EA35ce24A4E779",
        "0x3e64ce99",
        "true"
      ],
      "transaction": {
        "from": "0x77b4922fcc0fa745bcd7d76025e682cfffc9a149",
        "to": "0xcb0a393f175b555824ff93586351b97e5ab9471b",
        "gas": "0x12686",
        "value": "0x0",
        "input": "0x7d40583d00000000000000000000000000000000000000000000000000000000000000070000000000000000000000009a1f42b252cc0a7fedd06010c3ea35ce24a4e7793e64ce99000000000000000000000000000000000000000000000000000000000000000000000000000000000000000000000000000000000000000000000001",
        "nonce": "0x146",
        "chainId": "0x1"
      },
      "additionalContracts": [],
      "isFixedGasLimit": false
    },
    {
      "hash": "0x2ffa0d9624992ddc732786ef43cd3ea6e567afe4fff410432f79e1905b1ade50",
      "transactionType": "CALL",
      "contractName": "RolesAuthority",
      "contractAddress": "0xcb0a393f175b555824ff93586351b97e5ab9471b",
      "function": "setRoleCapability(uint8,address,bytes4,bool)",
      "arguments": [
        "6",
        "0x659c35aF4b862A93D9C1D61B4bAa6595f357dE70",
        "0xf399ec48",
        "true"
      ],
      "transaction": {
        "from": "0x77b4922fcc0fa745bcd7d76025e682cfffc9a149",
        "to": "0xcb0a393f175b555824ff93586351b97e5ab9471b",
        "gas": "0x12686",
        "value": "0x0",
        "input": "0x7d40583d0000000000000000000000000000000000000000000000000000000000000006000000000000000000000000659c35af4b862a93d9c1d61b4baa6595f357de70f399ec48000000000000000000000000000000000000000000000000000000000000000000000000000000000000000000000000000000000000000000000001",
        "nonce": "0x147",
        "chainId": "0x1"
      },
      "additionalContracts": [],
      "isFixedGasLimit": false
    },
    {
      "hash": "0x7b3408500ec4ea318103959f1b24cb376a1baae15a36969c7b89fd4bc1797534",
      "transactionType": "CALL",
      "contractName": "RolesAuthority",
      "contractAddress": "0xcb0a393f175b555824ff93586351b97e5ab9471b",
      "function": "setPublicCapability(address,bytes4,bool)",
      "arguments": [
        "0x9a1f42B252cc0a7fEDD06010c3EA35ce24A4E779",
        "0x0efe6a8b",
        "true"
      ],
      "transaction": {
        "from": "0x77b4922fcc0fa745bcd7d76025e682cfffc9a149",
        "to": "0xcb0a393f175b555824ff93586351b97e5ab9471b",
        "gas": "0x12252",
        "value": "0x0",
        "input": "0xc6b0263e0000000000000000000000009a1f42b252cc0a7fedd06010c3ea35ce24a4e7790efe6a8b000000000000000000000000000000000000000000000000000000000000000000000000000000000000000000000000000000000000000000000001",
        "nonce": "0x148",
        "chainId": "0x1"
      },
      "additionalContracts": [],
      "isFixedGasLimit": false
    },
    {
      "hash": "0xd69841a884a7c7e1bb00cff33283515847df3ad0077d7dc94eaa312cb0fce60f",
      "transactionType": "CALL",
      "contractName": "RolesAuthority",
      "contractAddress": "0xcb0a393f175b555824ff93586351b97e5ab9471b",
      "function": "setPublicCapability(address,bytes4,bool)",
      "arguments": [
        "0x659c35aF4b862A93D9C1D61B4bAa6595f357dE70",
        "0xf091d785",
        "true"
      ],
      "transaction": {
        "from": "0x77b4922fcc0fa745bcd7d76025e682cfffc9a149",
        "to": "0xcb0a393f175b555824ff93586351b97e5ab9471b",
        "gas": "0x12252",
        "value": "0x0",
        "input": "0xc6b0263e000000000000000000000000659c35af4b862a93d9c1d61b4baa6595f357de70f091d785000000000000000000000000000000000000000000000000000000000000000000000000000000000000000000000000000000000000000000000001",
        "nonce": "0x149",
        "chainId": "0x1"
      },
      "additionalContracts": [],
      "isFixedGasLimit": false
    },
    {
      "hash": "0xe943fba9c45753a642546975f48281940e5d54fe556d7968cc386ca655839d9c",
      "transactionType": "CALL",
      "contractName": "RolesAuthority",
      "contractAddress": "0xcb0a393f175b555824ff93586351b97e5ab9471b",
      "function": "setPublicCapability(address,bytes4,bool)",
      "arguments": [
        "0x659c35aF4b862A93D9C1D61B4bAa6595f357dE70",
        "0x9f01f7ba",
        "true"
      ],
      "transaction": {
        "from": "0x77b4922fcc0fa745bcd7d76025e682cfffc9a149",
        "to": "0xcb0a393f175b555824ff93586351b97e5ab9471b",
        "gas": "0x12252",
        "value": "0x0",
        "input": "0xc6b0263e000000000000000000000000659c35af4b862a93d9c1d61b4baa6595f357de709f01f7ba000000000000000000000000000000000000000000000000000000000000000000000000000000000000000000000000000000000000000000000001",
        "nonce": "0x14a",
        "chainId": "0x1"
      },
      "additionalContracts": [],
      "isFixedGasLimit": false
    },
    {
      "hash": "0x8c83e4e397c88088816e4541e75d38371bb1b805605b902c49a1b99d9175548a",
      "transactionType": "CALL",
      "contractName": "RolesAuthority",
      "contractAddress": "0xcb0a393f175b555824ff93586351b97e5ab9471b",
      "function": "setUserRole(address,uint8,bool)",
      "arguments": [
        "0xbD0a20299113B29d52Fb3503ad5b3f537b896Fb3",
        "1",
        "true"
      ],
      "transaction": {
        "from": "0x77b4922fcc0fa745bcd7d76025e682cfffc9a149",
        "to": "0xcb0a393f175b555824ff93586351b97e5ab9471b",
        "gas": "0x111a6",
        "value": "0x0",
        "input": "0x67aff484000000000000000000000000bd0a20299113b29d52fb3503ad5b3f537b896fb300000000000000000000000000000000000000000000000000000000000000010000000000000000000000000000000000000000000000000000000000000001",
        "nonce": "0x14b",
        "chainId": "0x1"
      },
      "additionalContracts": [],
      "isFixedGasLimit": false
    },
    {
      "hash": "0xe3a13a2e2e453b6b0629a6c5e2dce794e93dae0d65fb0ab1b6cd743b803b72d2",
      "transactionType": "CALL",
      "contractName": "RolesAuthority",
      "contractAddress": "0xcb0a393f175b555824ff93586351b97e5ab9471b",
      "function": "setUserRole(address,uint8,bool)",
      "arguments": [
        "0x9a1f42B252cc0a7fEDD06010c3EA35ce24A4E779",
        "2",
        "true"
      ],
      "transaction": {
        "from": "0x77b4922fcc0fa745bcd7d76025e682cfffc9a149",
        "to": "0xcb0a393f175b555824ff93586351b97e5ab9471b",
        "gas": "0x111a6",
        "value": "0x0",
        "input": "0x67aff4840000000000000000000000009a1f42b252cc0a7fedd06010c3ea35ce24a4e77900000000000000000000000000000000000000000000000000000000000000020000000000000000000000000000000000000000000000000000000000000001",
        "nonce": "0x14c",
        "chainId": "0x1"
      },
      "additionalContracts": [],
      "isFixedGasLimit": false
    },
    {
      "hash": "0x259245995e26e81e5442e6efb312e67deeb8a22797c9a5ab8d20ed56de096b81",
      "transactionType": "CALL",
      "contractName": "RolesAuthority",
      "contractAddress": "0xcb0a393f175b555824ff93586351b97e5ab9471b",
      "function": "setUserRole(address,uint8,bool)",
      "arguments": [
        "0x9a1f42B252cc0a7fEDD06010c3EA35ce24A4E779",
        "3",
        "true"
      ],
      "transaction": {
        "from": "0x77b4922fcc0fa745bcd7d76025e682cfffc9a149",
        "to": "0xcb0a393f175b555824ff93586351b97e5ab9471b",
        "gas": "0xc00f",
        "value": "0x0",
        "input": "0x67aff4840000000000000000000000009a1f42b252cc0a7fedd06010c3ea35ce24a4e77900000000000000000000000000000000000000000000000000000000000000030000000000000000000000000000000000000000000000000000000000000001",
        "nonce": "0x14d",
        "chainId": "0x1"
      },
      "additionalContracts": [],
      "isFixedGasLimit": false
    },
    {
      "hash": "0xdd78d0861e89d3ce1978e0ab8c9df0cb31498ec74f1cd4f7558f27bc19517c3e",
      "transactionType": "CALL",
      "contractName": "RolesAuthority",
      "contractAddress": "0xcb0a393f175b555824ff93586351b97e5ab9471b",
      "function": "setUserRole(address,uint8,bool)",
      "arguments": [
        "0x659c35aF4b862A93D9C1D61B4bAa6595f357dE70",
        "7",
        "true"
      ],
      "transaction": {
        "from": "0x77b4922fcc0fa745bcd7d76025e682cfffc9a149",
        "to": "0xcb0a393f175b555824ff93586351b97e5ab9471b",
        "gas": "0x111a6",
        "value": "0x0",
        "input": "0x67aff484000000000000000000000000659c35af4b862a93d9c1d61b4baa6595f357de7000000000000000000000000000000000000000000000000000000000000000070000000000000000000000000000000000000000000000000000000000000001",
        "nonce": "0x14e",
        "chainId": "0x1"
      },
      "additionalContracts": [],
      "isFixedGasLimit": false
    },
    {
      "hash": "0xd2b89e56dd6bf65c5a9e1ca66238a03b7bf98a1092b6fd53229ebb1156df3f39",
      "transactionType": "CALL",
      "contractName": "RolesAuthority",
      "contractAddress": "0xcb0a393f175b555824ff93586351b97e5ab9471b",
      "function": "setUserRole(address,uint8,bool)",
      "arguments": [
        "0x77B4922Fcc0Fa745Bcd7d76025E682CFfFc9a149",
        "5",
        "true"
      ],
      "transaction": {
        "from": "0x77b4922fcc0fa745bcd7d76025e682cfffc9a149",
        "to": "0xcb0a393f175b555824ff93586351b97e5ab9471b",
        "gas": "0x111a6",
        "value": "0x0",
        "input": "0x67aff48400000000000000000000000077b4922fcc0fa745bcd7d76025e682cfffc9a14900000000000000000000000000000000000000000000000000000000000000050000000000000000000000000000000000000000000000000000000000000001",
        "nonce": "0x14f",
        "chainId": "0x1"
      },
      "additionalContracts": [],
      "isFixedGasLimit": false
    },
    {
      "hash": "0x62c98c629357a844ba93638e2ada79a0af81438ee469d7db50b563caa953a0d5",
      "transactionType": "CALL",
      "contractName": "RolesAuthority",
      "contractAddress": "0xcb0a393f175b555824ff93586351b97e5ab9471b",
      "function": "setUserRole(address,uint8,bool)",
      "arguments": [
        "0x77B4922Fcc0Fa745Bcd7d76025E682CFfFc9a149",
        "6",
        "true"
      ],
      "transaction": {
        "from": "0x77b4922fcc0fa745bcd7d76025e682cfffc9a149",
        "to": "0xcb0a393f175b555824ff93586351b97e5ab9471b",
        "gas": "0xc00f",
        "value": "0x0",
        "input": "0x67aff48400000000000000000000000077b4922fcc0fa745bcd7d76025e682cfffc9a14900000000000000000000000000000000000000000000000000000000000000060000000000000000000000000000000000000000000000000000000000000001",
        "nonce": "0x150",
        "chainId": "0x1"
      },
      "additionalContracts": [],
      "isFixedGasLimit": false
    },
    {
      "hash": "0x99ba9efb649d631afd189d06eaf5aa20691f7ae98a28078e64d8c809ffb9f26a",
      "transactionType": "CALL",
      "contractName": "TellerWithMultiAssetSupport",
      "contractAddress": "0x9a1f42b252cc0a7fedd06010c3ea35ce24a4e779",
      "function": "updateAssetData(address,bool,bool,uint16)",
      "arguments": [
        "0x4c9EDD5852cd905f086C759E8383e09bff1E68B3",
        "true",
        "true",
        "0"
      ],
      "transaction": {
        "from": "0x77b4922fcc0fa745bcd7d76025e682cfffc9a149",
        "to": "0x9a1f42b252cc0a7fedd06010c3ea35ce24a4e779",
        "gas": "0x14d13",
        "value": "0x0",
        "input": "0x8dfd8ba10000000000000000000000004c9edd5852cd905f086c759e8383e09bff1e68b3000000000000000000000000000000000000000000000000000000000000000100000000000000000000000000000000000000000000000000000000000000010000000000000000000000000000000000000000000000000000000000000000",
        "nonce": "0x151",
        "chainId": "0x1"
      },
      "additionalContracts": [],
      "isFixedGasLimit": false
    },
    {
      "hash": "0xf1c2f891c42c3bfba95b9959b4f19f728ed7699aec15273d693af3f7f00bd540",
      "transactionType": "CALL",
      "contractName": "BoringVault",
      "contractAddress": "0x324dcd943a79ff3497845479980f6bc936b8116e",
      "function": "setBeforeTransferHook(address)",
      "arguments": [
        "0x9a1f42B252cc0a7fEDD06010c3EA35ce24A4E779"
      ],
      "transaction": {
        "from": "0x77b4922fcc0fa745bcd7d76025e682cfffc9a149",
        "to": "0x324dcd943a79ff3497845479980f6bc936b8116e",
        "gas": "0x13d3b",
        "value": "0x0",
        "input": "0x8929565f0000000000000000000000009a1f42b252cc0a7fedd06010c3ea35ce24a4e779",
        "nonce": "0x152",
        "chainId": "0x1"
      },
      "additionalContracts": [],
      "isFixedGasLimit": false
    },
    {
      "hash": "0x6ba113302845b42ce4c4893afa597b0bde96829f0eb82c6dd377bdc026549228",
      "transactionType": "CALL",
      "contractName": "BoringVault",
      "contractAddress": "0x324dcd943a79ff3497845479980f6bc936b8116e",
      "function": "transferOwnership(address)",
      "arguments": [
        "0x77B4922Fcc0Fa745Bcd7d76025E682CFfFc9a149"
      ],
      "transaction": {
        "from": "0x77b4922fcc0fa745bcd7d76025e682cfffc9a149",
        "to": "0x324dcd943a79ff3497845479980f6bc936b8116e",
        "gas": "0xdb92",
        "value": "0x0",
        "input": "0xf2fde38b00000000000000000000000077b4922fcc0fa745bcd7d76025e682cfffc9a149",
        "nonce": "0x153",
        "chainId": "0x1"
      },
      "additionalContracts": [],
      "isFixedGasLimit": false
    },
    {
      "hash": "0xe8c090df893e0720066210edf64e248880be7b60b4c564a131ecb303b223e211",
      "transactionType": "CALL",
      "contractName": "AccountantWithRateProviders",
      "contractAddress": "0x04d4e50cdc047b7e36460a813075d075af59683d",
      "function": "transferOwnership(address)",
      "arguments": [
        "0x77B4922Fcc0Fa745Bcd7d76025E682CFfFc9a149"
      ],
      "transaction": {
        "from": "0x77b4922fcc0fa745bcd7d76025e682cfffc9a149",
        "to": "0x04d4e50cdc047b7e36460a813075d075af59683d",
        "gas": "0xcf85",
        "value": "0x0",
        "input": "0xf2fde38b00000000000000000000000077b4922fcc0fa745bcd7d76025e682cfffc9a149",
        "nonce": "0x154",
        "chainId": "0x1"
      },
      "additionalContracts": [],
      "isFixedGasLimit": false
    },
    {
      "hash": "0x044a46458f9af8f791385bf567afa82ad8350b57b952c821c2dde0d09537d1f0",
      "transactionType": "CALL",
      "contractName": "TellerWithMultiAssetSupport",
      "contractAddress": "0x9a1f42b252cc0a7fedd06010c3ea35ce24a4e779",
      "function": "transferOwnership(address)",
      "arguments": [
        "0x77B4922Fcc0Fa745Bcd7d76025E682CFfFc9a149"
      ],
      "transaction": {
        "from": "0x77b4922fcc0fa745bcd7d76025e682cfffc9a149",
        "to": "0x9a1f42b252cc0a7fedd06010c3ea35ce24a4e779",
        "gas": "0xdbe2",
        "value": "0x0",
        "input": "0xf2fde38b00000000000000000000000077b4922fcc0fa745bcd7d76025e682cfffc9a149",
        "nonce": "0x155",
        "chainId": "0x1"
      },
      "additionalContracts": [],
      "isFixedGasLimit": false
    },
    {
      "hash": "0x86d1cdc7c6b3d9953cc511c8f0421a98056a0b1eb5e24e0f4834d63e6f8fb5d6",
      "transactionType": "CALL",
      "contractName": "UnrestrictedManager",
      "contractAddress": "0xbd0a20299113b29d52fb3503ad5b3f537b896fb3",
      "function": "transferOwnership(address)",
      "arguments": [
        "0x77B4922Fcc0Fa745Bcd7d76025E682CFfFc9a149"
      ],
      "transaction": {
        "from": "0x77b4922fcc0fa745bcd7d76025e682cfffc9a149",
        "to": "0xbd0a20299113b29d52fb3503ad5b3f537b896fb3",
        "gas": "0xcf21",
        "value": "0x0",
        "input": "0xf2fde38b00000000000000000000000077b4922fcc0fa745bcd7d76025e682cfffc9a149",
        "nonce": "0x156",
        "chainId": "0x1"
      },
      "additionalContracts": [],
      "isFixedGasLimit": false
    },
    {
      "hash": "0xfd4f1dd410e085098fadbc7bf36811d8061a60c3f7a982aa15640df8356bfcb7",
      "transactionType": "CALL",
      "contractName": "WithdrawQueue",
      "contractAddress": "0x659c35af4b862a93d9c1d61b4baa6595f357de70",
      "function": "transferOwnership(address)",
      "arguments": [
        "0x77B4922Fcc0Fa745Bcd7d76025E682CFfFc9a149"
      ],
      "transaction": {
        "from": "0x77b4922fcc0fa745bcd7d76025e682cfffc9a149",
        "to": "0x659c35af4b862a93d9c1d61b4baa6595f357de70",
        "gas": "0xcf46",
        "value": "0x0",
        "input": "0xf2fde38b00000000000000000000000077b4922fcc0fa745bcd7d76025e682cfffc9a149",
        "nonce": "0x157",
        "chainId": "0x1"
      },
      "additionalContracts": [],
      "isFixedGasLimit": false
    },
    {
      "hash": "0x587c195799ed99bbed0f5af53860b11ec6d16256bf53d3ba791f361d3fe8a6ec",
      "transactionType": "CALL",
      "contractName": "RolesAuthority",
      "contractAddress": "0xcb0a393f175b555824ff93586351b97e5ab9471b",
      "function": "transferOwnership(address)",
      "arguments": [
        "0x77B4922Fcc0Fa745Bcd7d76025E682CFfFc9a149"
      ],
      "transaction": {
        "from": "0x77b4922fcc0fa745bcd7d76025e682cfffc9a149",
        "to": "0xcb0a393f175b555824ff93586351b97e5ab9471b",
        "gas": "0x9703",
        "value": "0x0",
        "input": "0xf2fde38b00000000000000000000000077b4922fcc0fa745bcd7d76025e682cfffc9a149",
        "nonce": "0x158",
        "chainId": "0x1"
      },
      "additionalContracts": [],
      "isFixedGasLimit": false
    }
  ],
  "receipts": [
    {
      "status": "0x1",
      "cumulativeGasUsed": "0x357852f",
      "logs": [
        {
          "address": "0xcb0a393f175b555824ff93586351b97e5ab9471b",
          "topics": [
            "0x8be0079c531659141344cd1fd0a4f28419497f9722a3daafe3b4186f6b6457e0",
            "0x00000000000000000000000077b4922fcc0fa745bcd7d76025e682cfffc9a149",
            "0x00000000000000000000000077b4922fcc0fa745bcd7d76025e682cfffc9a149"
          ],
          "data": "0x",
          "blockHash": "0xbcd4b7b059d97eaace4fb916a666d3b5fbee20233e4034d07c7650f31df14acf",
          "blockNumber": "0x175d84b",
          "blockTimestamp": "0x6998bc97",
          "transactionHash": "0x9986e5b794d4857202464eb2b85cda6535c2d9c3a9784652f73f206ab0dc921c",
          "transactionIndex": "0x1b3",
          "logIndex": "0x381",
          "removed": false
        },
        {
          "address": "0xcb0a393f175b555824ff93586351b97e5ab9471b",
          "topics": [
            "0xa3396fd7f6e0a21b50e5089d2da70d5ac0a3bbbd1f617a93f134b76389980198",
            "0x00000000000000000000000077b4922fcc0fa745bcd7d76025e682cfffc9a149",
            "0x0000000000000000000000000000000000000000000000000000000000000000"
          ],
          "data": "0x",
          "blockHash": "0xbcd4b7b059d97eaace4fb916a666d3b5fbee20233e4034d07c7650f31df14acf",
          "blockNumber": "0x175d84b",
          "blockTimestamp": "0x6998bc97",
          "transactionHash": "0x9986e5b794d4857202464eb2b85cda6535c2d9c3a9784652f73f206ab0dc921c",
          "transactionIndex": "0x1b3",
          "logIndex": "0x382",
          "removed": false
        }
      ],
      "logsBloom": "0x10000000000000000000000000000000000000000000000000800000000000000000000000000000000090000000000000100000000000000000000100000000000000000000000040000000000000000001000000000000000000000000000000000000020000000000000000000800000000000000000000000000000000400000000000000000000000000000000000000000000000000000000000000001000000000000000000000000000000000000000000000000000000000000000000000000000000000000000000000000000000000000000000000000000020000000000000000000000000000000000000000040000000000000000000000020",
      "type": "0x2",
      "transactionHash": "0x9986e5b794d4857202464eb2b85cda6535c2d9c3a9784652f73f206ab0dc921c",
      "transactionIndex": "0x1b3",
      "blockHash": "0xbcd4b7b059d97eaace4fb916a666d3b5fbee20233e4034d07c7650f31df14acf",
      "blockNumber": "0x175d84b",
      "gasUsed": "0x9eeee",
      "effectiveGasPrice": "0x2422577",
      "from": "0x77b4922fcc0fa745bcd7d76025e682cfffc9a149",
      "to": null,
      "contractAddress": "0xcb0a393f175b555824ff93586351b97e5ab9471b"
    },
    {
      "status": "0x1",
      "cumulativeGasUsed": "0x11f92b7",
      "logs": [
        {
          "address": "0x324dcd943a79ff3497845479980f6bc936b8116e",
          "topics": [
            "0x8be0079c531659141344cd1fd0a4f28419497f9722a3daafe3b4186f6b6457e0",
            "0x00000000000000000000000077b4922fcc0fa745bcd7d76025e682cfffc9a149",
            "0x00000000000000000000000077b4922fcc0fa745bcd7d76025e682cfffc9a149"
          ],
          "data": "0x",
          "blockHash": "0xdc6abb1c404b07764858bdfbd6c40387ab061eaafc8e884c9e0600fad69efbba",
          "blockNumber": "0x175d84d",
          "blockTimestamp": "0x6998bcaf",
          "transactionHash": "0xd0dadd9e0f0fdff48fa06d56a5dbdbdb74ef84a3b1ed987a712ea5085de157d6",
          "transactionIndex": "0x5b",
          "logIndex": "0x172",
          "removed": false
        },
        {
          "address": "0x324dcd943a79ff3497845479980f6bc936b8116e",
          "topics": [
            "0xa3396fd7f6e0a21b50e5089d2da70d5ac0a3bbbd1f617a93f134b76389980198",
            "0x00000000000000000000000077b4922fcc0fa745bcd7d76025e682cfffc9a149",
            "0x0000000000000000000000000000000000000000000000000000000000000000"
          ],
          "data": "0x",
          "blockHash": "0xdc6abb1c404b07764858bdfbd6c40387ab061eaafc8e884c9e0600fad69efbba",
          "blockNumber": "0x175d84d",
          "blockTimestamp": "0x6998bcaf",
          "transactionHash": "0xd0dadd9e0f0fdff48fa06d56a5dbdbdb74ef84a3b1ed987a712ea5085de157d6",
          "transactionIndex": "0x5b",
          "logIndex": "0x173",
          "removed": false
        }
      ],
      "logsBloom": "0x00000400000000000000000000000000000000000000000000800000000000000000000000000000000010000000000000100000000000000000000100000000000000000000200000000000000000000001000000000000000000000000000000000000020000000000000000000800000000000000000000000000000000400000000000000000000000000000000000000000000000000000000000000001000000000000000000000000000000000000000000000000000000000000000000000000000000000000000000000000000000000000000000000000000020000080000000000000000000000000000000000040000000000000000000000020",
      "type": "0x2",
      "transactionHash": "0xd0dadd9e0f0fdff48fa06d56a5dbdbdb74ef84a3b1ed987a712ea5085de157d6",
      "transactionIndex": "0x5b",
      "blockHash": "0xdc6abb1c404b07764858bdfbd6c40387ab061eaafc8e884c9e0600fad69efbba",
      "blockNumber": "0x175d84d",
      "gasUsed": "0x1b0ae4",
      "effectiveGasPrice": "0x28aa290",
      "from": "0x77b4922fcc0fa745bcd7d76025e682cfffc9a149",
      "to": null,
      "contractAddress": "0x324dcd943a79ff3497845479980f6bc936b8116e"
    },
    {
      "status": "0x1",
      "cumulativeGasUsed": "0x1531a96",
      "logs": [
        {
          "address": "0x04d4e50cdc047b7e36460a813075d075af59683d",
          "topics": [
            "0x8be0079c531659141344cd1fd0a4f28419497f9722a3daafe3b4186f6b6457e0",
            "0x00000000000000000000000077b4922fcc0fa745bcd7d76025e682cfffc9a149",
            "0x00000000000000000000000077b4922fcc0fa745bcd7d76025e682cfffc9a149"
          ],
          "data": "0x",
          "blockHash": "0xfbb302a0b4bd96161988b197c843f2605e15a222ca8c92ed7e8b0e9e56585c67",
          "blockNumber": "0x175d84e",
          "blockTimestamp": "0x6998bcbb",
          "transactionHash": "0x348831be09d70df18563935071c07bd1418501ba0c6b8fa5a637f2e239216ee6",
          "transactionIndex": "0xe3",
          "logIndex": "0x1a2",
          "removed": false
        },
        {
          "address": "0x04d4e50cdc047b7e36460a813075d075af59683d",
          "topics": [
            "0xa3396fd7f6e0a21b50e5089d2da70d5ac0a3bbbd1f617a93f134b76389980198",
            "0x00000000000000000000000077b4922fcc0fa745bcd7d76025e682cfffc9a149",
            "0x0000000000000000000000000000000000000000000000000000000000000000"
          ],
          "data": "0x",
          "blockHash": "0xfbb302a0b4bd96161988b197c843f2605e15a222ca8c92ed7e8b0e9e56585c67",
          "blockNumber": "0x175d84e",
          "blockTimestamp": "0x6998bcbb",
          "transactionHash": "0x348831be09d70df18563935071c07bd1418501ba0c6b8fa5a637f2e239216ee6",
          "transactionIndex": "0xe3",
          "logIndex": "0x1a3",
          "removed": false
        }
      ],
      "logsBloom": "0x00000000000000000000000000000040000000000000000000800000008000000000000000000000000010000000000000100000000000000000000100000000000000000000000000000000000000000001000000000000000000000000000000000000020000000000000000000800000000000000000000000000000000400000000000000000000000000000000000000000000000000000000000000001000000000000000000000000000000000000000000000000000000000000000000000000000000000000000000000000000000000000000000000000000020000000000000000000000000040000000000000040000000000000000000000020",
      "type": "0x2",
      "transactionHash": "0x348831be09d70df18563935071c07bd1418501ba0c6b8fa5a637f2e239216ee6",
      "transactionIndex": "0xe3",
      "blockHash": "0xfbb302a0b4bd96161988b197c843f2605e15a222ca8c92ed7e8b0e9e56585c67",
      "blockNumber": "0x175d84e",
      "gasUsed": "0x1c896a",
      "effectiveGasPrice": "0x2ab50c5",
      "from": "0x77b4922fcc0fa745bcd7d76025e682cfffc9a149",
      "to": null,
      "contractAddress": "0x04d4e50cdc047b7e36460a813075d075af59683d"
    },
    {
      "status": "0x1",
      "cumulativeGasUsed": "0x1a6e62a",
      "logs": [
        {
          "address": "0x9a1f42b252cc0a7fedd06010c3ea35ce24a4e779",
          "topics": [
            "0x8be0079c531659141344cd1fd0a4f28419497f9722a3daafe3b4186f6b6457e0",
            "0x00000000000000000000000077b4922fcc0fa745bcd7d76025e682cfffc9a149",
            "0x00000000000000000000000077b4922fcc0fa745bcd7d76025e682cfffc9a149"
          ],
          "data": "0x",
          "blockHash": "0x5bc2064349011aa9a43ee7f0bbf4722a19e3e3f9e89fc525ef3c1bd6f6daf73e",
          "blockNumber": "0x175d84f",
          "blockTimestamp": "0x6998bcc7",
          "transactionHash": "0xf2ccf6b08ab8da5dfbdbafa9a6c01d625e68ae4add50ba3d757756d694815de0",
          "transactionIndex": "0xc2",
          "logIndex": "0x252",
          "removed": false
        },
        {
          "address": "0x9a1f42b252cc0a7fedd06010c3ea35ce24a4e779",
          "topics": [
            "0xa3396fd7f6e0a21b50e5089d2da70d5ac0a3bbbd1f617a93f134b76389980198",
            "0x00000000000000000000000077b4922fcc0fa745bcd7d76025e682cfffc9a149",
            "0x0000000000000000000000000000000000000000000000000000000000000000"
          ],
          "data": "0x",
          "blockHash": "0x5bc2064349011aa9a43ee7f0bbf4722a19e3e3f9e89fc525ef3c1bd6f6daf73e",
          "blockNumber": "0x175d84f",
          "blockTimestamp": "0x6998bcc7",
          "transactionHash": "0xf2ccf6b08ab8da5dfbdbafa9a6c01d625e68ae4add50ba3d757756d694815de0",
          "transactionIndex": "0xc2",
          "logIndex": "0x253",
          "removed": false
        }
      ],
      "logsBloom": "0x00000400000000000000000000000000000000000000000000800000000000000000000000000000000010000000000000100000000000000000000100000000000000000000000000000000000000000001000000000000000000000000000000000000020000000000000000000800000000100000000000000000000000400000000000000000000000000000000000000000000000000000000000000001000000000000000000000000000000000000000000000000000000000000000000000000000000000000000000000000000000000000000000000000000020000000000000000000000000000000000000000048000000000000000000000020",
      "type": "0x2",
      "transactionHash": "0xf2ccf6b08ab8da5dfbdbafa9a6c01d625e68ae4add50ba3d757756d694815de0",
      "transactionIndex": "0xc2",
      "blockHash": "0x5bc2064349011aa9a43ee7f0bbf4722a19e3e3f9e89fc525ef3c1bd6f6daf73e",
      "blockNumber": "0x175d84f",
      "gasUsed": "0x1fb511",
      "effectiveGasPrice": "0x2af5eaf",
      "from": "0x77b4922fcc0fa745bcd7d76025e682cfffc9a149",
      "to": null,
      "contractAddress": "0x9a1f42b252cc0a7fedd06010c3ea35ce24a4e779"
    },
    {
      "status": "0x1",
      "cumulativeGasUsed": "0xaaab20",
      "logs": [
        {
          "address": "0xbd0a20299113b29d52fb3503ad5b3f537b896fb3",
          "topics": [
            "0x8be0079c531659141344cd1fd0a4f28419497f9722a3daafe3b4186f6b6457e0",
            "0x00000000000000000000000077b4922fcc0fa745bcd7d76025e682cfffc9a149",
            "0x00000000000000000000000077b4922fcc0fa745bcd7d76025e682cfffc9a149"
          ],
          "data": "0x",
          "blockHash": "0xdb23bc6cb40aeee257dc32e47956bd0c0d6341946c7c48bad7f35bdcce59d87c",
          "blockNumber": "0x175d850",
          "blockTimestamp": "0x6998bcd3",
          "transactionHash": "0x019386bf6a95c3bc4617d6e08f36049009f571ed01f10ddf40c76c597762a655",
          "transactionIndex": "0x86",
          "logIndex": "0x10f",
          "removed": false
        },
        {
          "address": "0xbd0a20299113b29d52fb3503ad5b3f537b896fb3",
          "topics": [
            "0xa3396fd7f6e0a21b50e5089d2da70d5ac0a3bbbd1f617a93f134b76389980198",
            "0x00000000000000000000000077b4922fcc0fa745bcd7d76025e682cfffc9a149",
            "0x000000000000000000000000cb0a393f175b555824ff93586351b97e5ab9471b"
          ],
          "data": "0x",
          "blockHash": "0xdb23bc6cb40aeee257dc32e47956bd0c0d6341946c7c48bad7f35bdcce59d87c",
          "blockNumber": "0x175d850",
          "blockTimestamp": "0x6998bcd3",
          "transactionHash": "0x019386bf6a95c3bc4617d6e08f36049009f571ed01f10ddf40c76c597762a655",
          "transactionIndex": "0x86",
          "logIndex": "0x110",
          "removed": false
        }
      ],
      "logsBloom": "0x00000000000000000000000000000000000000000400000000840000000000000000000000000000000010000000000000108000000000000000000100000000000000000000000000000000000000000001000000000000000000000000000000000000000000000000000000000000000000000000000000000000000000400000000000000000000000010000000000000000000000000000000000020001000000000000000000000000000000000000000000000000000000000000000000000000000000000000000000000000000000000000000000000000000000000000000000000000000000000000000000000040040000000000000000000020",
      "type": "0x2",
      "transactionHash": "0x019386bf6a95c3bc4617d6e08f36049009f571ed01f10ddf40c76c597762a655",
      "transactionIndex": "0x86",
      "blockHash": "0xdb23bc6cb40aeee257dc32e47956bd0c0d6341946c7c48bad7f35bdcce59d87c",
      "blockNumber": "0x175d850",
      "gasUsed": "0xb0344",
      "effectiveGasPrice": "0x2bb725d",
      "from": "0x77b4922fcc0fa745bcd7d76025e682cfffc9a149",
      "to": null,
      "contractAddress": "0xbd0a20299113b29d52fb3503ad5b3f537b896fb3"
    },
    {
      "status": "0x1",
      "cumulativeGasUsed": "0xdc3ae9",
      "logs": [
        {
          "address": "0x659c35af4b862a93d9c1d61b4baa6595f357de70",
          "topics": [
            "0x8be0079c531659141344cd1fd0a4f28419497f9722a3daafe3b4186f6b6457e0",
            "0x00000000000000000000000077b4922fcc0fa745bcd7d76025e682cfffc9a149",
            "0x00000000000000000000000077b4922fcc0fa745bcd7d76025e682cfffc9a149"
          ],
          "data": "0x",
          "blockHash": "0xdb23bc6cb40aeee257dc32e47956bd0c0d6341946c7c48bad7f35bdcce59d87c",
          "blockNumber": "0x175d850",
          "blockTimestamp": "0x6998bcd3",
          "transactionHash": "0xf45fb9339bf45da6299e990c8e7f9efecab2bfa9fb5031f96c2f9b91db93f286",
          "transactionIndex": "0x91",
          "logIndex": "0x165",
          "removed": false
        },
        {
          "address": "0x659c35af4b862a93d9c1d61b4baa6595f357de70",
          "topics": [
            "0xa3396fd7f6e0a21b50e5089d2da70d5ac0a3bbbd1f617a93f134b76389980198",
            "0x00000000000000000000000077b4922fcc0fa745bcd7d76025e682cfffc9a149",
            "0x000000000000000000000000cb0a393f175b555824ff93586351b97e5ab9471b"
          ],
          "data": "0x",
          "blockHash": "0xdb23bc6cb40aeee257dc32e47956bd0c0d6341946c7c48bad7f35bdcce59d87c",
          "blockNumber": "0x175d850",
          "blockTimestamp": "0x6998bcd3",
          "transactionHash": "0xf45fb9339bf45da6299e990c8e7f9efecab2bfa9fb5031f96c2f9b91db93f286",
          "transactionIndex": "0x91",
          "logIndex": "0x166",
          "removed": false
        }
      ],
      "logsBloom": "0x00000000000000000000000000000000000000000000000000800000000000000400000000000000000010000000000000108000000000020000000100000000000000000000000000000000000000000001000000000000000000000000000000000000000000000000000000000000000000000000000000000000000000400000000000000000000000010000000000000000000000000000000000020001000000000000002000000000000000000000000000000000000000000000000000000000000000000000000000000000000000000000000000000000000000000000000000000000000000000000000000000040000000000000000000000020",
      "type": "0x2",
      "transactionHash": "0xf45fb9339bf45da6299e990c8e7f9efecab2bfa9fb5031f96c2f9b91db93f286",
      "transactionIndex": "0x91",
      "blockHash": "0xdb23bc6cb40aeee257dc32e47956bd0c0d6341946c7c48bad7f35bdcce59d87c",
      "blockNumber": "0x175d850",
      "gasUsed": "0x101097",
      "effectiveGasPrice": "0x2bb725d",
      "from": "0x77b4922fcc0fa745bcd7d76025e682cfffc9a149",
      "to": null,
      "contractAddress": "0x659c35af4b862a93d9c1d61b4baa6595f357de70"
    },
    {
      "status": "0x1",
      "cumulativeGasUsed": "0xdcf52a",
      "logs": [
        {
          "address": "0x324dcd943a79ff3497845479980f6bc936b8116e",
          "topics": [
            "0xa3396fd7f6e0a21b50e5089d2da70d5ac0a3bbbd1f617a93f134b76389980198",
            "0x00000000000000000000000077b4922fcc0fa745bcd7d76025e682cfffc9a149",
            "0x000000000000000000000000cb0a393f175b555824ff93586351b97e5ab9471b"
          ],
          "data": "0x",
          "blockHash": "0xdb23bc6cb40aeee257dc32e47956bd0c0d6341946c7c48bad7f35bdcce59d87c",
          "blockNumber": "0x175d850",
          "blockTimestamp": "0x6998bcd3",
          "transactionHash": "0xdb7549a39e2ee6c1e761db09f003cfa82f3958b0abd0092bd8176f87c928f543",
          "transactionIndex": "0x92",
          "logIndex": "0x167",
          "removed": false
        }
      ],
      "logsBloom": "0x00000400000000000000000000000000000000000000000000000000000000000000000000000000000010000000000000108000000000000000000100000000000000000000200000000000000000000000000000000000000000000000000000000000000000000000000000000000000000000000000000000000000000000000000000000000000000010000000000000000000000000000000000020001000000000000000000000000000000000000000000000000000000000000000000000000000000000000000000000000000000000000000000000000000000000080000000000000000000000000000000000040000000000000000000000020",
      "type": "0x2",
      "transactionHash": "0xdb7549a39e2ee6c1e761db09f003cfa82f3958b0abd0092bd8176f87c928f543",
      "transactionIndex": "0x92",
      "blockHash": "0xdb23bc6cb40aeee257dc32e47956bd0c0d6341946c7c48bad7f35bdcce59d87c",
      "blockNumber": "0x175d850",
      "gasUsed": "0xba41",
      "effectiveGasPrice": "0x2bb725d",
      "from": "0x77b4922fcc0fa745bcd7d76025e682cfffc9a149",
      "to": "0x324dcd943a79ff3497845479980f6bc936b8116e",
      "contractAddress": null
    },
    {
      "status": "0x1",
      "cumulativeGasUsed": "0x13ffa2e",
      "logs": [
        {
          "address": "0x04d4e50cdc047b7e36460a813075d075af59683d",
          "topics": [
            "0xa3396fd7f6e0a21b50e5089d2da70d5ac0a3bbbd1f617a93f134b76389980198",
            "0x00000000000000000000000077b4922fcc0fa745bcd7d76025e682cfffc9a149",
            "0x000000000000000000000000cb0a393f175b555824ff93586351b97e5ab9471b"
          ],
          "data": "0x",
          "blockHash": "0xdb23bc6cb40aeee257dc32e47956bd0c0d6341946c7c48bad7f35bdcce59d87c",
          "blockNumber": "0x175d850",
          "blockTimestamp": "0x6998bcd3",
          "transactionHash": "0xfaa7577ed1ded5539eef733925d0e1ff766600ccc513910540e20c02f96e015b",
          "transactionIndex": "0xc9",
          "logIndex": "0x1eb",
          "removed": false
        }
      ],
      "logsBloom": "0x00000000000000000000000000000040000000000000000000000000008000000000000000000000000010000000000000108000000000000000000100000000000000000000000000000000000000000000000000000000000000000000000000000000000000000000000000000000000000000000000000000000000000000000000000000000000000010000000000000000000000000000000000020001000000000000000000000000000000000000000000000000000000000000000000000000000000000000000000000000000000000000000000000000000000000000000000000000000000040000000000000040000000000000000000000020",
      "type": "0x2",
      "transactionHash": "0xfaa7577ed1ded5539eef733925d0e1ff766600ccc513910540e20c02f96e015b",
      "transactionIndex": "0xc9",
      "blockHash": "0xdb23bc6cb40aeee257dc32e47956bd0c0d6341946c7c48bad7f35bdcce59d87c",
      "blockNumber": "0x175d850",
      "gasUsed": "0xba40",
      "effectiveGasPrice": "0x2bb725d",
      "from": "0x77b4922fcc0fa745bcd7d76025e682cfffc9a149",
      "to": "0x04d4e50cdc047b7e36460a813075d075af59683d",
      "contractAddress": null
    },
    {
      "status": "0x1",
      "cumulativeGasUsed": "0x140b443",
      "logs": [
        {
          "address": "0x9a1f42b252cc0a7fedd06010c3ea35ce24a4e779",
          "topics": [
            "0xa3396fd7f6e0a21b50e5089d2da70d5ac0a3bbbd1f617a93f134b76389980198",
            "0x00000000000000000000000077b4922fcc0fa745bcd7d76025e682cfffc9a149",
            "0x000000000000000000000000cb0a393f175b555824ff93586351b97e5ab9471b"
          ],
          "data": "0x",
          "blockHash": "0xdb23bc6cb40aeee257dc32e47956bd0c0d6341946c7c48bad7f35bdcce59d87c",
          "blockNumber": "0x175d850",
          "blockTimestamp": "0x6998bcd3",
          "transactionHash": "0x7842c1b85599f379870db3e54b5ba97ef979bca733806324b63c0b1fab000f2b",
          "transactionIndex": "0xca",
          "logIndex": "0x1ec",
          "removed": false
        }
      ],
      "logsBloom": "0x00000400000000000000000000000000000000000000000000000000000000000000000000000000000010000000000000108000000000000000000100000000000000000000000000000000000000000000000000000000000000000000000000000000000000000000000000000000000000100000000000000000000000000000000000000000000000010000000000000000000000000000000000020001000000000000000000000000000000000000000000000000000000000000000000000000000000000000000000000000000000000000000000000000000000000000000000000000000000000000000000000048000000000000000000000020",
      "type": "0x2",
      "transactionHash": "0x7842c1b85599f379870db3e54b5ba97ef979bca733806324b63c0b1fab000f2b",
      "transactionIndex": "0xca",
      "blockHash": "0xdb23bc6cb40aeee257dc32e47956bd0c0d6341946c7c48bad7f35bdcce59d87c",
      "blockNumber": "0x175d850",
      "gasUsed": "0xba15",
      "effectiveGasPrice": "0x2bb725d",
      "from": "0x77b4922fcc0fa745bcd7d76025e682cfffc9a149",
      "to": "0x9a1f42b252cc0a7fedd06010c3ea35ce24a4e779",
      "contractAddress": null
    },
    {
      "status": "0x1",
      "cumulativeGasUsed": "0x1417da6",
      "logs": [
        {
          "address": "0xcb0a393f175b555824ff93586351b97e5ab9471b",
          "topics": [
            "0xa52ea92e6e955aa8ac66420b86350f7139959adfcc7e6a14eee1bd116d09860e",
            "0x0000000000000000000000000000000000000000000000000000000000000001",
            "0x000000000000000000000000324dcd943a79ff3497845479980f6bc936b8116e",
            "0xf6e715d000000000000000000000000000000000000000000000000000000000"
          ],
          "data": "0x0000000000000000000000000000000000000000000000000000000000000001",
          "blockHash": "0xdb23bc6cb40aeee257dc32e47956bd0c0d6341946c7c48bad7f35bdcce59d87c",
          "blockNumber": "0x175d850",
          "blockTimestamp": "0x6998bcd3",
          "transactionHash": "0x3f1a50b960c33f3c7c19fb62d0ecad61334a7565db5bc42a385bc2879a137bef",
          "transactionIndex": "0xcb",
          "logIndex": "0x1ed",
          "removed": false
        }
      ],
      "logsBloom": "0x10000000000000000000000000080000000000000000000000000000000000000000000000000000000080000000000000000000000000000000000000040000000000000000000040000000000000000000000000040000000000000000000000000000000000000000000000000000000008000000080000000000000000000000000000000000020000000000000000000000010000000000000000000000000000000000000000000000000000000000000000000000000000000000000000000000000000000800000000080000000000000000000000000001000040000000000000000002000000000000000000000000000000000000000000000000",
      "type": "0x2",
      "transactionHash": "0x3f1a50b960c33f3c7c19fb62d0ecad61334a7565db5bc42a385bc2879a137bef",
      "transactionIndex": "0xcb",
      "blockHash": "0xdb23bc6cb40aeee257dc32e47956bd0c0d6341946c7c48bad7f35bdcce59d87c",
      "blockNumber": "0x175d850",
      "gasUsed": "0xc963",
      "effectiveGasPrice": "0x2bb725d",
      "from": "0x77b4922fcc0fa745bcd7d76025e682cfffc9a149",
      "to": "0xcb0a393f175b555824ff93586351b97e5ab9471b",
      "contractAddress": null
    },
    {
      "status": "0x1",
      "cumulativeGasUsed": "0x1424709",
      "logs": [
        {
          "address": "0xcb0a393f175b555824ff93586351b97e5ab9471b",
          "topics": [
            "0xa52ea92e6e955aa8ac66420b86350f7139959adfcc7e6a14eee1bd116d09860e",
            "0x0000000000000000000000000000000000000000000000000000000000000001",
            "0x000000000000000000000000324dcd943a79ff3497845479980f6bc936b8116e",
            "0x224d870300000000000000000000000000000000000000000000000000000000"
          ],
          "data": "0x0000000000000000000000000000000000000000000000000000000000000001",
          "blockHash": "0xdb23bc6cb40aeee257dc32e47956bd0c0d6341946c7c48bad7f35bdcce59d87c",
          "blockNumber": "0x175d850",
          "blockTimestamp": "0x6998bcd3",
          "transactionHash": "0xdbaccc0fe304db7f003689c87dd43e463192fd6e548417d0247219f9336fc627",
          "transactionIndex": "0xcc",
          "logIndex": "0x1ee",
          "removed": false
        }
      ],
      "logsBloom": "0x10000000000000000000000000080000000000000000000000000000000000000000000002000000000080000000000000000000000000000080000000040000000000000000000040000000000000000000000000040000000008000000000000000000000000000000000000000000000008000000080000000000000000000000000000000000000000000000000000000000010000000000000000000000000000000000000000000000000000000000000000000000000000000000000000000000000000000000000000080000000000000000000000000001000040000000000000000000000000000000000000000000000000000000000000000000",
      "type": "0x2",
      "transactionHash": "0xdbaccc0fe304db7f003689c87dd43e463192fd6e548417d0247219f9336fc627",
      "transactionIndex": "0xcc",
      "blockHash": "0xdb23bc6cb40aeee257dc32e47956bd0c0d6341946c7c48bad7f35bdcce59d87c",
      "blockNumber": "0x175d850",
      "gasUsed": "0xc963",
      "effectiveGasPrice": "0x2bb725d",
      "from": "0x77b4922fcc0fa745bcd7d76025e682cfffc9a149",
      "to": "0xcb0a393f175b555824ff93586351b97e5ab9471b",
      "contractAddress": null
    },
    {
      "status": "0x1",
      "cumulativeGasUsed": "0x143106c",
      "logs": [
        {
          "address": "0xcb0a393f175b555824ff93586351b97e5ab9471b",
          "topics": [
            "0xa52ea92e6e955aa8ac66420b86350f7139959adfcc7e6a14eee1bd116d09860e",
            "0x0000000000000000000000000000000000000000000000000000000000000002",
            "0x000000000000000000000000324dcd943a79ff3497845479980f6bc936b8116e",
            "0x39d6ba3200000000000000000000000000000000000000000000000000000000"
          ],
          "data": "0x0000000000000000000000000000000000000000000000000000000000000001",
          "blockHash": "0xdb23bc6cb40aeee257dc32e47956bd0c0d6341946c7c48bad7f35bdcce59d87c",
          "blockNumber": "0x175d850",
          "blockTimestamp": "0x6998bcd3",
          "transactionHash": "0x446b381d2dcb3f689aca4e27242dbd91d4c7f0f7b4460e2769038eeb59d0379b",
          "transactionIndex": "0xcd",
          "logIndex": "0x1ef",
          "removed": false
        }
      ],
      "logsBloom": "0x14000000000000000000000000080000000000000000020000000000000000000000000000000000000080000000000000000000000020000000000000000000000000000000000040000000000000000000000000000000000000000000000000000000000000000000000000000000000008000000080000000000000000000000000000000000000000000000000000000000010000000000000000000000000000000000000000000100000000000000000000000000000000000000000000000000000000000000000000080000000000000000000000000005000000000000000000000000000000000000000000000000008000000000000000000000",
      "type": "0x2",
      "transactionHash": "0x446b381d2dcb3f689aca4e27242dbd91d4c7f0f7b4460e2769038eeb59d0379b",
      "transactionIndex": "0xcd",
      "blockHash": "0xdb23bc6cb40aeee257dc32e47956bd0c0d6341946c7c48bad7f35bdcce59d87c",
      "blockNumber": "0x175d850",
      "gasUsed": "0xc963",
      "effectiveGasPrice": "0x2bb725d",
      "from": "0x77b4922fcc0fa745bcd7d76025e682cfffc9a149",
      "to": "0xcb0a393f175b555824ff93586351b97e5ab9471b",
      "contractAddress": null
    },
    {
      "status": "0x1",
      "cumulativeGasUsed": "0x143d9cf",
      "logs": [
        {
          "address": "0xcb0a393f175b555824ff93586351b97e5ab9471b",
          "topics": [
            "0xa52ea92e6e955aa8ac66420b86350f7139959adfcc7e6a14eee1bd116d09860e",
            "0x0000000000000000000000000000000000000000000000000000000000000003",
            "0x000000000000000000000000324dcd943a79ff3497845479980f6bc936b8116e",
            "0x18457e6100000000000000000000000000000000000000000000000000000000"
          ],
          "data": "0x0000000000000000000000000000000000000000000000000000000000000001",
          "blockHash": "0xdb23bc6cb40aeee257dc32e47956bd0c0d6341946c7c48bad7f35bdcce59d87c",
          "blockNumber": "0x175d850",
          "blockTimestamp": "0x6998bcd3",
          "transactionHash": "0xf05e0afddaf41df1502636342e81a6ad89d23293d8a91cf9f7300a590469a08c",
          "transactionIndex": "0xce",
          "logIndex": "0x1f0",
          "removed": false
        }
      ],
      "logsBloom": "0x10000000000000000000000000080000000000000000000000000000000000000000000000000000000080000000000000000000020000000000000000000000000000000000000040000000000000000000000000000000000000000000000000000000000000000000000000000000000008000000080000000000000000000000000000000000000000000000000000000000010000000000000000000000000000020000000000000000000000000000000000800000000000000000400000000000000000000000000000080000000800000000000000000001000000000000000000000000000000000000000000000000000000000000000000000000",
      "type": "0x2",
      "transactionHash": "0xf05e0afddaf41df1502636342e81a6ad89d23293d8a91cf9f7300a590469a08c",
      "transactionIndex": "0xce",
      "blockHash": "0xdb23bc6cb40aeee257dc32e47956bd0c0d6341946c7c48bad7f35bdcce59d87c",
      "blockNumber": "0x175d850",
      "gasUsed": "0xc963",
      "effectiveGasPrice": "0x2bb725d",
      "from": "0x77b4922fcc0fa745bcd7d76025e682cfffc9a149",
      "to": "0xcb0a393f175b555824ff93586351b97e5ab9471b",
      "contractAddress": null
    },
    {
      "status": "0x1",
      "cumulativeGasUsed": "0x144a332",
      "logs": [
        {
          "address": "0xcb0a393f175b555824ff93586351b97e5ab9471b",
          "topics": [
            "0xa52ea92e6e955aa8ac66420b86350f7139959adfcc7e6a14eee1bd116d09860e",
            "0x0000000000000000000000000000000000000000000000000000000000000004",
            "0x000000000000000000000000bd0a20299113b29d52fb3503ad5b3f537b896fb3",
            "0x0a3e111c00000000000000000000000000000000000000000000000000000000"
          ],
          "data": "0x0000000000000000000000000000000000000000000000000000000000000001",
          "blockHash": "0xdb23bc6cb40aeee257dc32e47956bd0c0d6341946c7c48bad7f35bdcce59d87c",
          "blockNumber": "0x175d850",
          "blockTimestamp": "0x6998bcd3",
          "transactionHash": "0x3900954901fe9c0f68878d7976dc97aefc9b85600c28a5205d314305d1445201",
          "transactionIndex": "0xcf",
          "logIndex": "0x1f1",
          "removed": false
        }
      ],
      "logsBloom": "0x10000000000020000000000000000000000000000000000000000000000000000000000000000000000080000000000000000000000000000000000000000000000000000000000040000000000000000000000000000000000000000000000008000000000000000000000001000000000000000000080000000000000000000000000000000000000000000000000000000000010000000000000000000000000400000000000000000000000000000000000000000000002000048800000000000000000000000000000000080000000000008000000000000000000000000000000000000000000000000000000000000000000000000000000000000000",
      "type": "0x2",
      "transactionHash": "0x3900954901fe9c0f68878d7976dc97aefc9b85600c28a5205d314305d1445201",
      "transactionIndex": "0xcf",
      "blockHash": "0xdb23bc6cb40aeee257dc32e47956bd0c0d6341946c7c48bad7f35bdcce59d87c",
      "blockNumber": "0x175d850",
      "gasUsed": "0xc963",
      "effectiveGasPrice": "0x2bb725d",
      "from": "0x77b4922fcc0fa745bcd7d76025e682cfffc9a149",
      "to": "0xcb0a393f175b555824ff93586351b97e5ab9471b",
      "contractAddress": null
    },
    {
      "status": "0x1",
      "cumulativeGasUsed": "0x1456c95",
      "logs": [
        {
          "address": "0xcb0a393f175b555824ff93586351b97e5ab9471b",
          "topics": [
            "0xa52ea92e6e955aa8ac66420b86350f7139959adfcc7e6a14eee1bd116d09860e",
            "0x0000000000000000000000000000000000000000000000000000000000000004",
            "0x000000000000000000000000bd0a20299113b29d52fb3503ad5b3f537b896fb3",
            "0x95bfa68a00000000000000000000000000000000000000000000000000000000"
          ],
          "data": "0x0000000000000000000000000000000000000000000000000000000000000001",
          "blockHash": "0xdb23bc6cb40aeee257dc32e47956bd0c0d6341946c7c48bad7f35bdcce59d87c",
          "blockNumber": "0x175d850",
          "blockTimestamp": "0x6998bcd3",
          "transactionHash": "0xa6bc4ed378a4ee3e8ebe334cb84a1eaa05cbec478acf39bc7667835ad1a0b47c",
          "transactionIndex": "0xd0",
          "logIndex": "0x1f2",
          "removed": false
        }
      ],
      "logsBloom": "0x10000000000000000000000000000000000000000000000000000000000000000000000000000000000080000000000000000000000000000000000000000000000000000000000040000000004000000000000000000000000000000000000008000000000000000000000001000000000000000000080000000000000000000000000000000000000000000000000000000000010000000000000000000000000400000000000000000000000000000000000000000000202000008000000000000000000000000000000000080000000000008080000000000000000000000000000000000000000000000000000000000000000000000000000000000000",
      "type": "0x2",
      "transactionHash": "0xa6bc4ed378a4ee3e8ebe334cb84a1eaa05cbec478acf39bc7667835ad1a0b47c",
      "transactionIndex": "0xd0",
      "blockHash": "0xdb23bc6cb40aeee257dc32e47956bd0c0d6341946c7c48bad7f35bdcce59d87c",
      "blockNumber": "0x175d850",
      "gasUsed": "0xc963",
      "effectiveGasPrice": "0x2bb725d",
      "from": "0x77b4922fcc0fa745bcd7d76025e682cfffc9a149",
      "to": "0xcb0a393f175b555824ff93586351b97e5ab9471b",
      "contractAddress": null
    },
    {
      "status": "0x1",
      "cumulativeGasUsed": "0x14635f8",
      "logs": [
        {
          "address": "0xcb0a393f175b555824ff93586351b97e5ab9471b",
          "topics": [
            "0xa52ea92e6e955aa8ac66420b86350f7139959adfcc7e6a14eee1bd116d09860e",
            "0x0000000000000000000000000000000000000000000000000000000000000005",
            "0x00000000000000000000000004d4e50cdc047b7e36460a813075d075af59683d",
            "0x3458113d00000000000000000000000000000000000000000000000000000000"
          ],
          "data": "0x0000000000000000000000000000000000000000000000000000000000000001",
          "blockHash": "0xdb23bc6cb40aeee257dc32e47956bd0c0d6341946c7c48bad7f35bdcce59d87c",
          "blockNumber": "0x175d850",
          "blockTimestamp": "0x6998bcd3",
          "transactionHash": "0x3bd30f6c47e9d3defeba510eb9eb82d3c79423976d20ee8d07bc955159030016",
          "transactionIndex": "0xd1",
          "logIndex": "0x1f3",
          "removed": false
        }
      ],
      "logsBloom": "0x10000000000000000000000000000004000000000000000000000000000000000000000000000000400080000000000000000000000000000000000000400000000010000000000040000000000000000000000000000000000000000000000000000000000000000000000000000000000000000000080000000000000000000000000000000000000000000000001000000800010000000000000000000000000000000000000000000000000000000000000000000000000000000000000000000000000000000000000000081000000000000000000000000000000000000000000000000000020000000000000000000000000000800000000000000000",
      "type": "0x2",
      "transactionHash": "0x3bd30f6c47e9d3defeba510eb9eb82d3c79423976d20ee8d07bc955159030016",
      "transactionIndex": "0xd1",
      "blockHash": "0xdb23bc6cb40aeee257dc32e47956bd0c0d6341946c7c48bad7f35bdcce59d87c",
      "blockNumber": "0x175d850",
      "gasUsed": "0xc963",
      "effectiveGasPrice": "0x2bb725d",
      "from": "0x77b4922fcc0fa745bcd7d76025e682cfffc9a149",
      "to": "0xcb0a393f175b555824ff93586351b97e5ab9471b",
      "contractAddress": null
    },
    {
      "status": "0x1",
      "cumulativeGasUsed": "0x146ff5b",
      "logs": [
        {
          "address": "0xcb0a393f175b555824ff93586351b97e5ab9471b",
          "topics": [
            "0xa52ea92e6e955aa8ac66420b86350f7139959adfcc7e6a14eee1bd116d09860e",
            "0x0000000000000000000000000000000000000000000000000000000000000007",
            "0x0000000000000000000000009a1f42b252cc0a7fedd06010c3ea35ce24a4e779",
            "0x3e64ce9900000000000000000000000000000000000000000000000000000000"
          ],
          "data": "0x0000000000000000000000000000000000000000000000000000000000000001",
          "blockHash": "0xdb23bc6cb40aeee257dc32e47956bd0c0d6341946c7c48bad7f35bdcce59d87c",
          "blockNumber": "0x175d850",
          "blockTimestamp": "0x6998bcd3",
          "transactionHash": "0xa341667831db3acc1d01d51729b810c1dfb52ba0a090a6c7ddd3b7b4011721b2",
          "transactionIndex": "0xd2",
          "logIndex": "0x1f4",
          "removed": false
        }
      ],
      "logsBloom": "0x10000000000000000000000000000000000000000000000000000000000000000000100000000000000080000000000000001000000000000000000000000800000020000000000040000080000000000000100000000000100000000000000000000000000000000000000000000000000000000000080000000000000000000000000000000000000000000000000000000000010000000000000000000000000000000000000000000000000000000000000000002000000000000000000000000000000000000000000000080000000000000000000000000100000000000000000000000000000000000000000000000000000000000000000000000000",
      "type": "0x2",
      "transactionHash": "0xa341667831db3acc1d01d51729b810c1dfb52ba0a090a6c7ddd3b7b4011721b2",
      "transactionIndex": "0xd2",
      "blockHash": "0xdb23bc6cb40aeee257dc32e47956bd0c0d6341946c7c48bad7f35bdcce59d87c",
      "blockNumber": "0x175d850",
      "gasUsed": "0xc963",
      "effectiveGasPrice": "0x2bb725d",
      "from": "0x77b4922fcc0fa745bcd7d76025e682cfffc9a149",
      "to": "0xcb0a393f175b555824ff93586351b97e5ab9471b",
      "contractAddress": null
    },
    {
      "status": "0x1",
      "cumulativeGasUsed": "0x147c8be",
      "logs": [
        {
          "address": "0xcb0a393f175b555824ff93586351b97e5ab9471b",
          "topics": [
            "0xa52ea92e6e955aa8ac66420b86350f7139959adfcc7e6a14eee1bd116d09860e",
            "0x0000000000000000000000000000000000000000000000000000000000000006",
            "0x000000000000000000000000659c35af4b862a93d9c1d61b4baa6595f357de70",
            "0xf399ec4800000000000000000000000000000000000000000000000000000000"
          ],
          "data": "0x0000000000000000000000000000000000000000000000000000000000000001",
          "blockHash": "0xdb23bc6cb40aeee257dc32e47956bd0c0d6341946c7c48bad7f35bdcce59d87c",
          "blockNumber": "0x175d850",
          "blockTimestamp": "0x6998bcd3",
          "transactionHash": "0x2ffa0d9624992ddc732786ef43cd3ea6e567afe4fff410432f79e1905b1ade50",
          "transactionIndex": "0xd3",
          "logIndex": "0x1f5",
          "removed": false
        }
      ],
      "logsBloom": "0x10000000000000000000000000000000000000000000000100000000000000000000000000000000000080000000000000000000000400000000000000000000000000000000000040004000000000000000000000000000000000000000000000000000000000000000000000000000000000000000080010000000000002000000000400000000000000000000000000000400010000000000000000000000000000000000000000000000000000000000000000000000000000080000000000000000000000000000000000080000000000000000000000000000000000000000000000000000000000020000000000000000000000000000000000000000",
      "type": "0x2",
      "transactionHash": "0x2ffa0d9624992ddc732786ef43cd3ea6e567afe4fff410432f79e1905b1ade50",
      "transactionIndex": "0xd3",
      "blockHash": "0xdb23bc6cb40aeee257dc32e47956bd0c0d6341946c7c48bad7f35bdcce59d87c",
      "blockNumber": "0x175d850",
      "gasUsed": "0xc963",
      "effectiveGasPrice": "0x2bb725d",
      "from": "0x77b4922fcc0fa745bcd7d76025e682cfffc9a149",
      "to": "0xcb0a393f175b555824ff93586351b97e5ab9471b",
      "contractAddress": null
    },
    {
      "status": "0x1",
      "cumulativeGasUsed": "0x1488f41",
      "logs": [
        {
          "address": "0xcb0a393f175b555824ff93586351b97e5ab9471b",
          "topics": [
            "0x950a343f5d10445e82a71036d3f4fb3016180a25805141932543b83e2078a93e",
            "0x0000000000000000000000009a1f42b252cc0a7fedd06010c3ea35ce24a4e779",
            "0x0efe6a8b00000000000000000000000000000000000000000000000000000000"
          ],
          "data": "0x0000000000000000000000000000000000000000000000000000000000000001",
          "blockHash": "0xdb23bc6cb40aeee257dc32e47956bd0c0d6341946c7c48bad7f35bdcce59d87c",
          "blockNumber": "0x175d850",
          "blockTimestamp": "0x6998bcd3",
          "transactionHash": "0x7b3408500ec4ea318103959f1b24cb376a1baae15a36969c7b89fd4bc1797534",
          "transactionIndex": "0xd4",
          "logIndex": "0x1f6",
          "removed": false
        }
      ],
      "logsBloom": "0x10000000000000000100000000000000000000000000000000001000000000000000100000000000000080000000000000000000100000000000000000000800000000000000000040000000000000000000000000000000000000000000000000000000000000000000000000000000000000000000000000000000000000000008000000000000000000000000000000000000000000000000000000000000000000000000000400000000000000000000000000002000000000000000000000000000000000000100000000000000000000000000000000000000000000000000000000000000000000000000000000000000000000000000000000000000",
      "type": "0x2",
      "transactionHash": "0x7b3408500ec4ea318103959f1b24cb376a1baae15a36969c7b89fd4bc1797534",
      "transactionIndex": "0xd4",
      "blockHash": "0xdb23bc6cb40aeee257dc32e47956bd0c0d6341946c7c48bad7f35bdcce59d87c",
      "blockNumber": "0x175d850",
      "gasUsed": "0xc683",
      "effectiveGasPrice": "0x2bb725d",
      "from": "0x77b4922fcc0fa745bcd7d76025e682cfffc9a149",
      "to": "0xcb0a393f175b555824ff93586351b97e5ab9471b",
      "contractAddress": null
    },
    {
      "status": "0x1",
      "cumulativeGasUsed": "0x14955c4",
      "logs": [
        {
          "address": "0xcb0a393f175b555824ff93586351b97e5ab9471b",
          "topics": [
            "0x950a343f5d10445e82a71036d3f4fb3016180a25805141932543b83e2078a93e",
            "0x000000000000000000000000659c35af4b862a93d9c1d61b4baa6595f357de70",
            "0xf091d78500000000000000000000000000000000000000000000000000000000"
          ],
          "data": "0x0000000000000000000000000000000000000000000000000000000000000001",
          "blockHash": "0xdb23bc6cb40aeee257dc32e47956bd0c0d6341946c7c48bad7f35bdcce59d87c",
          "blockNumber": "0x175d850",
          "blockTimestamp": "0x6998bcd3",
          "transactionHash": "0xd69841a884a7c7e1bb00cff33283515847df3ad0077d7dc94eaa312cb0fce60f",
          "transactionIndex": "0xd5",
          "logIndex": "0x1f7",
          "removed": false
        }
      ],
      "logsBloom": "0x10000000000000000100000000000000000000000000000000001000000000000000000000000004000080000000000000000000000000000000000000000000000000000000000040000000000000000000000000000000000000000000000000000000000000000000000000000000000000000000000000000000000002000008000000000000000000000000800000000400000000000000000000000000000000000000000000000000000000000000000000000000000000000000000000000000000000000000000000000000000000000000000000000000000000000000000000000000040000020000000000000000000000000000000000000000",
      "type": "0x2",
      "transactionHash": "0xd69841a884a7c7e1bb00cff33283515847df3ad0077d7dc94eaa312cb0fce60f",
      "transactionIndex": "0xd5",
      "blockHash": "0xdb23bc6cb40aeee257dc32e47956bd0c0d6341946c7c48bad7f35bdcce59d87c",
      "blockNumber": "0x175d850",
      "gasUsed": "0xc683",
      "effectiveGasPrice": "0x2bb725d",
      "from": "0x77b4922fcc0fa745bcd7d76025e682cfffc9a149",
      "to": "0xcb0a393f175b555824ff93586351b97e5ab9471b",
      "contractAddress": null
    },
    {
      "status": "0x1",
      "cumulativeGasUsed": "0x14a1c47",
      "logs": [
        {
          "address": "0xcb0a393f175b555824ff93586351b97e5ab9471b",
          "topics": [
            "0x950a343f5d10445e82a71036d3f4fb3016180a25805141932543b83e2078a93e",
            "0x000000000000000000000000659c35af4b862a93d9c1d61b4baa6595f357de70",
            "0x9f01f7ba00000000000000000000000000000000000000000000000000000000"
          ],
          "data": "0x0000000000000000000000000000000000000000000000000000000000000001",
          "blockHash": "0xdb23bc6cb40aeee257dc32e47956bd0c0d6341946c7c48bad7f35bdcce59d87c",
          "blockNumber": "0x175d850",
          "blockTimestamp": "0x6998bcd3",
          "transactionHash": "0xe943fba9c45753a642546975f48281940e5d54fe556d7968cc386ca655839d9c",
          "transactionIndex": "0xd6",
          "logIndex": "0x1f8",
          "removed": false
        }
      ],
      "logsBloom": "0x10000000000000000100000000000000000000000000000000001000000000000000000000000000000080000000000000000000000000000000000000000000000000000000000040000000000000000000000000000000000000000000000000000000000000000000000000000000000000000000000000000000000002000008000000000000000000000008000000000400000000000000000000000000000000000000000000000000000000000000000000000000000000000000000000000000000000000000000000000000000008010000000000000000000000000000000000000000000000020000000000000000000000000000000000000000",
      "type": "0x2",
      "transactionHash": "0xe943fba9c45753a642546975f48281940e5d54fe556d7968cc386ca655839d9c",
      "transactionIndex": "0xd6",
      "blockHash": "0xdb23bc6cb40aeee257dc32e47956bd0c0d6341946c7c48bad7f35bdcce59d87c",
      "blockNumber": "0x175d850",
      "gasUsed": "0xc683",
      "effectiveGasPrice": "0x2bb725d",
      "from": "0x77b4922fcc0fa745bcd7d76025e682cfffc9a149",
      "to": "0xcb0a393f175b555824ff93586351b97e5ab9471b",
      "contractAddress": null
    },
    {
      "status": "0x1",
      "cumulativeGasUsed": "0x14ae266",
      "logs": [
        {
          "address": "0xcb0a393f175b555824ff93586351b97e5ab9471b",
          "topics": [
            "0x4c9bdd0c8e073eb5eda2250b18d8e5121ff27b62064fbeeeed4869bb99bc5bf2",
            "0x000000000000000000000000bd0a20299113b29d52fb3503ad5b3f537b896fb3",
            "0x0000000000000000000000000000000000000000000000000000000000000001"
          ],
          "data": "0x0000000000000000000000000000000000000000000000000000000000000001",
          "blockHash": "0xdb23bc6cb40aeee257dc32e47956bd0c0d6341946c7c48bad7f35bdcce59d87c",
          "blockNumber": "0x175d850",
          "blockTimestamp": "0x6998bcd3",
          "transactionHash": "0x8c83e4e397c88088816e4541e75d38371bb1b805605b902c49a1b99d9175548a",
          "transactionIndex": "0xd7",
          "logIndex": "0x1f9",
          "removed": false
        }
      ],
      "logsBloom": "0x10000000000000000000000000000000000000000000000000000000000000000000000000000000000080000000000000000000000000000000000000040000000000000000000040000000000000000000000000040000000000000000000000000000000000000000000001000000000000000000000000000000000000000000000000000000000000000000000000000080000000000000000000000000000400000000000000000000000000000000000000000000000000008000000000000000000000000000000000000000000000000000000000000000000040000000000000000000000000000000000000400080000000000000000000000000",
      "type": "0x2",
      "transactionHash": "0x8c83e4e397c88088816e4541e75d38371bb1b805605b902c49a1b99d9175548a",
      "transactionIndex": "0xd7",
      "blockHash": "0xdb23bc6cb40aeee257dc32e47956bd0c0d6341946c7c48bad7f35bdcce59d87c",
      "blockNumber": "0x175d850",
      "gasUsed": "0xc61f",
      "effectiveGasPrice": "0x2bb725d",
      "from": "0x77b4922fcc0fa745bcd7d76025e682cfffc9a149",
      "to": "0xcb0a393f175b555824ff93586351b97e5ab9471b",
      "contractAddress": null
    },
    {
      "status": "0x1",
      "cumulativeGasUsed": "0x14ba885",
      "logs": [
        {
          "address": "0xcb0a393f175b555824ff93586351b97e5ab9471b",
          "topics": [
            "0x4c9bdd0c8e073eb5eda2250b18d8e5121ff27b62064fbeeeed4869bb99bc5bf2",
            "0x0000000000000000000000009a1f42b252cc0a7fedd06010c3ea35ce24a4e779",
            "0x0000000000000000000000000000000000000000000000000000000000000002"
          ],
          "data": "0x0000000000000000000000000000000000000000000000000000000000000001",
          "blockHash": "0xdb23bc6cb40aeee257dc32e47956bd0c0d6341946c7c48bad7f35bdcce59d87c",
          "blockNumber": "0x175d850",
          "blockTimestamp": "0x6998bcd3",
          "transactionHash": "0xe3a13a2e2e453b6b0629a6c5e2dce794e93dae0d65fb0ab1b6cd743b803b72d2",
          "transactionIndex": "0xd8",
          "logIndex": "0x1fa",
          "removed": false
        }
      ],
      "logsBloom": "0x14000000000000000000000000000000000000000000000000000000000000000000100000000000000080000000000000000000000000000000000000000800000000000000000040000000000000000000000000000000000000000000000000000000000000000000000000000000000000000000000000000000000000000000000000000000000000000000000000000080000000000000000000000000000000000000000000000100000000000000000000002000000000000000000000000000000000000000000000000000000000000000000000000000000000000000000000000000000000000000000000400080008000000000000000000000",
      "type": "0x2",
      "transactionHash": "0xe3a13a2e2e453b6b0629a6c5e2dce794e93dae0d65fb0ab1b6cd743b803b72d2",
      "transactionIndex": "0xd8",
      "blockHash": "0xdb23bc6cb40aeee257dc32e47956bd0c0d6341946c7c48bad7f35bdcce59d87c",
      "blockNumber": "0x175d850",
      "gasUsed": "0xc61f",
      "effectiveGasPrice": "0x2bb725d",
      "from": "0x77b4922fcc0fa745bcd7d76025e682cfffc9a149",
      "to": "0xcb0a393f175b555824ff93586351b97e5ab9471b",
      "contractAddress": null
    },
    {
      "status": "0x1",
      "cumulativeGasUsed": "0x14c2bd8",
      "logs": [
        {
          "address": "0xcb0a393f175b555824ff93586351b97e5ab9471b",
          "topics": [
            "0x4c9bdd0c8e073eb5eda2250b18d8e5121ff27b62064fbeeeed4869bb99bc5bf2",
            "0x0000000000000000000000009a1f42b252cc0a7fedd06010c3ea35ce24a4e779",
            "0x0000000000000000000000000000000000000000000000000000000000000003"
          ],
          "data": "0x0000000000000000000000000000000000000000000000000000000000000001",
          "blockHash": "0xdb23bc6cb40aeee257dc32e47956bd0c0d6341946c7c48bad7f35bdcce59d87c",
          "blockNumber": "0x175d850",
          "blockTimestamp": "0x6998bcd3",
          "transactionHash": "0x259245995e26e81e5442e6efb312e67deeb8a22797c9a5ab8d20ed56de096b81",
          "transactionIndex": "0xd9",
          "logIndex": "0x1fb",
          "removed": false
        }
      ],
      "logsBloom": "0x10000000000000000000000000000000000000000000000000000000000000000000100000000000000080000000000000000000020000000000000000000800000000000000000040000000000000000000000000000000000000000000000000000000000000000000000000000000000000000000000000000000000000000000000000000000000000000000000000000080000000000000000000000000000000000000000000000000000000000000000000802000000000000000400000000000000000000000000000000000000000000000000000000000000000000000000000000000000000000000000000400080000000000000000000000000",
      "type": "0x2",
      "transactionHash": "0x259245995e26e81e5442e6efb312e67deeb8a22797c9a5ab8d20ed56de096b81",
      "transactionIndex": "0xd9",
      "blockHash": "0xdb23bc6cb40aeee257dc32e47956bd0c0d6341946c7c48bad7f35bdcce59d87c",
      "blockNumber": "0x175d850",
      "gasUsed": "0x8353",
      "effectiveGasPrice": "0x2bb725d",
      "from": "0x77b4922fcc0fa745bcd7d76025e682cfffc9a149",
      "to": "0xcb0a393f175b555824ff93586351b97e5ab9471b",
      "contractAddress": null
    },
    {
      "status": "0x1",
      "cumulativeGasUsed": "0x14cf1f7",
      "logs": [
        {
          "address": "0xcb0a393f175b555824ff93586351b97e5ab9471b",
          "topics": [
            "0x4c9bdd0c8e073eb5eda2250b18d8e5121ff27b62064fbeeeed4869bb99bc5bf2",
            "0x000000000000000000000000659c35af4b862a93d9c1d61b4baa6595f357de70",
            "0x0000000000000000000000000000000000000000000000000000000000000007"
          ],
          "data": "0x0000000000000000000000000000000000000000000000000000000000000001",
          "blockHash": "0xdb23bc6cb40aeee257dc32e47956bd0c0d6341946c7c48bad7f35bdcce59d87c",
          "blockNumber": "0x175d850",
          "blockTimestamp": "0x6998bcd3",
          "transactionHash": "0xdd78d0861e89d3ce1978e0ab8c9df0cb31498ec74f1cd4f7558f27bc19517c3e",
          "transactionIndex": "0xda",
          "logIndex": "0x1fc",
          "removed": false
        }
      ],
      "logsBloom": "0x10000000000000000000000000000000000000000000000000000000000000000000000000000000000080000000000000001000000000000000000000000000000020000000000040000000000000000000000000000000000000000000000000000000000000000000000000000000000000000000000000000000000002000000000000000000000000000000000000000480000000000000000000000000000000000000000000000000000000000000000000000000000000000000000000000000000000000000000000000000000000000000000000000100000000000000000000000000000000020000000000400080000000000000000000000000",
      "type": "0x2",
      "transactionHash": "0xdd78d0861e89d3ce1978e0ab8c9df0cb31498ec74f1cd4f7558f27bc19517c3e",
      "transactionIndex": "0xda",
      "blockHash": "0xdb23bc6cb40aeee257dc32e47956bd0c0d6341946c7c48bad7f35bdcce59d87c",
      "blockNumber": "0x175d850",
      "gasUsed": "0xc61f",
      "effectiveGasPrice": "0x2bb725d",
      "from": "0x77b4922fcc0fa745bcd7d76025e682cfffc9a149",
      "to": "0xcb0a393f175b555824ff93586351b97e5ab9471b",
      "contractAddress": null
    },
    {
      "status": "0x1",
      "cumulativeGasUsed": "0x14db816",
      "logs": [
        {
          "address": "0xcb0a393f175b555824ff93586351b97e5ab9471b",
          "topics": [
            "0x4c9bdd0c8e073eb5eda2250b18d8e5121ff27b62064fbeeeed4869bb99bc5bf2",
            "0x00000000000000000000000077b4922fcc0fa745bcd7d76025e682cfffc9a149",
            "0x0000000000000000000000000000000000000000000000000000000000000005"
          ],
          "data": "0x0000000000000000000000000000000000000000000000000000000000000001",
          "blockHash": "0xdb23bc6cb40aeee257dc32e47956bd0c0d6341946c7c48bad7f35bdcce59d87c",
          "blockNumber": "0x175d850",
          "blockTimestamp": "0x6998bcd3",
          "transactionHash": "0xd2b89e56dd6bf65c5a9e1ca66238a03b7bf98a1092b6fd53229ebb1156df3f39",
          "transactionIndex": "0xdb",
          "logIndex": "0x1fd",
          "removed": false
        }
      ],
      "logsBloom": "0x100000000000000000000000000000000000000000000000000000000000000000000000000000000000800000000000000000000000000000000001000000000000100000000000400000000000000000000000000000000000000000000000000000000000000000000000000000000000000000000000000000000000000000000000000000000000000000000010000008800000000000000000000000000000000000000000000000000000000000000000000000000000000000000000000000000000000000000000000000000000000000000000000000000000000000000000000000000000000000000000004000c0000000000000000000000020",
      "type": "0x2",
      "transactionHash": "0xd2b89e56dd6bf65c5a9e1ca66238a03b7bf98a1092b6fd53229ebb1156df3f39",
      "transactionIndex": "0xdb",
      "blockHash": "0xdb23bc6cb40aeee257dc32e47956bd0c0d6341946c7c48bad7f35bdcce59d87c",
      "blockNumber": "0x175d850",
      "gasUsed": "0xc61f",
      "effectiveGasPrice": "0x2bb725d",
      "from": "0x77b4922fcc0fa745bcd7d76025e682cfffc9a149",
      "to": "0xcb0a393f175b555824ff93586351b97e5ab9471b",
      "contractAddress": null
    },
    {
      "status": "0x1",
      "cumulativeGasUsed": "0x14e3b69",
      "logs": [
        {
          "address": "0xcb0a393f175b555824ff93586351b97e5ab9471b",
          "topics": [
            "0x4c9bdd0c8e073eb5eda2250b18d8e5121ff27b62064fbeeeed4869bb99bc5bf2",
            "0x00000000000000000000000077b4922fcc0fa745bcd7d76025e682cfffc9a149",
            "0x0000000000000000000000000000000000000000000000000000000000000006"
          ],
          "data": "0x0000000000000000000000000000000000000000000000000000000000000001",
          "blockHash": "0xdb23bc6cb40aeee257dc32e47956bd0c0d6341946c7c48bad7f35bdcce59d87c",
          "blockNumber": "0x175d850",
          "blockTimestamp": "0x6998bcd3",
          "transactionHash": "0x62c98c629357a844ba93638e2ada79a0af81438ee469d7db50b563caa953a0d5",
          "transactionIndex": "0xdc",
          "logIndex": "0x1fe",
          "removed": false
        }
      ],
      "logsBloom": "0x100000000000000000000000000000000000000000000000000000000000000000000000000000000000800000000000000000000004000000000001000000000000000000000000400000000000000000000000000000000000000000000000000000000000000000000000000000000000000000000000000000000000000000000004000000000000000000000000000000800000000000000000000000000000000000000000000000000000000000000000000000000000000800000000000000000000000000000000000000000000000000000000000000000000000000000000000000000000000000000000004000c0000000000000000000000020",
      "type": "0x2",
      "transactionHash": "0x62c98c629357a844ba93638e2ada79a0af81438ee469d7db50b563caa953a0d5",
      "transactionIndex": "0xdc",
      "blockHash": "0xdb23bc6cb40aeee257dc32e47956bd0c0d6341946c7c48bad7f35bdcce59d87c",
      "blockNumber": "0x175d850",
      "gasUsed": "0x8353",
      "effectiveGasPrice": "0x2bb725d",
      "from": "0x77b4922fcc0fa745bcd7d76025e682cfffc9a149",
      "to": "0xcb0a393f175b555824ff93586351b97e5ab9471b",
      "contractAddress": null
    },
    {
      "status": "0x1",
      "cumulativeGasUsed": "0x1501fc1",
      "logs": [
        {
          "address": "0x9a1f42b252cc0a7fedd06010c3ea35ce24a4e779",
          "topics": [
            "0xe08301321781ac43935a2099b2c3fd42de0a0ee87a519cac00e8c9cecd26ff12",
            "0x0000000000000000000000004c9edd5852cd905f086c759e8383e09bff1e68b3"
          ],
          "data": "0x000000000000000000000000000000000000000000000000000000000000000100000000000000000000000000000000000000000000000000000000000000010000000000000000000000000000000000000000000000000000000000000000",
          "blockHash": "0xdb23bc6cb40aeee257dc32e47956bd0c0d6341946c7c48bad7f35bdcce59d87c",
          "blockNumber": "0x175d850",
          "blockTimestamp": "0x6998bcd3",
          "transactionHash": "0x99ba9efb649d631afd189d06eaf5aa20691f7ae98a28078e64d8c809ffb9f26a",
          "transactionIndex": "0xde",
          "logIndex": "0x200",
          "removed": false
        }
      ],
      "logsBloom": "0x00000400000000008000000000000000000000000000000000000000000000000000000000000000000000000000000000000000000000000000000000000000000000000000000000000000000000000000000000000000000000000000000000000000000000000000000000000000000000100000000000000000000000000000000000000000000000000000000000000001000000000000000000000000000000000000000000000000000000000000000000000000000000000000020000100000000001000000000000000000000000000000000000000000000000000000000000000000000000000000080000000008000000000000000000000000",
      "type": "0x2",
      "transactionHash": "0x99ba9efb649d631afd189d06eaf5aa20691f7ae98a28078e64d8c809ffb9f26a",
      "transactionIndex": "0xde",
      "blockHash": "0xdb23bc6cb40aeee257dc32e47956bd0c0d6341946c7c48bad7f35bdcce59d87c",
      "blockNumber": "0x175d850",
      "gasUsed": "0xf124",
      "effectiveGasPrice": "0x2bb725d",
      "from": "0x77b4922fcc0fa745bcd7d76025e682cfffc9a149",
      "to": "0x9a1f42b252cc0a7fedd06010c3ea35ce24a4e779",
      "contractAddress": null
    },
    {
      "status": "0x1",
      "cumulativeGasUsed": "0x151056d",
      "logs": [],
      "logsBloom": "0x00000000000000000000000000000000000000000000000000000000000000000000000000000000000000000000000000000000000000000000000000000000000000000000000000000000000000000000000000000000000000000000000000000000000000000000000000000000000000000000000000000000000000000000000000000000000000000000000000000000000000000000000000000000000000000000000000000000000000000000000000000000000000000000000000000000000000000000000000000000000000000000000000000000000000000000000000000000000000000000000000000000000000000000000000000000",
      "type": "0x2",
      "transactionHash": "0xf1c2f891c42c3bfba95b9959b4f19f728ed7699aec15273d693af3f7f00bd540",
      "transactionIndex": "0xdf",
      "blockHash": "0xdb23bc6cb40aeee257dc32e47956bd0c0d6341946c7c48bad7f35bdcce59d87c",
      "blockNumber": "0x175d850",
      "gasUsed": "0xe5ac",
      "effectiveGasPrice": "0x2bb725d",
      "from": "0x77b4922fcc0fa745bcd7d76025e682cfffc9a149",
      "to": "0x324dcd943a79ff3497845479980f6bc936b8116e",
      "contractAddress": null
    },
    {
      "status": "0x1",
      "cumulativeGasUsed": "0x1519b90",
      "logs": [
        {
          "address": "0x324dcd943a79ff3497845479980f6bc936b8116e",
          "topics": [
            "0x8be0079c531659141344cd1fd0a4f28419497f9722a3daafe3b4186f6b6457e0",
            "0x00000000000000000000000077b4922fcc0fa745bcd7d76025e682cfffc9a149",
            "0x00000000000000000000000077b4922fcc0fa745bcd7d76025e682cfffc9a149"
          ],
          "data": "0x",
          "blockHash": "0xdb23bc6cb40aeee257dc32e47956bd0c0d6341946c7c48bad7f35bdcce59d87c",
          "blockNumber": "0x175d850",
          "blockTimestamp": "0x6998bcd3",
          "transactionHash": "0x6ba113302845b42ce4c4893afa597b0bde96829f0eb82c6dd377bdc026549228",
          "transactionIndex": "0xe0",
          "logIndex": "0x201",
          "removed": false
        }
      ],
      "logsBloom": "0x00000400000000000000000000000000000000000000000000800000000000000000000000000000000000000000000000000000000000000000000100000000000000000000200000000000000000000001000000000000000000000000000000000000000000000000000000000000000000000000000000000000000000400000000000000000000000000000000000000000000000000000000000000000000000000000000000000000000000000000000000000000000000000000000000000000000000000000000000000000000000000000000000000000000000000080000000000000000000000000000000000040000000000000000000000020",
      "type": "0x2",
      "transactionHash": "0x6ba113302845b42ce4c4893afa597b0bde96829f0eb82c6dd377bdc026549228",
      "transactionIndex": "0xe0",
      "blockHash": "0xdb23bc6cb40aeee257dc32e47956bd0c0d6341946c7c48bad7f35bdcce59d87c",
      "blockNumber": "0x175d850",
      "gasUsed": "0x9623",
      "effectiveGasPrice": "0x2bb725d",
      "from": "0x77b4922fcc0fa745bcd7d76025e682cfffc9a149",
      "to": "0x324dcd943a79ff3497845479980f6bc936b8116e",
      "contractAddress": null
    },
    {
      "status": "0x1",
      "cumulativeGasUsed": "0x15231cf",
      "logs": [
        {
          "address": "0x04d4e50cdc047b7e36460a813075d075af59683d",
          "topics": [
            "0x8be0079c531659141344cd1fd0a4f28419497f9722a3daafe3b4186f6b6457e0",
            "0x00000000000000000000000077b4922fcc0fa745bcd7d76025e682cfffc9a149",
            "0x00000000000000000000000077b4922fcc0fa745bcd7d76025e682cfffc9a149"
          ],
          "data": "0x",
          "blockHash": "0xdb23bc6cb40aeee257dc32e47956bd0c0d6341946c7c48bad7f35bdcce59d87c",
          "blockNumber": "0x175d850",
          "blockTimestamp": "0x6998bcd3",
          "transactionHash": "0xe8c090df893e0720066210edf64e248880be7b60b4c564a131ecb303b223e211",
          "transactionIndex": "0xe1",
          "logIndex": "0x202",
          "removed": false
        }
      ],
      "logsBloom": "0x00000000000000000000000000000040000000000000000000800000008000000000000000000000000000000000000000000000000000000000000100000000000000000000000000000000000000000001000000000000000000000000000000000000000000000000000000000000000000000000000000000000000000400000000000000000000000000000000000000000000000000000000000000000000000000000000000000000000000000000000000000000000000000000000000000000000000000000000000000000000000000000000000000000000000000000000000000000000000040000000000000040000000000000000000000020",
      "type": "0x2",
      "transactionHash": "0xe8c090df893e0720066210edf64e248880be7b60b4c564a131ecb303b223e211",
      "transactionIndex": "0xe1",
      "blockHash": "0xdb23bc6cb40aeee257dc32e47956bd0c0d6341946c7c48bad7f35bdcce59d87c",
      "blockNumber": "0x175d850",
      "gasUsed": "0x963f",
      "effectiveGasPrice": "0x2bb725d",
      "from": "0x77b4922fcc0fa745bcd7d76025e682cfffc9a149",
      "to": "0x04d4e50cdc047b7e36460a813075d075af59683d",
      "contractAddress": null
    },
    {
      "status": "0x1",
      "cumulativeGasUsed": "0x152c828",
      "logs": [
        {
          "address": "0x9a1f42b252cc0a7fedd06010c3ea35ce24a4e779",
          "topics": [
            "0x8be0079c531659141344cd1fd0a4f28419497f9722a3daafe3b4186f6b6457e0",
            "0x00000000000000000000000077b4922fcc0fa745bcd7d76025e682cfffc9a149",
            "0x00000000000000000000000077b4922fcc0fa745bcd7d76025e682cfffc9a149"
          ],
          "data": "0x",
          "blockHash": "0xdb23bc6cb40aeee257dc32e47956bd0c0d6341946c7c48bad7f35bdcce59d87c",
          "blockNumber": "0x175d850",
          "blockTimestamp": "0x6998bcd3",
          "transactionHash": "0x044a46458f9af8f791385bf567afa82ad8350b57b952c821c2dde0d09537d1f0",
          "transactionIndex": "0xe2",
          "logIndex": "0x203",
          "removed": false
        }
      ],
      "logsBloom": "0x00000400000000000000000000000000000000000000000000800000000000000000000000000000000000000000000000000000000000000000000100000000000000000000000000000000000000000001000000000000000000000000000000000000000000000000000000000000000000100000000000000000000000400000000000000000000000000000000000000000000000000000000000000000000000000000000000000000000000000000000000000000000000000000000000000000000000000000000000000000000000000000000000000000000000000000000000000000000000000000000000000048000000000000000000000020",
      "type": "0x2",
      "transactionHash": "0x044a46458f9af8f791385bf567afa82ad8350b57b952c821c2dde0d09537d1f0",
      "transactionIndex": "0xe2",
      "blockHash": "0xdb23bc6cb40aeee257dc32e47956bd0c0d6341946c7c48bad7f35bdcce59d87c",
      "blockNumber": "0x175d850",
      "gasUsed": "0x9659",
      "effectiveGasPrice": "0x2bb725d",
      "from": "0x77b4922fcc0fa745bcd7d76025e682cfffc9a149",
      "to": "0x9a1f42b252cc0a7fedd06010c3ea35ce24a4e779",
      "contractAddress": null
    },
    {
      "status": "0x1",
      "cumulativeGasUsed": "0x1535e1e",
      "logs": [
        {
          "address": "0xbd0a20299113b29d52fb3503ad5b3f537b896fb3",
          "topics": [
            "0x8be0079c531659141344cd1fd0a4f28419497f9722a3daafe3b4186f6b6457e0",
            "0x00000000000000000000000077b4922fcc0fa745bcd7d76025e682cfffc9a149",
            "0x00000000000000000000000077b4922fcc0fa745bcd7d76025e682cfffc9a149"
          ],
          "data": "0x",
          "blockHash": "0xdb23bc6cb40aeee257dc32e47956bd0c0d6341946c7c48bad7f35bdcce59d87c",
          "blockNumber": "0x175d850",
          "blockTimestamp": "0x6998bcd3",
          "transactionHash": "0x86d1cdc7c6b3d9953cc511c8f0421a98056a0b1eb5e24e0f4834d63e6f8fb5d6",
          "transactionIndex": "0xe3",
          "logIndex": "0x204",
          "removed": false
        }
      ],
      "logsBloom": "0x00000000000000000000000000000000000000000400000000840000000000000000000000000000000000000000000000000000000000000000000100000000000000000000000000000000000000000001000000000000000000000000000000000000000000000000000000000000000000000000000000000000000000400000000000000000000000000000000000000000000000000000000000000000000000000000000000000000000000000000000000000000000000000000000000000000000000000000000000000000000000000000000000000000000000000000000000000000000000000000000000000040040000000000000000000020",
      "type": "0x2",
      "transactionHash": "0x86d1cdc7c6b3d9953cc511c8f0421a98056a0b1eb5e24e0f4834d63e6f8fb5d6",
      "transactionIndex": "0xe3",
      "blockHash": "0xdb23bc6cb40aeee257dc32e47956bd0c0d6341946c7c48bad7f35bdcce59d87c",
      "blockNumber": "0x175d850",
      "gasUsed": "0x95f6",
      "effectiveGasPrice": "0x2bb725d",
      "from": "0x77b4922fcc0fa745bcd7d76025e682cfffc9a149",
      "to": "0xbd0a20299113b29d52fb3503ad5b3f537b896fb3",
      "contractAddress": null
    },
    {
      "status": "0x1",
      "cumulativeGasUsed": "0x153f42e",
      "logs": [
        {
          "address": "0x659c35af4b862a93d9c1d61b4baa6595f357de70",
          "topics": [
            "0x8be0079c531659141344cd1fd0a4f28419497f9722a3daafe3b4186f6b6457e0",
            "0x00000000000000000000000077b4922fcc0fa745bcd7d76025e682cfffc9a149",
            "0x00000000000000000000000077b4922fcc0fa745bcd7d76025e682cfffc9a149"
          ],
          "data": "0x",
          "blockHash": "0xdb23bc6cb40aeee257dc32e47956bd0c0d6341946c7c48bad7f35bdcce59d87c",
          "blockNumber": "0x175d850",
          "blockTimestamp": "0x6998bcd3",
          "transactionHash": "0xfd4f1dd410e085098fadbc7bf36811d8061a60c3f7a982aa15640df8356bfcb7",
          "transactionIndex": "0xe4",
          "logIndex": "0x205",
          "removed": false
        }
      ],
      "logsBloom": "0x00000000000000000000000000000000000000000000000000800000000000000400000000000000000000000000000000000000000000020000000100000000000000000000000000000000000000000001000000000000000000000000000000000000000000000000000000000000000000000000000000000000000000400000000000000000000000000000000000000000000000000000000000000000000000000000002000000000000000000000000000000000000000000000000000000000000000000000000000000000000000000000000000000000000000000000000000000000000000000000000000000040000000000000000000000020",
      "type": "0x2",
      "transactionHash": "0xfd4f1dd410e085098fadbc7bf36811d8061a60c3f7a982aa15640df8356bfcb7",
      "transactionIndex": "0xe4",
      "blockHash": "0xdb23bc6cb40aeee257dc32e47956bd0c0d6341946c7c48bad7f35bdcce59d87c",
      "blockNumber": "0x175d850",
      "gasUsed": "0x9610",
      "effectiveGasPrice": "0x2bb725d",
      "from": "0x77b4922fcc0fa745bcd7d76025e682cfffc9a149",
      "to": "0x659c35af4b862a93d9c1d61b4baa6595f357de70",
      "contractAddress": null
    },
    {
      "status": "0x1",
      "cumulativeGasUsed": "0x1546183",
      "logs": [
        {
          "address": "0xcb0a393f175b555824ff93586351b97e5ab9471b",
          "topics": [
            "0x8be0079c531659141344cd1fd0a4f28419497f9722a3daafe3b4186f6b6457e0",
            "0x00000000000000000000000077b4922fcc0fa745bcd7d76025e682cfffc9a149",
            "0x00000000000000000000000077b4922fcc0fa745bcd7d76025e682cfffc9a149"
          ],
          "data": "0x",
          "blockHash": "0xdb23bc6cb40aeee257dc32e47956bd0c0d6341946c7c48bad7f35bdcce59d87c",
          "blockNumber": "0x175d850",
          "blockTimestamp": "0x6998bcd3",
          "transactionHash": "0x587c195799ed99bbed0f5af53860b11ec6d16256bf53d3ba791f361d3fe8a6ec",
          "transactionIndex": "0xe5",
          "logIndex": "0x206",
          "removed": false
        }
      ],
      "logsBloom": "0x10000000000000000000000000000000000000000000000000800000000000000000000000000000000080000000000000000000000000000000000100000000000000000000000040000000000000000001000000000000000000000000000000000000000000000000000000000000000000000000000000000000000000400000000000000000000000000000000000000000000000000000000000000000000000000000000000000000000000000000000000000000000000000000000000000000000000000000000000000000000000000000000000000000000000000000000000000000000000000000000000000040000000000000000000000020",
      "type": "0x2",
      "transactionHash": "0x587c195799ed99bbed0f5af53860b11ec6d16256bf53d3ba791f361d3fe8a6ec",
      "transactionIndex": "0xe5",
      "blockHash": "0xdb23bc6cb40aeee257dc32e47956bd0c0d6341946c7c48bad7f35bdcce59d87c",
      "blockNumber": "0x175d850",
      "gasUsed": "0x6d55",
      "effectiveGasPrice": "0x2bb725d",
      "from": "0x77b4922fcc0fa745bcd7d76025e682cfffc9a149",
      "to": "0xcb0a393f175b555824ff93586351b97e5ab9471b",
      "contractAddress": null
    }
  ],
  "libraries": [],
  "pending": [],
  "returns": {},
  "timestamp": 1771617495864,
  "chain": 1,
  "commit": null
}